:020000040800F2
:10000000C8060020E1010008E5010008E70100083A
:10001000E9010008EB010008ED0100080000000004
:10002000000000000000000000000000EF010008D8
:10003000F101000800000000F3010008F5010008CC
:10004000F7010008F7010008F7010008F7010008B0
:10005000F7010008F7010008F7010008F7010008A0
:10006000F7010008F7010008F7010008F701000890
:10007000F7010008F7010008F7010008F701000880
:10008000F7010008F7010008F7010008F701000870
:10009000F7010008F7010008F7010008F701000860
:1000A000F7010008F7010008F7010008F701000850
:1000B000F7010008F7010008F7010008F701000840
:1000C000F7010008F7010008F7010008F701000830
:1000D000F7010008F7010008F7010008F701000820
:1000E000F7010008F7010008F7010008F701000810
:1000F000F7010008F7010008F7010008F701000800
:10010000F7010008F7010008F7010008F7010008EF
:10011000F7010008F7010008F7010008F7010008DF
:10012000F7010008F7010008F7010008F7010008CF
:1001300000F002F800F03FF80AA090E8000C8244BA
:100140008344AAF10107DA4501D100F034F8AFF297
:10015000090EBAE80F0013F0010F18BFFB1A43F0A5
:1001600001031847D8130000F8130000103A24BF09
:1001700078C878C1FAD8520724BF30C830C144BF0C
:1001800004680C607047000000230024002500264E
:10019000103A28BF78C1FBD8520728BF30C148BFEA
:1001A0000B607047642900F02B86002070471FB554
:1001B0001FBD10B510BD00F0EBFE1146FFF7F7FFB5
:1001C00000F02AF800F009FF03B4FFF7F2FF03BCC8
:1001D00000F05CFA30BF72B662B680F308887047F0
:1001E00008480047FEE7FEE7FEE7FEE7FEE7FEE71A
:1001F000FEE7FEE7FEE7FEE703480449044A054B35
:100200007047000031010008C8000020C806002027
:10021000C8020020C8020020092000F0DEF94820B2
:1002200000F07EF800F0B0FA00F0E8FA4FF4165152
:10023000482000F045FA4FF47A7000F0A9F800F079
:10024000ABFB00F07BFD4FF47A7000F0A1F833E0D7
:10025000072000F086FC19490860082000F081FCA6
:1002600017490860052000F07CFC1649086006204C
:1002700000F077FC1449086000F050FC1349086056
:100280000E48016812A000F07BFD0D48016814A023
:1002900000F076FD0B48016815A000F071FD0A48DA
:1002A000016817A000F06CFD0848016818A000F074
:1002B00067FD642000F06CF8CAE700000000002031
:1002C00004000020080000200C0000201000002086
:1002D000256420202020205053325F4C583A0000E3
:1002E000256420202020205053325F4C593A0000D2
:1002F000256420202020205053325F52583A0000BD
:10030000256420202020205053325F52593A0000AB
:100310002564200D0A5053325F4B45593A000000C6
:100320004FF0E021096921F004014FF0E022116152
:10033000C21700EB5272C2F3C702234B1A70194660
:10034000097801EB4102C2EBC1114FF6FF7202EADC
:10035000C1011E4A1180704701461B4A12784A4368
:100360004FF0E0235A6100229A6101221A6100BF16
:100370004FF0E022106900F001021AB100F480325F
:10038000002AF5D000224FF0E0231A619A617047ED
:1003900001460E4A12884A434FF0E0235A61002278
:1003A0009A6101221A6100BF4FF0E022106900F04B
:1003B00001021AB100F48032002AF5D000224FF079
:1003C000E0231A619A617047140000201600002093
:1003D000A34A0A400243A34B1A6070470146072311
:1003E00023EA010212029F4B1B1D18684FF6FF0300
:1003F00018409D4B184310439A4B1B1D18607047C3
:100400002DE9F0410746884614461D462846FFF769
:10041000E5FFC5F1040007FA00F60F20284100EAC5
:100420000800064306F00F06E21704EBD2625211F1
:10043000920002F1E022D2F800212146E31704EBFA
:10044000D3635B11A4EB431C012303FA0CF31A439F
:100450002046E31704EBD3635B119B0003F1E02319
:10046000C3F800218148005D40EA06107F49085525
:10047000BDE8F08170B504460B46CE1701EB9676C9
:10048000C6F38700CE1701EB9676B610A1EB860671
:10049000B606350E764B9B6943F00103744EB3618B
:1004A0004FEAB63353F820300F26AE40B343714EB7
:1004B00046F82030334653F8203004FA05F61E4340
:1004C0006C4B43F820606C4B1B6801268E40334315
:1004D000694E336002F0010343B1674B0C331B6874
:1004E00001268E403343644E0C36336002F0020323
:1004F00043B1614B08331E6801238B401E435E4BA2
:1005000008331E6070BD00B5002059490861C860FD
:100510001420486100208861C8610846006840F0E6
:100520000100086008464068544908405049486046
:1005300008460068524908404D490860084600686E
:1005400020F4802008600846406820F4FE004860DF
:100550000020886000214FF00060FFF739FF00BDE8
:1005600010B540480830006840F004003D490831AB
:1005700008603F48C06940F080503D49C86141482B
:10058000406840F480703F4948600846006840F089
:10059000040008600846006840F002000860FFF7A9
:1005A00019FE10BD3048001D2E49091D0860704716
:1005B000014649062E4A926942F001022C4B9A618B
:1005C0002C4A083A526822F0E0622A4B083B5A60F3
:1005D0001A4652680A435A60704730B504460025EF
:1005E000FFF791FF2248006840F4803020490860FE
:1005F00000BF1F480068400C0028FAD04FF480600C
:100600001B494860A01EC4B20846406840EA8440C6
:1006100048600846406840F4803048601A480068E6
:1006200040F03200184908601148006840F08070BE
:100630000F49086000BF0E480068400E0028FAD03D
:100640000B48406840F002000949486005E008484E
:100650004068C0F3870505F00305022DF7D130BDD2
:1006600080FFFF1F08ED00E00000FA0500E400E055
:100670000010024008000140000401400000FFF8A3
:10068000FFFFF6FE0070004000200240014600BF60
:10069000704700BF384A128802F04002002AF9D0A1
:1006A000C2B2354B1B1D1A8070473349091D0880A3
:1006B00000BF3149098801F040010029F9D0704795
:1006C0002DE9F05F05460E46300100F0D7FD81466A
:1006D0002A4905FB01F000F0D1FD8246494600F0B1
:1006E000EBFC0746384600F0A9FD84B2204600F036
:1006F000C5FD8346394600F0A1FE82464FF0834196
:1007000000F0D0FD814600F099FD80464FF6FF7065
:1007100000EA041404EB080084B21948806940F030
:100720000400174988610846806940F48040886168
:100730001448006820F47F60124908600846006889
:1007400040F40B6008600E48C06840F480400C49DB
:10075000C8600846C06820F48040C8600648083079
:100760000480001D008842F20C01084302490C314C
:100770000880BDE8F09F00000038014040420F00B3
:1007800000100240040801401748806940F008004A
:10079000154988611548006820F470001349086005
:1007A0000846006840F440100860104808300068AF
:1007B00040F400500D4908310860704718B9002115
:1007C0000B4A11600FE00B490968491C094A116086
:1007D000814208D106490968C943074AC2F8B411E1
:1007E0000021044A1160704700100240040C0140CF
:1007F000B4812142200000200080214259488069B4
:1008000040F0080057498861574800685749084038
:100810005549086008460068554908435249086030
:1008200051480830006840F480504F490831086052
:100830000846006840F480400860704701464D4813
:10084000006828B94C480088401C4B4A108002E0E0
:100850000020494A10804748006828B94748007876
:1008600010B90120454A107045480078B0B9434896
:100870000078012807D143480078401C414A107095
:1008800001203F4A10703F480078022806D100201E
:100890003C4A10703C4A108002207047354800687E
:1008A000012804D10020354A1070354A10703548AF
:1008B000007801281CD134480088401C324A10803E
:1008C0001046008888420ADD2B480088884206DAF4
:1008D00000202C4A10702C4A10800120DDE72648A9
:1008E0000088884204DD0020264A1070264A1080C5
:1008F0000020D2E72548007838B11E48006820B9AA
:10090000002022490870012070471A480068012819
:1009100001D11E4908700020F6E71D48008840B943
:100920001448006828B91B480088401C19490880F1
:1009300002E000201749088016480088C82807DD13
:1009400001201349088000201249088001207047C7
:100950000F480088012802D100200D49088000209E
:10096000F5E7000000100240040C0140FFFFF0F02A
:1009700000000808388121422A00002024000020BD
:100980002500002026000020280000202C00002048
:10099000300000202E000020EF48806940F0080061
:1009A000ED498861ED48EE490860704738B5044666
:1009B000012000900020EB494870012000902EE0BB
:1009C000BDF80000204018B10120E749086002E0AE
:1009D0000020E54908600120E34908390860052046
:1009E000FFF7BAFC0020E149C1F8B4010520FFF788
:1009F000B3FC0120DD49C1F8B4010846D0F8380144
:100A000030B1D8484078BDF800100843D549487047
:100A1000BDF800004FF6FF7101EA40000090BDF8FC
:100A20000000FF28CCDD1020FFF796FC38BD10B584
:100A30000020CD490C390860CD490878FFF7B6FF92
:100A4000CB494878FFF7B2FF0120C849C1F8B0018F
:100A5000C4484078732801D1002010BD0120FCE774
:100A60001CB500200190012000900020BE490C39E7
:100A70000860BF490878FFF799FFBD494878FFF73C
:100A800095FF0220019036E00120009027E0012030
:100A9000B549083908600520FFF75EFC0020B3491E
:100AA000C1F8B4010520FFF757FC0120AF49C1F898
:100AB000B4010846D0F8380150B1AA489DF8041096
:100AC000405CBDF800100843A6499DF804208854F6
:100AD000BDF800004FF6FF7101EA40000090BDF83C
:100AE0000000FF28D3DD1020FFF736FC9DF804003E
:100AF000401CC0B201909DF804000928C4DB01200D
:100B000099490C3908601CBD002004E00021954A79
:100B10001154411CC8B20928F8DB704710B5FFF723
:100B2000F3FFFFF79DFF8F48C0788E49097940EAAF
:100B300001209049088000240FE08F4810F814002D
:100B4000401E012101FA00F08A490988084010B9C5
:100B5000601CC0B210BD601CC4B2102CEDDB0020C4
:100B6000F8E701467F48405C704770B505460C4683
:100B700000207D490C3908601020FFF7EDFB0120B3
:100B8000FFF714FF4220FFF711FF0020FFF70EFFD1
:100B90002846FFF70BFF2046FFF708FF0020FFF76E
:100BA00005FF0020FFF702FF0020FFF7FFFE0020F7
:100BB000FFF7FCFE01206D49C1F8B0011020FFF7DE
:100BC000CBFB70BD10B5002067490C3908601020C0
:100BD000FFF7C2FB0120FFF7E9FE4220FFF7E6FE28
:100BE0000020FFF7E3FE0020FFF7E0FE0020FFF704
:100BF000DDFE01205D49C1F8B0011020FFF7ACFB1C
:100C000010BD10B5002058490C3908601020FFF7BE
:100C1000A3FB0120FFF7CAFE4320FFF7C7FE002019
:100C2000FFF7C4FE0120FFF7C1FE0020FFF7BEFE64
:100C30000020FFF7BBFE0020FFF7B8FE0020FFF703
:100C4000B5FE0020FFF7B2FE01204849C1F8B0010F
:100C50001020FFF781FB10BD10B5002042490C3970
:100C600008600120FFF7A2FE4420FFF79FFE00204E
:100C7000FFF79CFE0120FFF799FE0320FFF796FE89
:100C80000020FFF793FE0020FFF790FE0020FFF703
:100C90008DFE0020FFF78AFE01203449C1F8B00123
:100CA0001020FFF759FB10BD10B500202E490C395C
:100CB00008601020FFF750FB0120FFF777FE4D2062
:100CC000FFF774FE0020FFF771FE0020FFF76EFEB5
:100CD0000120FFF76BFE01202449C1F8B00110206C
:100CE000FFF73AFB10BD10B500201F490C39086012
:100CF0001020FFF731FB0120FFF758FE4320FFF7DC
:100D000055FE0020FFF752FE0020FFF74FFE5A204D
:100D1000FFF74CFE5A20FFF749FE5A20FFF746FE28
:100D20005A20FFF743FE5A20FFF740FE01200F49EB
:100D3000C1F8B0011020FFF70FFB10BD10B5FFF791
:100D400041FFFFF73FFFFFF73DFFFFF75AFFFFF7B8
:100D500083FFFFF7C8FF10BD0010024000003338CA
:100D6000000C014058000020BC812142008021423B
:100D700034000020320000203600002070470000C0
:100D80000FB4044910B503AA029800F0D3F810BCC0
:100D90005DF814FB180000202DE9F0410E460446D2
:100DA000002020622046E168884730B3252805D01E
:100DB000D4E901219047206A401CF2E7E16820460F
:100DC00000278847050018D0A5F14100192802D84E
:100DD00020354FF400673246294620462760FFF74A
:100DE000E1F940B1012804D0F61D26F007060836C7
:100DF000D8E7361DD6E72846DAE7206ABDE8F08155
:100E00002DE9F0410646002410687529314616A5E3
:100E100010D0AFF30080002802DA404213A507E0AB
:100E200031688A0701D512A502E0490704D511A54A
:100E3000012401E0AFF3008000210A2206F124071B
:100E400009E0B0FBF2FCB0FBF2F302FB1C00303017
:100E500078541846491C0028F3D123462A463046C8
:100E6000BDE8F04100F00CB8000000002D000000CB
:100E70002B0000002000000070477047704770474B
:100E80002DE9F0470D4699469246044600F12408A4
:100E90000168880604D5E06921F01001216000E0B6
:100EA0000120A84201DD471B00E00027A1697A1953
:100EB00002EB0900081AA0612078C00602D420467F
:100EC000AFF30080002608E0D4E901211AF80600FB
:100ED0009047206A401C761C20624E45F4DB207847
:100EE000C0060AD52046AFF3008006E0D4E9012110
:100EF00030209047206A401C2062381EA7F101076D
:100F0000F4DC07E0D4E9012118F805009047206AD5
:100F1000401C2062281EA5F10105F3DC2046AFF33A
:100F200000802078000602D50220BDE8F08701206D
:100F3000FBE70000074B70B50D467B4400F011F84D
:100F40000446284600F020F810B14FF0FF3070BD85
:100F5000204670BD55F7FFFF01694A1C0261087801
:100F6000704700B58FB0CDE90131002105910549E9
:100F70007944CDE9031011466846FFF70DFF0FB025
:100F800000BD0000E5FFFFFF007B00F08000704720
:100F9000754600F02BF8AE4605006946534620F032
:100FA0000700854618B020B5FFF726F9BDE82040B8
:100FB0004FF000064FF000074FF000084FF0000B15
:100FC00021F00701AC46ACE8C009ACE8C009ACE8C8
:100FD000C009ACE8C0098D46704710B50446AFF3B0
:100FE00000802046BDE81040FFF7EEB8004870478B
:100FF0006400002090EA010F48BF81F0004100F139
:101000002E82421A3CBF801A89184FEAD0524FF004
:101010007F4C1CEA410FA2EBD15318BF9CEA026F30
:1010200000F03B804FF0004C4CEA00204CEA0121DC
:1010300021FA03FC10EB0C0C1ED202F1FF325FEA26
:101040001C2040EBC25038BF70471CF07F0F4FEAA6
:10105000400C18BFBCF17F4F38BF7047C3F120036D
:10106000994008BF20F00100BCF17F4F38BF7047A6
:10107000A0F1C04000F0DDB94FEA3C00000A40EBAF
:10108000C25028BF1CF0FF0F4FEA400CE6D018BF3B
:10109000BCF17F4F38BF7047EAE79CEA026F05D08A
:1010A00010EA5C0F08BF00F00040704710B500F078
:1010B0007AF900BF64FBBE3E4FF47F0C1CEAD012ED
:1010C0001EBF1CEAD11392EA0C0F93EA0C0F00F03A
:1010D000858090EA010F48BF42F4807240F4000C12
:1010E00041F400002CF07F4120F07F4000B58142A8
:1010F000A2EB03020FF2081CACEB504EC0F1000053
:101100009EF800E04FEA4E0E00FB0EFC38BF49008F
:101110004FEA2C1C02F5FA020CFB0EF34FEACE1E2E
:101120004FEA112C4FEAC1210EEB635E42EB2242E3
:101130000EFB0CFC4FEA1C5300FB03114FEA112C71
:101140004FEA01310EFB0CFC4FEADC4C00FB0C11AA
:10115000C14228BF09184CEB03335DF804EB10EBD8
:10116000410143EBC250B2F57C0F38BF704729D51F
:1011700012F0F00F1CBF00F1C04000F000407047BB
:10118000008182838485868788898B8C8D8E8F9160
:101190009293959697999A9C9D9FA0A2A3A5A7A884
:1011A000AAACAEB0B2B3B5B7B9BCBEC0C2C5C7C9B0
:1011B000CCCED1D4D7D9DCDFE2E6E9ECF0F3F7FA14
:1011C000FE0000004FEA400C0CF1807CBCF17E4F29
:1011D00028BF7047B0F1C04000F02BB990EA010F72
:1011E0000CEAD11348BF42F48072624538BF6345B0
:1011F00007D213F47F0F16D080EA010000F0004000
:10120000704710B500F0CFF8097EFC3E00F005B83D
:1012100080EA010000F00040704780EA010000F021
:10122000004000F006B912F47F0F04BF0248704777
:1012300080EA010000F0FDB80000C07FC10DD1F1CF
:101240009E0206DB4FEA002343F0004323FA02F03C
:101250007047004207D54FEA4001B1F1FE4F02D27C
:101260004FF00000704710B500F09DF849922480BF
:10127000002070476FEA200070470000B0FA80F34A
:1012800010FA03F2C3F19D030AD0D90501EB122035
:10129000530638BF704700F1010008BF20F001007D
:1012A000704700004FF47F0C1CEAD0121EBF1CEAEE
:1012B000D11392EA0C0F93EA0C0F00F0478090EAEA
:1012C000010F48BF42F480724FF0004C4CEA0020FE
:1012D0004CEA012102EB0302A0FB0113A2F500027C
:1012E000002918BF43F001035B0028BF4FEA330316
:1012F00042EB22425FEA132C4CEBC2502EBFBCEBF8
:10130000436FB2F57C0F70474FEA036CBCF1004F9E
:1013100008BF20F00100B2F57C0F38BF70470BD535
:1013200082F0FF0212F5803FC8BF704700F1C04055
:10133000D8BF00F00040704700F5000C5FEA4C0C8D
:1013400048BF7047B0F1C04000F073B890EA010F99
:101350000CEAD11348BF42F48072624538BF63453E
:1013600004D280EA010000F00040704710B500F0A0
:101370001AF800BF8900013E00F007B800F009B874
:101380005FEA410C5FEA1C6C08D080EA010000F0C3
:1013900050B85FEA400C5FEA1C6CF6D14FF0004099
:1013A000A0F5800070470EF1020E2EF0030E5EF8DD
:1013B000044B244204D44FEA4102B2F17F4F11D8CA
:1013C0004FEA4003B3F17F4F0CD80ED14FEAD07CE7
:1013D000B2F17F4F0CEB4C0C0CF1020C08BF4CEB44
:1013E000D17C04E04FF0080C01E04FEAD17C0CEB1B
:1013F0004C0324FA03F404F00704B4F1040C06D2FD
:101400000EEB840CBDE810404CF0010C6047DFE8A7
:101410000CF0070802024FF00040A0F5800010BD5C
:101420000846420018BFD2F1807288BF00F0004029
:1014300010BDFF2141EAD050C005704780F0004048
:1014400090EA010F7FF5DDAD81F0004100F007B8B3
:1014500090EA010F48BF81F000413FF5D2AD421A3A
:1014600004D882F00042A0EB020011444FEAD052AF
:101470004FF07F4C1CEA410FA2EBD15318BF9CEAFE
:10148000026F4AD04FF0004C4CEA00204CEA012198
:1014900021FA03FCB0EB0C0C0FD412F0FE0F36D087
:1014A0005FEA4C001DD5001240EBC25038BF7047B8
:1014B0001CF03F0F18BF70470BE0A2F101025FEA7A
:1014C0001C2040EBC25038BF70471CF07F0F18BF84
:1014D0007047C3F12003994014BF401E20F0010063
:1014E000704780084FEA122308BF7047B0FA80FCAB
:1014F000A2EB0C02CCF1280C60FA0CF093EA122F4C
:1015000004BF00EBC25070474FEAC3707047130A24
:101510005FEADC1008BF7047F6E79CEA026F04D070
:1015200010EA5C0F08BF0020704710B5FFF73BFFC3
:1015300040DFF63E81F00040704700005C15000877
:1015400000000020580000006C010008B4150008DD
:10155000580000207006000088010008000000000C
:10156000000000000000000000000000000000007B
:10157000000000000000000000000000000000006B
:10158000000000000000000001000000000000005A
:1015900001420100020003000400050006000700EC
:1015A000080009000A000B000C000D000E000F00DF
:0415B0001000000027
:0400000508000131BD
:00000001FF
