:020000040800F2
:10000000C80A002001010008C9340008712F000847
:10001000C5340008790B0008C94000080000000042
:100020000000000000000000000000008136000811
:10003000E90B00080000000057360008833600086E
:100040001B0100081B0100081B0100081B01000820
:100050001B0100081B0100081B0100081B01000810
:100060001B0100081B0100081B0100087D0B000894
:100070008D0B00089D0B00081B0100081B010008E8
:10008000AD0B00081B0100081B0100081B01000844
:100090001B0100081B0100081B0100081B010008D0
:1000A0001B010008F93700081B0100081B010008AC
:1000B0002538000835380008513800081B010008B1
:1000C0001B0100081B0100081B0100081B010008A0
:1000D0001B0100081B0100087D3E00087D40000850
:1000E0001B0100081B0100081B010008DFF80CD0F1
:1000F00000F05AFC004800471D510008C80A0020C3
:100100000648804706480047FEE7FEE7FEE7FEE7B1
:10011000FEE7FEE7FEE7FEE7FEE7FEE71137000831
:10012000ED000008202A04DB203A21FA02F0002129
:10013000704721FA02F3D040C2F1200291400843F7
:100140001946704740EA01039B0703D009E008C93C
:10015000121F08C0042AFAD203E011F8013B00F88C
:10016000013B521EF9D27047D2B201E000F8012BD8
:10017000491EFBD270470022F6E710B513460A4627
:1001800004461946FFF7F0FF204610BD30B504467F
:100190000020034600E05B1C934203D2E05CCD5C90
:1001A000401BF8D030BDF0B480EA0102D40F420009
:1001B000B2EB410F02D20246084611464A0042D035
:1001C000C30DDDB2C1F3C752AD1A202D35DAC1F32C
:1001D000160141F4000204B15242C5F1200602FAB0
:1001E00006F12A411044B3EBD05F23D0C4B1012DF6
:1001F000A0EBC35009DCF0BC4FF0004202EAC3524E
:10020000DBB200F5000000F02CBB400000F1807074
:1002100000EBC350A0F1807040EAD170490009E0C2
:10022000490841EAC071A0EBC35000F50000400846
:1002300000EBC350F0BC00F00BBB6142012202EBAB
:100240004101001BF6E7F0BC704781F00041AAE7CE
:1002500080F00040A7E780EA010210B502F00043F9
:10026000400022D04A001FD0010E01EB1261C0F302
:100270005600C2F3560240F4000042F40002A0FB14
:10028000022000047F39140400D0401C50EA1240C0
:1002900001D44000491EC2B20C0604EBD010401C31
:1002A0004008802A02D003E0002010BD20F00100A9
:1002B000002900DA0020184310BD30B480EA0102A2
:1002C00002F0004530F0004221F0004013D090B120
:1002D000C30DD40DC2F31601C0F31600E41A41F4A5
:1002E000000140F400027D34914201D3641C00E01F
:1002F0004900002C02DA30BC002070474FF40000A7
:100300000023914201D3891A034340084FEA410177
:10031000F7D151B1914202D14FF0004105E002D234
:100320004FF0010101E06FF0010103EBC4502844DC
:1003300030BC00F08DBA2DE9FE4F804681EA030003
:10034000C00F0C46009021F0004123F00045B8EBAF
:100350000200A94105D24046214690461C460B4664
:10036000024623F00040104347D0270DC7F30A0090
:10037000C3F30A510290401A019040286BDAC3F38C
:10038000130040F4801B0098924620B10023D2EB6A
:10039000030A63EB0B0B01985946C0F1400250462B
:1003A00000F035FA06460D4650465946019A00F0CF
:1003B0003DFA10EB08006141002487EA115284EAFB
:1003C000E7731A4340D0009A62B3019A012A4FEAB8
:1003D000075215DC001B61EB02014FF0004202EAFC
:1003E0000752CDE90042001C41F5801132462B46F0
:1003F00000F074FA03B0BDE8F08F40462146F9E7FB
:10040000001B61EB0201001C41F5801300185B41E9
:100410002018A2F5001747EB030140EAD570B61982
:100420006D4111E06D084FEA360645EAC0754FEAA6
:100430000752001B61EB0201001C41F580114908C5
:100440004FEA30000019514132462B4603B0BDE857
:10045000F04F00F034BA0098012240000023D0EBA6
:10046000020263EBE073009821464FEAE074B8EBB8
:10047000000061EB0401E9E783F000435BE781F0F2
:10048000004158E72DE9FE4F81EA030404F00044DF
:1004900021F0004100944FF0000B23F0004350EA9C
:1004A00001045ED052EA03045BD0C3F30A54C1F3E3
:1004B0000A552C44A4F2F3340194A0FB0254C1F376
:1004C000130141F48011C3F3130343F4801301FBC0
:1004D000024400FB034E840A970A44EA815447EA27
:1004E0008357A4FB076802958D0A05FB07854FEA31
:1004F000932C04FB0C542705029D4FEA065847EA4B
:100500001637B5EB08056EEB070C870E920E47EA1F
:10051000811742EA8312A7FB0201B6EB0B0164EBE1
:1005200000042B0D43EA0C335E1844EB1C50DA46F2
:100530005146E7FB0201C5F313044FEA0B3343EACC
:1005400014534FEA0432019C43EA0603A4F10C045D
:100550000294009CCDE900B400F0C0F903B0BDE8FE
:10056000F08F00200146F9E72DE9F04D81EA030400
:1005700004F0004B21F0004514464FF0000A23F030
:10058000004150EA050220D054EA01021DD0C5F313
:100590000A570246C5F31303C1F31300C1F30A5609
:1005A00040F4801543F48013A7EB0608101BD646D1
:1005B00008F2FD3873EB050002D308F1010801E0F1
:1005C00092185B41B8F1000F03DA00200146BDE844
:1005D000F08D00204FF48011064684460EE0171B74
:1005E00073EB050705D3121B63EB050306434CEAC7
:1005F000010C49084FEA300092185B4150EA0107AC
:10060000EDD152EA030012D082EA040083EA050128
:10061000084305D0101BAB4106D20122002306E09F
:1006200000224FF0004302E06FF0010253101AEB7A
:1006300006004CEB085110EB0A0041EB0B01BDE842
:10064000F04D00F03CB996230022114600F009B9A4
:100650000EB5C10F80EAE0700844CA07002140F2DD
:1006600033438DE80E000A460B4600F037F903B01D
:1006700000BD20F00040C10DC0F3160040F40000A2
:100680007F2901DA00207047962903DCC1F1960129
:10069000C840704796398840704700F0004230F0FB
:1006A00000400AD0C10D01F56071C0F3160042EAA6
:1006B0000151C208400711437047002001467047AE
:1006C00030B5041E71F1000404DB4FF000444042D9
:1006D00064EB0101141E73F1000405DB1C464FF0AE
:1006E0000043524263EB04038B4208BF824230BD99
:1006F00030B5041E71F1000404DB4FF000444042A9
:1007000064EB0101141E73F1000405DB1C464FF07D
:100710000043524263EB0403994208BF904230BD4C
:1007200001F0004330B421F0004150EA010206D04C
:100730000A0DA2F56072C1F31301002A02DC30BC7D
:1007400000207047440F44EAC104C100E01830BCE7
:1007500000EBC25000F07CB8002801DBC0F1004083
:10076000002901DBC1F1004181427047002801DB13
:10077000C0F10040002901DBC1F10041884270470F
:1007800030B50B46014600202022012409E021FA61
:1007900002F59D4205D303FA02F5491B04FA02F55E
:1007A0002844151EA2F10102F1DC30BD2DE9F05FF5
:1007B0000546002092469B468846064681464024D0
:1007C0001BE02846414647462246FFF7ABFC53460E
:1007D0005A46C01A914110D311461846224600F0DD
:1007E00016F82D1A67EB01084F462246012000211A
:1007F00000F00DF817EB00094E41201EA4F1010492
:10080000DFDC484631462A464346BDE8F09F202AB1
:1008100004DB203A00FA02F1002070479140C2F157
:10082000200320FA03F3194390407047202A06DB87
:10083000CB17203A41FA02F043EAE07306E041FAAE
:1008400002F3D040C2F1200291400843194670479C
:100850000029A8BF7047401C490008BF20F00100D4
:10086000704710B4B0FA80FC00FA0CF050EA0104B2
:1008700004BF10BC704749B1CCF1200421FA04F444
:1008800011FA0CF118BF012121430843A3EB0C011D
:10089000CB1D4FEA00614FEA102042BF002010BC80
:1008A000704700EBC35010440029A4BF10BC704730
:1008B000401C490008BF20F0010010BC704710B573
:1008C000141E73F1000408DA401C41F10001921873
:1008D0005B411A4301D120F0010010BD2DE9F04D1C
:1008E00092469B4611B1B1FA81F202E0B0FA80F271
:1008F00020329046FFF78BFF04460F4640EA0A007D
:1009000041EA0B0153465A46084313D0114653EAB5
:10091000010019D0C8F140025046FFF703FC05461C
:100920000E46504659464246FFF771FF084305D030
:10093000012004E020463946BDE8F08D0020054343
:1009400046EAE0762C4337430A986305E40AA0EBB5
:1009500008000022FD0A44EA47540A3002D500206C
:100960000146E9E7010510196941DDE9084500196B
:100970006941BDE8F04DA2E7C1F30A52C1F313018A
:1009800040F2FF3341F480119A4202DA002001461E
:10099000704740F233439A42A2F2334202DC5242A1
:1009A000FFF7C0BBFFF733BF064C074D06E0E0681A
:1009B00040F0010394E8070098471034AC42F6D3A6
:1009C000FFF798FB305500085055000870B50446F5
:1009D00000252068806800F00100F0B12068806880
:1009E00020F001002168886000F0F2FE05460EE06C
:1009F00000F0EEFE401B022809D9A06A40F010006A
:100A0000A062E06A40F00100E062012070BD206851
:100A1000806800F001000028EAD10020F6E770B5F8
:100A200005466C6AA06A00F05000E0B9A06A40F484
:100A30000070A0622068806800F46020B0F5602F2C
:100A40000DD1207B58B9A06A20F48070A062A06A02
:100A500000F4805018B9A06A40F00100A06220465E
:100A600000F08EF903E0206A016B2846884770BDCC
:100A700070B505466C6AA06A40F04000A062E06A6A
:100A800040F00400E062204600F07CF970BD70B5D3
:100A90000446656A284600F074F970BD38B504460E
:100AA0000025002000902068806800F0010080BBD5
:100AB0002068806840F0010021688860164800685E
:100AC0001649B0FBF1F0009002E00098401E009043
:100AD00000980028F9D100F07BFE054613E000F0F5
:100AE00077FE401B02280ED9A06A40F01000A062D9
:100AF000E06A40F00100E06200BF002084F82400BA
:100B000000BF012038BD2068806800F00100002887
:100B1000E5D00020F6E700008400002040420F00EE
:100B20002DE9F05F4FF00009002005E041000E4A7A
:100B300052F821108944401C3228F7DB4846FFF761
:100B400082FD83460949FFF7B8FB8246FFF7A5FD02
:100B50000746074A074BFFF795FC0546FFF7E0FD00
:100B600004462046BDE8F09F3405002000004842BE
:100B7000881954FA8D9F833F00BFFEE710B50248E5
:100B800000F040FB10BD00004C02002010B50248F0
:100B900000F038FB10BD0000F004002010B5024842
:100BA00000F030FB10BD0000AC04002010B502487E
:100BB00000F028FB10BD00006804002030B590F85C
:100BC00040500124AC40C56B6C60046863604468AD
:100BD000102C04D10468A2600468E16003E004689A
:100BE000A1600468E26030BD704700000120084940
:100BF000086008A003F06AFA002008490860091D8F
:100C00000860091D0860091D086000BFFEE70000BC
:100C1000848121425B4552525D0D0A00342C014013
:100C200038B5024600230020009000BF92F824004F
:100C3000012801D1022038BD012082F8240000BF24
:100C40004868072812D21068406B0C79641E04EBC8
:100C500084051F24AC40A0430D796D1E05EB85056E
:100C60000C68AC4020431468606327E048680D2896
:100C700012D21068006B0C79E41F04EB84051F246A
:100C8000AC40A0430D79ED1F05EB85050C68AC4029
:100C900020431468206311E01068C06A0C790D3C91
:100CA00004EB84051F24AC40A0430D790D3D05EBFA
:100CB00085050C68AC4020431468E06208680A2887
:100CC00012D31068C0680C780A3C04EB4405072472
:100CD000AC40A0430D780A3D05EB45058C68AC405F
:100CE00020431468E0600FE0106800690C7804EBA2
:100CF00044050724AC40A0430D7805EB45058C68FE
:100D0000AC402043146820610868102802D00868AD
:100D1000112827D1174C1068A0421ED11068806896
:100D200000F40000F0B91068806840F40000146816
:100D3000A0600868102815D10F4800680F4CB0FB60
:100D4000F4F000EB80004000009002E00098401EAC
:100D5000009000980028F9D104E0906A40F020004B
:100D60009062012300BF002082F8240000BF1846D3
:100D700061E70000002401408400002040420F0091
:100D800070477047704700002DE9F0410446002786
:100D900000250026A84614B90120BDE8F081A0680E
:100DA00010B1207D00B100BFA06A30B90020E06220
:100DB00084F82400204600F089F82046FFF706FE5C
:100DC0000746A06A00F01000002873D1002F71D1EF
:100DD000A06A20F4885040F00200A062E1696068D7
:100DE0000843217B40EA41000643A068B0F5807FBC
:100DF00002D0A068012802D14FF4807000E00020EA
:100E00000543207D012811D1207B38B9A069401EFF
:100E10004FF4006141EA4030054307E0A06A40F02A
:100E20002000A062E06A40F00100E06220684068B3
:100E300020F469402843216848602068806821497F
:100E40000840304321688860A068B0F5807F02D0F8
:100E5000A068012802D14FF4807000E00020B0F5B6
:100E6000807F03D1208A401E4FEA00582068C06A64
:100E700020F4700040EA08002168C8622068806899
:100E800011490840B04208D10020E062A06A20F079
:100E9000020040F00100A06211E0A06A20F0020010
:100EA00040F01000A062E06A40F00100E06201271B
:100EB00005E0FFE7A06A40F01000A0620127384675
:100EC0006BE70000FDF7E1FFFE0E1FFF10B586B0D7
:100ED0000446002002900390049005902249206867
:100EE00088423ED100BF2148806940F400701F490C
:100EF00088610846806900F40070019000BF00BF5F
:100F000000BF0846806940F0040088610846806997
:100F100000F00400019000BF00BF102002900320E9
:100F2000039002A9124800F0BDFA12481249086065
:100F3000002048600021104881608021C160890044
:100F4000016189004161202181610021C16100F0BE
:100F500027FA08B1FFF74AFE00BF07482062446243
:100F600000BF06B010BD0000002401400010024088
:100F700000080140080002404C0200202DE9F04129
:100F800004460D461646002757492068884203D07C
:100F900056492068884205D15348001D006800F476
:100FA000702000E0002000287ED100BF94F82400CB
:100FB000012802D10220BDE8F081012084F824003C
:100FC00000BF2046FFF76AFD0746002F6DD1A06ADB
:100FD00040F60161884340F48070A0624349206874
:100FE000884209D14048001D006800F4702008B90B
:100FF000012002E0002000E0012078B1A06A20F486
:101000008010A0622068406800F4806000B3A06A8D
:1010100020F4005040F48050A06219E0A06A40F42F
:101020008010A06230492068884203D02F49206890
:10103000884205D12C48001D006800F4806000E063
:10104000002028B1A06A20F4005040F48050A06233
:10105000A06A00F4805020B1E06A20F00600E0624F
:1010600001E00020E06200BF002084F8240000BFFF
:101070001F48216A88621F48216AC8621E48216A87
:1010800008636FF00200216808602068806840F4FF
:10109000807021688860226802F14C0133462A463C
:1010A000206A00F0B1F901E01AE014E020688068DD
:1010B00000F46020B0F5602F06D12068806840F40D
:1010C000A000216888600CE02068806840F48010EF
:1010D0002168886005E000BF002084F8240000E05B
:1010E0000127384667E7000000240140002801403E
:1010F0001F0A00088F0A0008710A00080146002232
:1011000091F82100022808D00420886300BF002045
:1011100081F8200000BF012070470868006820F0B7
:101120000E000B6818600868006820F001000B686A
:10113000186091F8403001209840CB6B5860012036
:1011400081F8210000BF002081F8200000BF104678
:10115000E2E7000070B50446002594F8210002285B
:1011600003D00420A063012548E02068006820F037
:101170000E00216808602068006820F001002168E6
:1011800008601F492068884201D1012026E01C49DF
:1011900014312068884201D110201FE018492831FD
:1011A0002068884201D1801518E015493C3120683B
:1011B000884201D1801411E01149503120688842E1
:1011C00002D14FF4803009E00D4964312068884233
:1011D00002D14FF4801001E04FF0807008490839C7
:1011E0004860012084F8210000BF002084F820001E
:1011F00000BF606B10B12046616B8847284670BD08
:101200000800024070B50446E06B05682068066877
:1012100094F84010042088402840002846D006F06A
:101220000400002842D02068006800F0200028B99F
:101230002068006820F00400216808605749206891
:10124000884201D1042027E05449143120688842A3
:1012500001D1402020E0514928312068884201D145
:10126000001519E04D493C312068884202D14FF405
:10127000804011E0494950312068884202D14FF442
:10128000802009E0454964312068884202D14FF44A
:10129000800001E04FF08060404908394860E06A12
:1012A00000287AD02046E16A884776E094F840101A
:1012B000022088402840A0B306F0020088B32068CE
:1012C000006800F0200040B92068006820F00A00A3
:1012D00021680860012084F8210030492068884294
:1012E00001D1022028E02D4914312068884201D123
:1012F000202021E0294928312068884201D1401569
:101300001AE026493C312068884202D14FF400504F
:1013100012E0224950312068884203D14FF4003056
:101320000AE017E01D4964312068884202D14FF479
:10133000001001E04FF0007018490839486000BF04
:10134000002084F8200000BFA06A30B32046A16AC4
:10135000884722E094F84010082088402840E0B1F7
:1013600006F00800C8B12068006820F00E0021686F
:10137000086094F8401001208840E16B486001202B
:10138000A06384F8210000BF002084F8200000BF83
:10139000206B10B12046216B884770BD08000240C9
:1013A0000146002209B901207047164B0868C01A8F
:1013B0001423B0FBF3F08000086412480838C863B7
:1013C000022081F821000868026843F6F070824329
:1013D000D1E901031843CB6818430B6918434B69E3
:1013E00018438B691843CB691843024308680260AD
:1013F00000208863012081F82100002081F820006E
:1014000000BFD1E7080002402DE9F04104460D4637
:1014100016461F464FF0000800BF94F82000012830
:1014200002D10220BDE8F081012084F8200000BF35
:1014300094F8210001282CD1022084F821000020FA
:10144000A0632068006820F00100216808603B4626
:10145000324629462046FFF7B1FBE06A30B12068EA
:10146000006840F00E00216808600BE0206800680A
:1014700020F00400216808602068006840F00A003D
:10148000216808602068006840F001002168086059
:1014900006E000BF002084F8200000BF4FF00208E3
:1014A0004046BFE72DE9F8470346002294466EE127
:1014B0004FF0010808FA02F4D1F8008008EA0400AD
:1014C000A0427DD1DFF8DCA2D1F80480A8EB0A09A4
:1014D000D0453AD014DCB8F1030F50D009DCB8F194
:1014E000000F31D0B8F1010F1CD0B8F1020F49D173
:1014F00020E0B8F1110F18D0B8F1120F42D11EE060
:10150000B9F5881F25D006DCB9F5803F20D0B9F5A4
:10151000801F37D11AE0B9F5001F18D0B9F5041FA4
:1015200030D117E0D1F80CC02DE0D1F80C8008F1D3
:10153000040C28E0D1F80C8008F1080C23E0D1F865
:101540000C8008F10C0C1EE000BF00BF00BF00BF04
:1015500000BF00BFD1F80880B8F1000F02D14FF0F2
:10156000040C0BE0D1F80880B8F1010F03D14FF063
:10157000080C1C6102E04FF0080C5C6103E04FF0C6
:10158000000C00E000BF00BFFF2801D8984601E032
:1015900003F104084646FF2802D84FEA820803E018
:1015A000A2F108084FEA88084746D6F800804FF0B5
:1015B0000F0909FA07F928EA09080CFA07F900E007
:1015C00088E048EA0908C6F80080D1F8048008F0ED
:1015D0008058B8F1805F7DD100BFDFF8CC81D8F8AA
:1015E000188048F00108DFF8C091C9F81880C84693
:1015F000D8F8188008F00108CDF8008000BF00BFBF
:101600004FEAB9384FEA920958F829504FEA8278E0
:101610004FEA18794FF00F0808FA09F825EA08058B
:10162000DFF88881434502D14FF0000816E0DFF86B
:101630008081434502D14FF001080FE0DFF874814B
:10164000434502D14FF0020808E0DFF86C814345C2
:1016500002D14FF0030801E04FF004084FEA82790D
:101660004FEA197908FA09F848EA0505DFF84C81CC
:101670004FEA920948F82950D1F8048008F48038DC
:10168000B8F5803F0AD1DFF83881D8F8008048EA01
:101690000008DFF82C91C9F8008009E0DFF820810C
:1016A000D8F8008028EA0008DFF81491C9F8008013
:1016B000D1F8048008F40038B8F5003F10D1DFF805
:1016C000008108F10408D8F8008048EA0008DFF833
:1016D000F09000E05AE009F10409C9F800800DE03B
:1016E000DFF8DC8008F10408D8F8008028EA000858
:1016F000DFF8CC9009F10409C9F80080D1F8048022
:1017000008F48018B8F5801F0ED1DFF8B48008F116
:101710000808D8F8008048EA0008DFF8A49009F12A
:101720000809C9F800800DE0DFF8948008F1080886
:10173000D8F8008028EA0008DFF8849009F1080949
:10174000C9F80080D1F8048008F40018B8F5001F2B
:101750000ED1DFF86C8008F10C08D8F8008048EA58
:101760000008DFF85C9009F10C09C9F800800DE071
:10177000DFF84C8008F10C08D8F8008028EA00084F
:10178000DFF83C9009F10C09C9F80080521CD1F82F
:10179000008028FA02F8B8F1000F7FF489AEBDE8A6
:1017A000F8870000000011100010024000080140FE
:1017B000000C0140001001400014014008000140ED
:1017C000000401400AB1016101E00B0403617047AC
:1017D0000148006870470000780000200348006856
:1017E00003490978084401490860704778000020DF
:1017F0008000002010B50848006840F0100006493D
:101800000860032000F0A8F8002000F007F800F0BE
:101810002BF8002010BD00000020024070B50446E7
:101820000E4800784FF47A71B1FBF0F00C4909686A
:10183000B1FBF0F5284600F02BFD08B1012070BD8A
:10184000102C07D200222146501E00F047F8054810
:10185000046001E00120F2E70020F0E780000020B2
:10186000840000207C00002008B500BF114880697A
:1018700040F001000F4988610846806900F00100CE
:10188000009000BF00BF00BF0846C06940F0805014
:10189000C8610846C06900F08050009000BF00BFDA
:1018A00000BF0549486820F0E06040F000704860E3
:1018B00000BF08BD0010024000000140014608467C
:1018C000002809DB00F01F0301229A4043099B0016
:1018D00003F1E023C3F8002100BF70472DE9F05F5A
:1018E00080460D461646002702F000FC07463946A2
:1018F0002A46334601F00700C0F1070ABAF1040F87
:1019000002D94FF0040A01E0C0F1070AD14600F104
:10191000040ABAF1070F02D24FF0000A01E0A0F169
:10192000030AD4464FF0010A0AFA09FAAAF1010A99
:101930000AEA020A0AFA0CFA4FF0010B0BFA0CFB46
:10194000ABF1010B0BEA030B4AEA0B0421464046BC
:1019500002F0D4FBBDE8F09F00BF00F00702064B89
:1019600019684FF6FF031940044B0B4343EA022169
:10197000014B196000BF70470CED00E00000FA0554
:10198000F8B5044600260025207800F00100002864
:101990006BD000274348C06900F0805070B900BF89
:1019A0004048C06940F080503E49C8610846C0695F
:1019B00000F08050009000BF00BF01273A48006847
:1019C00000F48070B0B93848006840F4807036493F
:1019D0000860FFF7FDFE064606E0FFF7F9FE801BF4
:1019E000642801D90320F8BD2F48006800F48070F6
:1019F0000028F2D02B48006A00F440752DB3A0886F
:101A000000F44070A84220D02648006A20F44075B7
:101A1000012026490860002008602248056205F080
:101A2000010090B1FFF7D4FE064608E0FFF7D0FEB4
:101A3000801B41F28831884201D90320D3E719483D
:101A4000006A00F002000028F0D01648006A20F476
:101A500040706168084313490862012F04D10846A9
:101A6000C06920F08050C86100BF207800F00200FB
:101A7000022807D10B48406820F44040A168084381
:101A800008494860207800F01000102807D1054868
:101A9000406820F48000E168084302494860002063
:101AA000A1E70000001002400070004040044242E4
:101AB00070B504460D460CB9012070BD5A48006847
:101AC00000F00700A8420ED25748006820F0070037
:101AD0002843554908600846006800F00700A842FE
:101AE00001D00120E9E7207800F0020002281DD192
:101AF000207800F00400042805D14C48406840F4E8
:101B0000E0604A494860207800F00800082805D1C4
:101B10004648406840F46050444948604348406843
:101B200020F0F000A168084340494860207800F0A8
:101B3000010078B36068012806D13C48006800F4D1
:101B4000003090B90120B8E76068022806D1374814
:101B5000006800F0007040B90120AEE7334800682B
:101B600000F0020008B90120A7E73048406820F0E3
:101B70000300616808432D494860FFF729FE0646C7
:101B800009E0FFF725FE801B41F28831884202D927
:101B9000032092E707E02548406800F00C006168E8
:101BA000B0EB810FEDD12048006800F00700A8429B
:101BB0000ED91D48006820F0070028431A49086024
:101BC0000846006800F00700A84201D0012074E731
:101BD000207800F00400042807D11448406820F45D
:101BE000E060E168084311494860207800F008008F
:101BF000082808D10D48406820F46050216940EA67
:101C0000C1000A49486000F03FF808494968C1F33B
:101C10000311074A515CC84006490860064800683D
:101C2000FFF7FCFD002048E70020024000100240C2
:101C300018550008840000207C000020014800683E
:101C4000704700008400002000B5FFF7F7FF04494B
:101C50004968C1F30221034A515CC84000BD00003D
:101C6000001002402855000800B5FFF7E7FF0449BF
:101C70004968C1F3C221034A515CC84000BD00005D
:101C80000010024028550008F0B585B00FF26C0C2A
:101C90009CE8E01001A8A0E8E0101CA52D680095C4
:101CA00000210022002300240020194D696801F062
:101CB0000C05F5B1042D02D0082D19D101E015480D
:101CC00019E001ADC1F38346AC5D01F4803555B137
:101CD0000F4D6D68C5F340451DF805200D4D65435A
:101CE000B5FBF2F302E00C4D04FB05F3184602E0ED
:101CF00000BF084800BF00BF05B0F0BD02030405E7
:101D0000060708090A0B0C0D0E0F10100102000047
:101D10000010024000127A0000093D00F8B50446A8
:101D20000CB90120F8BD207800F00100002878D01F
:101D3000F848406800F00C0004280CD0F5484068D2
:101D400000F00C00082811D1F248406800F48030FF
:101D5000B0F5803F0AD1EF48006800F40030002859
:101D60005FD0606800285CD10120DBE700BF6068BD
:101D7000B0F5803F06D1E748006840F48030E5497F
:101D8000086028E0606858B9E248006820F48030B4
:101D9000E04908600846006820F4802008601AE0E6
:101DA0006068B0F5A02F0BD1DA48006840F48020BD
:101DB000D84908600846006840F4803008600AE0AE
:101DC000D448006820F48030D24908600846006892
:101DD00020F48020086000BF606888B1FFF7F8FC3D
:101DE000054606E0FFF7F4FC401B642801D90320F8
:101DF00098E7C848006800F400300028F2D010E0EE
:101E0000FFF7E6FC054606E0FFF7E2FC401B64280E
:101E100001D9032086E7BF48006800F4003000289D
:101E2000F2D1207800F00200022857D1B94840686A
:101E300000F00C0050B1B748406800F00C000828D2
:101E400018D1B448406800F4803098B9B1480068AF
:101E500000F0020020B12069012801D0012061E7D3
:101E6000AC48006820F0F800616940EAC100A94967
:101E7000086033E02069E8B10120A7490860FFF756
:101E8000A7FC054606E0FFF7A3FC401B022801D98A
:101E9000032047E79F48006800F002000028F2D0C6
:101EA0009C48006820F0F800616940EAC100994947
:101EB000086013E0002098490860FFF789FC054698
:101EC00006E0FFF785FC401B022801D9032029E723
:101ED0009048006800F002000028F2D1207800F05D
:101EE000080008282DD1A069B8B101208B490860ED
:101EF000FFF76EFC054606E0FFF76AFC401B022870
:101F000001D903200EE78348406A00F00200002850
:101F1000F2D0012001F0A0FB13E000207F4908600F
:101F2000FFF756FC054606E0FFF752FC401B02286F
:101F300001D90320F6E67748406A00F00200002845
:101F4000F2D1207800F00400042873D100277148F2
:101F5000C06900F0805070B900BF6E48C06940F0A1
:101F600080506C49C8610846C06900F080500090FC
:101F700000BF00BF01276A48006800F48070B0B954
:101F80006748006840F4807065490860FFF720FCEE
:101F9000054606E0FFF71CFC401B642801D903201E
:101FA000C0E65F48006800F480700028F2D000BFEF
:101FB000E068012806D15748006A40F00100554901
:101FC000086227E0E06858B95248006A20F0010032
:101FD000504908620846006A20F00400086219E0CF
:101FE000E06805280BD14B48006A40F004004949DD
:101FF00008620846006A40F0010008620AE04548AD
:10200000006A20F00100434908620846006A20F097
:102010000400086200BFE068A0B1FFF7D9FB0546E5
:1020200009E0FFF7D5FB401B41F28831884202D915
:10203000032077E622E03748006A00F0020000281B
:10204000EFD012E0FFF7C4FB054608E0FFF7C0FB46
:10205000401B41F28831884201D9032062E62D48B5
:10206000006A00F002000028F0D1012F05D12948B4
:10207000C06920F080502749C86100BFE069C8B33B
:102080002448406800F00C00082860D0E06902286D
:1020900048D1002020490866FFF79AFB054606E074
:1020A000FFF796FB401B022801D903203AE61948A6
:1020B000006800F000700028F2D1206AB0F5803F7F
:1020C00007D11448406820F40030A1680843114942
:1020D0004860D4E9080108430E49496821F47411A5
:1020E00008430C49486001200B490866FFF770FB64
:1020F000054607E03DE0FFF76BFB401B022801D9D6
:1021000003200FE60348006800F000700028F2D0BA
:102110002FE00000001002400000424280044242D2
:1021200000700040002014490866FFF751FB054687
:1021300006E0FFF74DFB401B022801D90320F1E523
:102140000E48006800F000700028F2D111E0E0694C
:10215000012800D1E6E50948466806F48031206A86
:10216000814204D106F47011606A814201D00120DD
:10217000D8E50020D6E500000000424200100240F1
:1021800010B504460CB9012010BD606A00B900BF4B
:102190000021A16294F8510028B9002084F8500071
:1021A000204600F031F8022084F8510020680068D1
:1021B00020F0400021680860D4E901010843E1688B
:1021C00008432169084361690843218B01F40071C8
:1021D0000843E1690843216A0843A16A084321686A
:1021E00008600421A06901EA104021684860206865
:1021F000C06920F400602168C8610020606501208A
:1022000084F851000020BFE710B586B004460020D6
:1022100002900390049005901A49206888422FD1BB
:1022200000BF1948C06940F480401749C86108469A
:10223000C06900F48040019000BF00BF00BF0846A5
:10224000806940F0080088610846806900F0080055
:10225000019000BF00BF4FF4204002900220039085
:102260000320059002A90948FFF71CF94FF48040AC
:10227000029000200390049002A90448FFF712F98D
:1022800006B010BD0038004000100240000C0140B4
:1022900070B504462546681EB0F1807F01D3012049
:1022A0000FE0681E4FF0E02148610F214FF0FF3032
:1022B00001F024FF00204FF0E02188610720086131
:1022C000002070BD7047704710B50346002200BF64
:1022D00093F83C00012801D1022010BD012083F8B1
:1022E0003C0000BF22F0FF00CC6840EA040222F468
:1022F00040708C6840EA040222F480604C6840EA36
:10230000040222F400600C6840EA040222F48050C7
:102310000C6940EA040222F400504C6940EA0402CD
:1023200022F48040CC6940EA04021868426400BF8D
:10233000002083F83C0000BF00BFCEE710B5024686
:1023400000BF92F83C00012801D1022010BD0120FD
:1023500082F83C0000BF022082F83D00106843680C
:102360001068846823F070030868034324F0800435
:10237000486804431068436010688460012082F854
:102380003D0000BF002082F83C0000BF00BFDDE739
:1023900001460868C06840F001000B68D860086812
:1023A000806800F00702062A05D00868006840F03F
:1023B00001000B6818600020704701460868C0687B
:1023C00020F001000A68D06000BF0868006A41F28E
:1023D0001112104050B90868006A9210104028B9D4
:1023E0000868006820F001000A68106000BF002043
:1023F00070472DE9F04104460D4614B90120BDE8AF
:10240000F08194F83D0028B9002084F83C00204673
:1024100000F044F8022084F83D002068806844F20F
:102420000701884321688860211D206801F01EFA99
:102430002068D0F80880206886692068076A2868C4
:1024400040EA080840F203308643A969A86840EAD8
:102450000120064340F60C4086434FF2F0008643CD
:10246000E969E86840EA0120064328690001296A11
:1024700040EA0130064327F022076969686840EAAC
:10248000011007432068C0F8088020688661206832
:102490000762012084F83D000020B0E710B586B047
:1024A000044600200290039004900590364920686D
:1024B000884237D100BF3548C06940F00200334937
:1024C000C8610846C06900F00200019000BF00BF6B
:1024D00000BF0846806940F00800886108468069AE
:1024E00000F00800019000BF00BF302002900020E3
:1024F0000390049002A92648FEF7D4FF00BF2549A7
:10250000486820F4406040F0E06040F400604860BB
:1025100000BF002211461D20FFF7E0F91D20FFF744
:10252000CDF92FE01C49206888422BD100BF174805
:10253000C06940F004001549C8610846C06900F050
:102540000400019000BF00BF00BF0846806940F052
:10255000080088610846806900F00800019000BF0B
:1025600000BFC020029000200390049002A90848F8
:10257000FEF798FF002202211E20FFF7AFF91E2070
:10258000FFF79CF906B010BD0004004000100240A7
:10259000000C0140000001400008004030B5044636
:1025A0000D4615B1042D0CD105E001220021206853
:1025B00001F096F910E001220421206801F090F961
:1025C0000AE001220021206801F08AF90122042199
:1025D000206801F085F900BF00BF2068006840F066
:1025E000010021680860002030BD704710B5044626
:1025F00020680069C0F34000D8B12068C068C0F30B
:102600004000B0B16FF0020021680861012020771E
:102610002068806900F0030018B12046FFF7E5FF4D
:1026200005E0204600F0F6F8204600F0CFF9002043
:10263000207720680069C0F38000D8B12068C068A6
:10264000C0F38000B0B16FF004002168086102207F
:1026500020772068806900F4407018B12046FFF7A9
:10266000C4FF05E0204600F0D5F8204600F0AEF9A2
:102670000020207720680069C0F3C000D8B120682E
:10268000C068C0F3C000B0B16FF0080021680861F5
:10269000042020772068C06900F0030018B12046AC
:1026A000FFF7A3FF05E0204600F0B4F8204600F055
:1026B0008DF90020207720680069C0F30010D8B1A0
:1026C0002068C068C0F30010B0B16FF0100021683E
:1026D0000861082020772068C06900F4407018B1B4
:1026E0002046FFF782FF05E0204600F093F82046E1
:1026F00000F06CF9002020772068006900F00100EC
:1027000058B12068C06800F0010030B16FF00100DE
:1027100021680861204600F081F920680069C0F353
:10272000C01058B12068C068C0F3C01030B16FF05D
:102730008000216808612046FFF7C4FD2068006919
:10274000C0F3801058B12068C068C0F3801030B169
:102750006FF0400021680861204600F060F92068B1
:102760000069C0F3401058B12068C068C0F3401041
:1027700030B16FF02000216808612046FFF7A3FD0B
:1027800010BD000010B586B00446002002900390F2
:10279000049005901C492068884218D100BF1B484E
:1027A000806940F00400194988610846806900F09A
:1027B0000400019000BF00BF4FF47060029002203F
:1027C0000390059002A91248FEF76CFE1AE02068FB
:1027D000B0F1804F16D100BF0C48806940F0040072
:1027E0000A4988610846806900F00400019000BF32
:1027F00000BF0320029002200390059002A9044824
:10280000FEF750FE06B010BD002C01400010024043
:1028100000080140704770B504460D46164600BFDB
:1028200094F83C00012801D1022070BD012084F8F9
:102830003C0000BF022084F83D0036B1042E1BD0BE
:10284000082E31D00C2E5ED145E02946206801F0DB
:1028500059F82068806940F0080021688861206884
:10286000806920F0040021688861206880692969F6
:1028700008432168886147E02946206801F072F822
:102880002068806940F40060216888612068806960
:1028900020F480602168886120688069296940EAA5
:1028A0000120216888612FE02946206801F08EF818
:1028B0002068C06940F008002168C8612068C069CC
:1028C00020F004002168C8612068C06929690843B4
:1028D0002168C86118E02946206801F0ABF820683B
:1028E000C06940F400602168C8612068C06920F4B4
:1028F00080602168C8612068C069296940EA0120B8
:102900002168C86100E000BF00BF012084F83D00DD
:1029100000BF002084F83C0000BF00BF85E710B571
:1029200004460CB9012010BD94F83D0028B90020E0
:1029300084F83C00204600F00DF8022084F83D00A9
:10294000211D206800F092FF012084F83D00002046
:10295000E9E7000038B504461A492068884216D1D4
:1029600000BF1948806940F4006017498861084633
:10297000806900F40060009000BF00BF00220121C8
:102980001920FEF7ABFF1920FEF798FF19E0206829
:10299000B0F1804F15D100BF0B48C06940F0010075
:1029A0000949C8610846C06900F00100009000BFF5
:1029B00000BF002211461C20FEF790FF1C20FEF7EE
:1029C0007DFF38BD002C0140001002407047000020
:1029D00070B504460E4601223146206800F080FFA3
:1029E0000D492068884201D1012000E0002028B173
:1029F0002068406C40F4004021684864206880688A
:102A000000F00705062D05D02068006840F00100A1
:102A100021680860002070BD002C0140704770479D
:102A200070B50446002520684069C0F3C01594F8CD
:102A3000390021280ED16DB12068406920F0800056
:102A400021684861206B10B1206BFEF757FB2046D0
:102A500001F0B2F820684069C0F3801594F83A009C
:102A600022280ED16DB12068406920F04000216815
:102A70004861606B10B1606BFEF740FB204601F0CF
:102A80007BF8002070BD70472DE9F04704462068B0
:102A900005682068C668206847694FF00008C1468D
:102AA00005F00F08B8F1000F0AD105F0200038B189
:102AB00006F0200020B1204601F088F8BDE8F0873C
:102AC000B8F1000F6DD007F0010018B906F490704E
:102AD000002866D005F0010030B106F4807018B10E
:102AE000E06B40F00100E06305F0040030B107F056
:102AF000010018B1E06B40F00200E06305F0020055
:102B000030B107F0010018B1E06B40F00400E06361
:102B100005F0080030B107F0010018B1E06B40F09B
:102B20000800E063E06B68B305F0200028B106F010
:102B3000200010B1204601F049F820684069C0F338
:102B40008019E06B00F0080010B9B9F1000F22D035
:102B5000204601F011F82068406900F04000B0B153
:102B60002068406920F0400021684861606B50B1E6
:102B70001748616B4863606BFEF7ECFA10B1606B4D
:102B8000416B88470CE02046FFF77DFF08E02046B8
:102B9000FFF779FF04E02046FFF775FF0020E063B0
:102BA0008CE705F0800030B106F0800018B12046B7
:102BB00001F030F982E705F0400030B106F0400046
:102BC00018B1204600F0E8FF78E700BF76E7000084
:102BD0007D3A000810B504460CB9012010BDA0696B
:102BE00000B100E000BF94F8390028B9002084F853
:102BF0003800204600F028F8242084F839002068A6
:102C0000C06820F400502168C860204601F032F806
:102C10002068006920F490402168086120684069BC
:102C200020F02A00216848612068C06840F4005004
:102C30002168C8600020E063202084F8390084F80F
:102C40003A000020CAE7000010B586B00446002014
:102C500002900390049005906249206888424FD109
:102C600000BF6148C06940F400305F49C861084650
:102C7000C06900F40030019000BF00BF00BF0846EB
:102C8000806940F0040088610846806900F0040013
:102C9000019000BF00BF0420029002200390032097
:102CA000059002A95148FEF7FDFB08200290002084
:102CB0000390049002A94D48FEF7F4FB4C484D499F
:102CC00008600020486000214A4881608021C1607E
:102CD0000021016141618161C161FEF761FB08B1C1
:102CE000FDF784FF00BF43486063446200BF0022D9
:102CF00011462620FEF7F2FD2620FEF7DFFD6EE0EE
:102D00003D49206888426AD100BF3748C06940F415
:102D100080203549C8610846C06900F480200190D0
:102D200000BF00BF00BF0846806940F0080088610E
:102D30000846806900F00800019000BF00BF081538
:102D40000290022003900320059002A92B48FEF771
:102D5000A9FB4FF40060029000200390049002A9A8
:102D60002648FEF79FFB22483C3825490860002092
:102D700048600021224881608021C16000210161FA
:102D800041618161C161FEF70BFB08B1FDF72EFFC8
:102D900000BF1B486063446200BF154850381949A2
:102DA0000860102048600021164881608021C160C1
:102DB0000021016141618161C161FEF7F1FA08B151
:102DC000FDF714FF00BF0F482063446200BF0022DC
:102DD00011462720FEF782FD2720FEF76FFD06B083
:102DE00010BD0000004400400010024000080140F7
:102DF0006C0002406804002000480040000C0140C4
:102E0000AC040020F004002077B581B004461546DC
:102E100094F83A00202850D1029800B115B9012049
:102E200004B070BD00BF94F83800012801D1022021
:102E3000F6E7012084F8380000BF0298A062A5855B
:102E40000020E063222084F83A001D48616B88620C
:102E50001C48616BC8621C48616B08630020616B91
:102E6000486302AE32682368191D2B46606BFEF77B
:102E7000CBFA00BF00200090206800680090206816
:102E80004068009000BF00BF00BF002084F83800F9
:102E900000BF2068C06840F480702168C860206866
:102EA000406940F00100216848612068406940F0B5
:102EB0004000216848610020B2E70220B0E700002E
:102EC000E13A0008273B0008913A00087047704734
:102ED000F7B50446154694F8390020283DD10198ED
:102EE00000B10DB90120FEBD00BF94F838000128E3
:102EF00001D10220F7E7012084F8380000BF0198D3
:102F00002062A584E5840020E063212084F8390054
:102F10001348216B88621348216BC8621248216BE9
:102F200008630020216B486301AE23681A1D3168D5
:102F30002B46206BFEF768FA6FF0400021680860AE
:102F400000BF002084F8380000BF2068406940F0CE
:102F50008000216848610020C5E70220C3E7000027
:102F6000353B00086B3B0008913A000870477047FA
:102F700001200849086008A001F0A8F800200A49CB
:102F80000860091D0860091D0860091D086000BF70
:102F9000FEE70000848121425B48415244204552B3
:102FA000525D0D0A00000000342C01400EB50020D7
:102FB000009001900290194819490860811518483D
:102FC000816001210173002101754FF46021C1610D
:102FD000002013494860022111480161FDF7D4FE29
:102FE00008B1FDF703FE04200090012001900220AB
:102FF000029069460A48FDF713FE08B1FDF7F6FD99
:103000001020009002200190072002906946044899
:10301000FDF706FE08B1FDF7E9FD0EBD00240140F5
:103020001C02002008B500BF1648406940F00100AE
:10303000144948610846406900F00100009000BF53
:1030400000BF002211460B20FEF748FC0B20FEF7C4
:1030500035FC002211460C20FEF740FC0C20FEF748
:103060002DFC002211460D20FEF738FC0D20FEF746
:1030700025FC002211461020FEF730FC1020FEF740
:103080001DFC08BD0010024000B585B00020019075
:1030900002900390049000BF3E48806940F0100009
:1030A0003C4988610846806900F01000009000BF2C
:1030B00000BF00BF0846806940F0200088610846D4
:1030C000806900F02000009000BF00BF00BF0846EC
:1030D000806940F0040088610846806900F00400BF
:1030E000009000BF00BF00BF0846806940F00800A4
:1030F00088610846806900F00800009000BF00BFAA
:1031000000224FF460412448FEF75CFB0022C021FE
:103110002248FEF757FB002240F207312048FEF715
:1031200051FB012211031E48FEF74CFB4FF4604097
:10313000019001200290002003900220049001A938
:103140001548FEF7AFF9C020019001200290002041
:1031500003900220049001A91048FEF7A3F940F261
:10316000073001900120029000200390022004907B
:1031700001A90B48FEF796F94FF480500190012009
:1031800002900390049001A90548FEF78BF905B061
:1031900000BD000000100240001001400008014086
:1031A000000C014010B50F480F4908604FF48270C1
:1031B000486000210C488160C16002210161012149
:1031C0004161490281613021C16100210162416296
:1031D00081620A21C162FEF7D3FF08B1FDF706FD47
:1031E00010BD0000003800409002002000B591B0F2
:1031F00000200F9010901C2108A8FCF7BCFF202194
:103200006846FCF7B8FF2F482F4908600120486046
:1032100000212D48816040F2CF71C1600021016121
:10322000416180218161FFF77AFB08B1FDF7DEFC87
:1032300000200F9010900FA92348FFF77FF808B1E6
:10324000FDF7D4FC60200890002009900A900B90B4
:103250000C900D900E90002208A91B48FFF7DBFA96
:1032600008B1FDF7C3FC042208A91748FFF7D3FAF9
:1032700008B1FDF7BBFC082208A91348FFF7CBFAF9
:1032800008B1FDF7B3FC0C2208A90F48FFF7C3FAF9
:1032900008B1FDF7ABFC0020009001900290039074
:1032A00004904FF4005005900020079069460648AE
:1032B000FFF70AF808B1FDF799FC0348FFF762FA37
:1032C00011B000BD002C0140E802002000B589B01B
:1032D0000020079008901C216846FCF74CFF4FF037
:1032E00080401C49086040F2CF2048600021194806
:1032F000816040F2CF71C160002101618161FFF7FF
:103300000EFB08B1FDF772FC00200790089007A99A
:103310001048FFF713F808B1FDF768FC6020009033
:1033200096200190002002900490002269460948EE
:10333000FFF771FA08B1FDF759FC04226946054808
:10334000FFF769FA08B1FDF751FC0248FFF71AFAD6
:1033500009B000BD2803002000B58BB0242102A8CD
:10336000FCF709FF002000900190164816490860FC
:1033700000204860002114488160C16001618161C2
:10338000012002900020039001200490002005906D
:103390000690079001200890002009900A9002A949
:1033A0000948FFF726F808B1FDF720FC002000903F
:1033B000019069460448FEF7C1FF08B1FDF716FC0D
:1033C0000BB000BD000400406803002000B58BB0C6
:1033D000242102A8FCF7CFFE00200090019019489C
:1033E0001949086003204860002117488160F221D4
:1033F000C1600021016181610320029000200390DF
:10340000012004900020059006900790012008906C
:10341000002009900A9002A90B48FEF7EAFF08B1C4
:10342000FDF7E4FB00200090019069460648FEF796
:1034300085FF08B1FDF7DAFB7920024924310860E5
:103440000BB000BD00080040A803002010B50C48D8
:103450000C4908600C4848604FF48051094881606D
:103460004900C160C91001610C21416100218161E5
:10347000C161FFF7AFFB08B1FDF7B8FB10BD00005D
:1034800000440040E8030020A086010010B50B486E
:103490000B4908604FF4E130486000210848816022
:1034A000C16001610C21416100218161C161FFF7AF
:1034B00091FB08B1FDF79AFB10BD000000480040E9
:1034C0002804002000BFFEE770472DE9F0470446BE
:1034D0000D4616461F46DDE90889204600F009F82A
:1034E0006560E6606761C4F81C80C4F82090BDE8A0
:1034F000F08701B5042200216846FCF735FE08BDBF
:103500002DE9F04704460D4616460027B8463146D9
:103510002846FCF79AFE074638466168FCF79BFE92
:10352000A0603846E168FCF796FE81462169FCF709
:103530003AFE2061216A2069FDF718F901D2206A5C
:10354000206138462168FCF780FE82466169FCF7FD
:1035500082FE8146E169FCF77EFEA0612760216959
:10356000A068FCF720FE8146A169FCF71CFE80469E
:103570004046BDE8F08700001CB500200190012006
:103580000090002010490860012000F021F842203E
:1035900000F01EF8022001900EE0002000F018F864
:1035A0000A499DF804208854102000F049F89DF83D
:1035B0000400401CC0B201909DF804000928ECDB17
:1035C0000120014908601CBDB08121421002002089
:1035D00010B5044617481849086008E01648016805
:1035E0000068401E144A106009B9002010BD13483D
:1035F000006800F002000028F0D01048001D0460B0
:1036000008E00D4801680068401E0B4A106009B9C7
:103610000020EBE70948006800F001000028F0D026
:103620000648001D0068C4B2102000F009F82046CA
:10363000DCE70000409002006C00002008380040E9
:1036400006E0482100E0491E0029FCDC411E88B24A
:103650000028F6DC7047704708B508490968C908B2
:103660004FF47A72B1FBF2F14143009100BF00BF09
:1036700000994A1E00920029F9D108BD840000205B
:10368000704710B5FEF7AAF810BD00B593B0282119
:1036900009A8FCF770FD142104A8FCF76CFD0020BC
:1036A00000900190029003900120099000040A907C
:1036B00000200B9001200D9002201090C103119169
:1036C0004FF4E011129109A8FEF728FB08B1FDF7AD
:1036D0008DFA0F20049002200590002006904FF4F0
:1036E0008060079000200890022104A8FEF7E0F90E
:1036F00008B1FDF77BFA0220009080030290684633
:10370000FEF73EF908B1FDF771FA13B000BD0000F5
:103710001148006840F001000F4908600846406801
:103720000E4908400C494860084600680C490840AA
:10373000094908600846006820F4802008600846AF
:10374000406820F4FE0048604FF41F008860C80302
:103750000449086070470000001002400000FFF8B4
:10376000FFFFF6FE08ED00E02DE9F04F87B04FF0C7
:103770000009002006E04100491C184A52F82110B7
:103780008944401C3228F6DB4846FCF75CFF1449AC
:103790000190FCF792FD4FF08B410290FCF78DFDFC
:1037A00083461049FCF757FD0F490390FCF750FD85
:1037B0008246FCF772FF0D4A0D4BCDE90401FCF780
:1037C000D3FE074600220B4BFCF7B5FD0546FCF780
:1037D000A7FF0446204607B0BDE8F08F340500205F
:1037E00000004842333353403D0AB73F22FDF6758F
:1037F000E09C713F0000394010B5084801880088FE
:10380000401C064A1080B42904D1002011460880CB
:1038100001F0BCF90248FEF7E9FE10BD740000207B
:10382000E802002010B50248FEF7E0FE10BD0000DF
:103830002803002010B501F0EBFB79200249086055
:103840000248FEF7D3FE10BD2404004068030020A8
:1038500010B501F0DFFB7920024908600248FEF74D
:10386000C5FE10BD24080040A803002010B5026862
:10387000184B984208D0B0F1804F05D0164B9842B3
:1038800002D0164B984203D122F070024B681A43C3
:10389000104B984208D0B0F1804F05D00E4B9842A3
:1038A00002D00E4B984203D122F44072CB681A43E7
:1038B00022F080034C6943EA040202608B68C36211
:1038C0000B688362034B984201D10B6903630123A8
:1038D000436110BD002C014000040040000800407E
:1038E00030B501F01F05012404FA05F3046A9C4376
:1038F0000462046A01F01F0502FA05F52C43046214
:1039000030BD000030B5056A25F001050562026A88
:103910004368846924F0700424F003040D682C4388
:1039200022F002028D682A430D4DA84206D100BF45
:1039300022F00802CD682A4322F00402084DA84272
:1039400007D123F4807323F400734D692B438D69F1
:103950002B43436084614D684563026230BD0000C3
:10396000002C014030B5056A25F010050562026A99
:103970004368846924F4E04424F440740D6844EA04
:10398000052422F020028D6842EA05120E4DA8425D
:1039900007D100BF22F08002CD6842EA051222F072
:1039A0004002094DA84209D123F4806323F4006347
:1039B0004D6943EA85038D6943EA85034360846169
:1039C0004D688563026230BD002C014030B5056A48
:1039D00025F480750562026A4368C46924F07004A6
:1039E00024F003040D682C4322F400728D6842EA2F
:1039F00005220F4DA84207D100BF22F40062CD6816
:103A000042EA052222F48062094DA84209D123F43A
:103A1000805323F400534D6943EA05138D6943EA4B
:103A200005134360C4614D68C563026230BD000088
:103A3000002C014030B5056A25F480550562036A03
:103A40004468C26922F4E04222F440720D6842EAFE
:103A5000052223F400538D6843EA0533064DA8423E
:103A600004D124F480444D6944EA85144460C26161
:103A70004D680564036230BD002C014070B50546F9
:103A80006C6A0020E085E0842046FEF7FCFF70BDF4
:103A900070B506460025746A20684069C0F3C015F9
:103AA00094F83900212805D125B10020E084204672
:103AB00000F082F820684069C0F3801594F83A005D
:103AC000222805D125B10020E085204600F054F8D9
:103AD000E06B40F01000E0632046FEF7D4FF70BDBD
:103AE00070B505466C6A2868006800F02000B0B91F
:103AF0000020E0852068C06820F480702168C860DC
:103B00002068406920F00100216848612068406910
:103B100020F0400021684861202084F83A002046C7
:103B2000FFF7D4F970BD70B50446656A2846FFF703
:103B3000CEF970BD70B505466C6A2868006800F063
:103B4000200070B90020E0842068406920F08000E7
:103B5000216848612068C06840F040002168C86062
:103B600002E02046FFF702FA70BD70B50446656AB0
:103B70002846FFF7FCF970BD0168C96821F490710F
:103B80000268D1600168496921F001010268516150
:103B9000202180F83A10704710B504462068C068AC
:103BA00020F040002168C860202084F839002046B9
:103BB000FFF7DCF9002010BD0168C96821F0C001E1
:103BC0000268D160202180F83910704770B5044632
:103BD00094F83A0022284AD1A068B0F5805F13D14A
:103BE000A56A206940B920684068C0F308002880B1
:103BF000A06A801CA06219E020684068C0B22880DA
:103C0000A06A401CA06211E0206938B920684068B1
:103C1000C1B2A26A501CA062117007E0206840681F
:103C200000F07F01A26A501CA0621170E08D401E5E
:103C300080B2E085C8B92068C06820F02000216803
:103C4000C8602068C06820F480702168C86020685F
:103C5000406920F0010021684861202084F83A0082
:103C60002046FFF733F9002070BD0020FCE702205A
:103C7000FAE7000070B504462168096921F4405153
:103C8000E2681143226811612269A16811436269E7
:103C900041EA02052168C96841F20C629143294357
:103CA0002268D1602168496921F44071A2691143F9
:103CB00022685161564A2168914254D1FDF7D4FFE0
:103CC00000EBC00101EB001162689200B1FBF2F160
:103CD00000EBC00202EB001263689B00B2FBF3F240
:103CE0006423B2FBF3F202EBC20303EB0212A1EB7B
:103CF0008201322202EB01116422B1FBF2F101F0E8
:103D0000F00100EBC00202EB001263689B00B2FB03
:103D1000F3F26423B2FBF3F201EB021200EBC001F9
:103D200001EB001163689B00B1FBF3F100EBC003F2
:103D300003EB00136668B600B3FBF6F36426B3FB2F
:103D4000F6F303EBC30606EB0313A1EB8301322367
:103D500003EB01116423B1FBF3F101F00F011144F6
:103D60002268916053E0FDF76FFF00EBC00101EBAB
:103D7000001162689200B1FBF2F100EBC00202EBAD
:103D8000001263689B00B2FBF3F26423B2FBF3F210
:103D900002EBC20303EB0212A1EB8201322202EB1F
:103DA00001116422B1FBF2F101F0F00100EBC0025D
:103DB00002EB001263689B00B2FBF3F26423B2FBD8
:103DC000F3F201EB021200EBC00101EB001163689A
:103DD0009B00B1FBF3F100EBC00303EB001366683B
:103DE000B600B3FBF6F36426B3FBF6F303EBC306AE
:103DF00006EB0313A1EB8301322303EB01116423D0
:103E0000B1FBF3F101F00F0111442268916070BD24
:103E100000380140014691F8390021282CD18868EA
:103E2000B0F5805F0FD10A6A1088C0F308000B68F4
:103E30005860086918B9086A801C086209E0086AB5
:103E4000401C086205E00B6A581C086218780B6871
:103E50005860C88C401E80B2C88458B90868C068D1
:103E600020F080000B68D8600868C06840F040000F
:103E70000B68D860002070470220FCE710B5794835
:103E800000687949084000B910BD76480068C4B29E
:103E90007448001D0068C4B27448FEF7C1FD744840
:103EA00000780F287ED17248007E0028FAD1714830
:103EB00000780830C0B26F490870EC2801DD01209D
:103EC00000E000206C4908606948407868498978BA
:103ED00001F0070140EA0120654948830846C0789F
:103EE0008006400D897840EAE100614988830846F0
:103EF0004079C007400D097940EA81005C49C978E2
:103F000040EAA1105A49C883084680790007400D4D
:103F1000497940EA6100564908840846C07940065C
:103F2000400D897940EA2110514948840846407A79
:103F30008007400D097A40EA41004D49C97940EABD
:103F4000E1104B4988840846807AC006400D497AC2
:103F500040EAA1004649C8840846C07AC000897A70
:103F600040EA6110424908850846007B497B01F020
:103F7000070140EA01203E4948850846807B8006CB
:103F8000400D497B40EAE100394988850846007CBC
:103F9000C007400DC97B40EA81003549897B40EA72
:103FA000A11000E051E03249C8850846407C000776
:103FB000400D097C40EA61002D4908860846807C56
:103FC0004006400D497C40EA2110294948860846B0
:103FD000007D8007400DC97C40EA41002449897C6E
:103FE00040EAE110224988860846407DC006400D1F
:103FF000097D40EAA1001E49C8860846807DC000B0
:10400000497D40EA61111A480187C07D00B3002054
:1040100019490860042407E040F2E73114481A30D7
:1040200020F81410601CC4B2102CF5DB4FF4707033
:104030000F4948834FF475710D4881834FF49B718C
:10404000C1834FF47571018402E000200A490860C1
:10405000192207490548FEF7D7FE0448FEF714FD6C
:1040600000BF11E70044004010000010E8030020EA
:1040700088000020760000208881214210B50E487B
:1040800000680E49084090B10B480068C4B20A4865
:10409000001D0068C4B20A48FEF7C2FC0948007857
:1040A0001F2802DD00F0A8FC01E001F081F90448BE
:1040B000FEF7EAFC10BD00000048004010000010B0
:1040C000280400201001002000BFFEE70FB4054BBC
:1040D00010B503A9044A029800F0F6F810BC5DF888
:1040E00014FB00004D500008040000200248006846
:1040F000C0F30220704700000CED00E010B500286E
:1041000004DB0A07130E054A135406E00A07140ECF
:10411000034A00F00F031B1FD45410BD00E400E05D
:1041200018ED00E002E008C8121F08C1002AFAD109
:1041300070477047002001E001C1121F002AFBD127
:10414000704700002DE9FF5F82B00021DDE90430F7
:10415000020DDDF840B0034318D044F61050A2F22F
:10416000FF3242431514119801281FD0A5EB0B0014
:10417000401C5FEA000A4FF000064E4FDFF838910E
:10418000B046504615D5CAF1000413E01198012439
:104190004AA3012801D16FEA0B010298119AC0E9E4
:1041A0000031C0E9024206B0BDE8F09FCBF100004B
:1041B000DFE704460021404A491842EB0450CDE9AC
:1041C000001012E0E00707D032463B464046494621
:1041D000FCF758F98046894632463B461046194658
:1041E000FCF750F906460F466410002CEAD1DDE9D1
:1041F0000401DDE90023BAF1000F06DAFCF742F909
:1042000042464B46FCF73EF905E0FCF7ADF9424665
:104210004B46FCF7A9F904460E460022284BFCF752
:1042200067FA03D84FF0FF30014607E00022254B24
:1042300020463146FCF77FF8FCF79EFB102409E08E
:10424000002C0ADB0A220023FCF7B0FA039B303271
:104250001A55641E50EA0102F2D1641C039AC4F19B
:1042600011031444119A012A03D0012208430DD1ED
:104270000AE0084304D000204FF0110B119072E7C0
:10428000A3EB0B056D1E0DE05B4504DD4FF0000256
:1042900005F1010504E003DA4FF00002A5F1010584
:1042A000002AECD002981199C0E90231C0E900451A
:1042B00079E70000000014400000F03F30000000EB
:1042C0000000F0430000E03F2DE9FF4F95B09B4612
:1042D0008946064600250FE2252877D10024274687
:1042E000F84A0121059400E0044316F8013F203B01
:1042F00001FA03F01042F7D130782A2811D06FF07C
:104300002F033078A0F13002092A16D8059A44F01C
:10431000020402EB820203EB42021044761C059079
:10432000EFE759F8042B0592002A03DA504244F4CF
:104330000054059044F00204761C30782E2816D1E3
:1043400016F8010F44F004042A280DD06FF02F0254
:104350003078A0F13003092B09D807EB870302EB73
:104360004303C718761CF3E759F8047B761C3078B2
:104370006C280FD006DC4C2817D068280DD06A288E
:1043800014D104E0742810D07A280FD10DE044F441
:1043900000140AE044F4801401E044F440147278FC
:1043A000824202D104F58014761C761C307866288F
:1043B0000BD013DC582877D009DC002875D04528AD
:1043C000F6D04628F4D047281AD19DE118E063289A
:1043D00035D0642879D0652812D195E1702873D042
:1043E00008DC6728F1D069286FD06E280DD06F28BF
:1043F00006D1B5E073282CD0752875D0782874D0F4
:104400005A46179990476D1C75E1C4F30250022873
:1044100009D003280DD0D9F8001004280DD00D6064
:1044200009F1040967E1D9F80010EA17C1E900525F
:10443000F6E7D9F800100D80F2E70D70F0E719F8F3
:10444000041B8DF8001000208DF80100EA460120C1
:1044500003E059F804AB4FF0FF3061074FF0000163
:1044600002D40DE008F101018846B9420FDA804517
:10447000F8DB1AF808100029F4D108E008F101016E
:1044800088468142FADB1AF808100029F6D105980F
:104490005B46A0EB080721463846179A00F094FACD
:1044A000284400EB080507E04DE029E10DE01AF88B
:1044B000010B5A4617999047B8F10108F7D25B46AD
:1044C00021463846179A13E142E00A220092C4F3CB
:1044D00002524FF0000A022A08D059F804CB032AEE
:1044E0004FEAEC710AD00DE029E02AE009F107015A
:1044F00021F00702F2E802C1914609E00FFA8CFCB4
:104500004FEAEC71042A03D14FFA8CFC4FEAEC71AC
:10451000002907DA0A460021DCF1000C61EB0201F8
:104520002D2202E0220504D52B228DF80420012241
:1045300003E0E20701D02022F7E7904659E00A2184
:1045400002E010220DE010214FF0000A00910BE074
:1045500010224FF0000A44F004040827009203E000
:1045600008224FF0000A0092C4F30252022A05D03A
:1045700059F804CB0021032A08D009E009F107010A
:1045800021F00702F2E802C1914605E01FFA8CFC17
:10459000042A01D10CF0FF0C4FF00008220728D5A7
:1045A000702806D0009B83F0100353EA0A0305D05D
:1045B0000EE040228DF80420012208E05CEA0102AE
:1045C00006D030228DF804208DF805000222904696
:1045D000009B83F0080353EA0A030AD15CEA010254
:1045E00001D1620705D530228DF804204FF0010873
:1045F0007F1E582804D034A003900EA802900DE02E
:1046000036A0F9E753466046009AFCF7CFF8844697
:104610000398825C0298401E029002705CEA0100DE
:10462000F0D1029806A9081A00F1200A600702D505
:1046300024F4803400E00127574502DDA7EB0A008F
:1046400000E0002000EB0A01009005984144401A68
:104650000590E00306D45B462146179A059800F0C2
:10466000B3F90544002706E001A85A46C05D179932
:1046700090476D1C7F1C4745F6DBE0030CD55B467D
:104680002146179A059800F09FF9054404E0302070
:104690005A46179990476D1C0099481E00900029B2
:1046A000F5DC08E0029802995A460078491C02910C
:1046B000179990476D1CBAF10001AAF1010AF1DCCB
:1046C00065E10000092801003031323334353637D6
:1046D000383961626364656600000000303132334E
:1046E00034353637383941424344454600000000EE
:1046F00000F058F90544761C307800287FF4ECADC2
:1047000019B02846BDE8F08F620700D4062709F1EA
:10471000070222F0070CFCE80223E14603F0004800
:104720005FEA080C02D00FF2702C0DE05FEA045C27
:1047300002D50FF2682C07E05FEAC47C02D00FF2CA
:10474000602C01E0AFF2700C4FF0FF3823F0004313
:10475000CDF850C065280CD006DC452809D0462885
:104760001DD047283DD13DE0662818D067287ED16E
:1047700038E00021112F01DB112000E0781CCDE989
:10478000000106A90EA8FFF7DDFCDDE90F010E9A76
:1047900003910021009207F1010A04914DE04FF0CE
:1047A00000400097CDE9011006A90EA8FFF7CAFC4A
:1047B000DDE90F0203920E9B11990022DDF80CA097
:1047C0000093049211B9791C00EB010AB7EB0A00BF
:1047D00004D4C0F1FF3007F1010A0490AAEB0700EE
:1047E000019044E0012F00DA01270021112F01DDA3
:1047F000112000E03846CDE9000106A90EA8FFF718
:10480000A1FCDDE90F010E9A0391002104910092B1
:10481000BA4621070CD40399514500DA8A46BAF109
:10482000010F05DD009AAAF10101515C302908D081
:10483000B84202DA10F1040F06DA0121CDE90110C5
:1048400015E0AAF10101E9E7002805DC049901441B
:104850000491AAEB000102E0411C514500DD8A46AB
:104860000499401A401C01904FF00040029020072C
:1048700004D40198504501DBCDF8048000208DF868
:104880004F0002980DF14F07B0F1004F25D02B20BB
:104890000E9002984FF0020800280CDA4042029075
:1048A0002D200E9007E00A210298FBF769FF3031B6
:1048B000029007F8011DB8F10001A8F10108F2DC2F
:1048C00002980028EFD1791E0E980870307800F019
:1048D000200040F0450007F8020D12A8C01B00F1AF
:1048E00007081498007800B1012000EB0A01019834
:1048F00001EBE07105984144401A401E0590E00329
:1049000006D45B462146179A059800F05DF80544E9
:104910001498007818B15A46179990476D1CE00317
:1049200024D55B462146179A059800F04DF80544BA
:104930001CE00498002807DBDDE90301884203DD61
:104940000098405C179901E0179930205A4690472B
:10495000049805F10105401C04900198401E019047
:1049600004D12E205A46179990476D1CBAF10001C8
:10497000AAF1010ADDDC05E017F8010B5A46179988
:1049800090476D1CB8F10001A8F10108F4DC5B460A
:104990002146179A0598ABE62D0000002B00000079
:1049A000200000002DE9F041044600251E46174670
:1049B000880404D405E039462020B0476D1C641EED
:1049C000F9D52846BDE8F0812DE9F04104460025DF
:1049D0001E469046C80301D5302700E020278804F2
:1049E00004D505E041463846B0476D1C641EF9D534
:1049F0002846BDE8F081000070B52348006808B97A
:104A0000012000E000202049086002221FA1204868
:104A1000FBF7BCFB58B9002000F050FD0646FBF741
:104A20003CFE044622460B461AA0FFF74FFB03222A
:104A30001BA11748FBF7AAFB50B9FCF771F8064613
:104A4000FBF72BFE044622460B4616A0FFF73EFB63
:104A5000042217A10E48FBF799FB50B9FEF784FE1C
:104A60000646FBF71AFE044622460B4612A0FFF745
:104A70002DFB80210648FBF77EFB8022044911486C
:104A8000FEF7C2F9012070BD80812142746D700073
:104A900010010020746D7020252E33660D0A000071
:104AA0004241540042415420252E31660D0A000037
:104AB00054454D500000000054454D5020252E31E6
:104AC000660D0A00280400202DE9F04105460C4639
:104AD00026492846FBF7F1FB064625492046FBF709
:104AE000ECFB07464FF07E513046FBF73FFE01D20C
:104AF0004FF07E561F493046FBF72EFE00D21D4E6A
:104B00004FF07E513846FBF731FE01D24FF07E5711
:104B100000213846FBF720FE00D200271649304618
:104B2000FBF799FB064615493046FBF73CFB06466A
:104B300013493846FBF78FFB074612493846FBF707
:104B400032FB07461048007801280DD13046FBF7AC
:104B500090FD80B24FF0804148633846FBF789FDF5
:104B600080B24FF080418863BDE8F081000034439B
:104B70000000B442000080BF0000C842000016439D
:104B80000000484300004842300000202DE9F04773
:104B900094480078401C93490870084600783228F1
:104BA00009D1002008709048006808B9012000E091
:104BB00000208D490860072000F09EFA8046FBF730
:104BC00042FD07468949FBF778FB0546012000F0C6
:104BD00093FA8246FBF737FD81468549FBF76DFB6B
:104BE00080464FF08041FBF736FB07464FF07E5181
:104BF000FBF72BFB06462946FBF72DFB7D4908609A
:104C0000082000F079FA8046FBF71DFD074677493A
:104C1000FBF753FB0646022000F06EFA8246FBF7D4
:104C200012FD81467249FBF748FB80464FF08041F8
:104C3000FBF711FB07464FF07E51FBF706FB0546DD
:104C40003146FBF708FB6C490860032000F054FA7A
:104C50000646FBF7F8FC05466849FBF72EFB68495A
:104C60000860042000F048FA8046FBF7ECFC074699
:104C70005F49FBF722FB06464FF08041FBF7EBFA5A
:104C800005464FF07E51FBF7E0FA5E4908600320CD
:104C900000F032FA8046FBF7D6FC07465449FBF792
:104CA0000CFB06464FF08041FBF7D5FA05464FF066
:104CB0007E51FBF7CAFA044653480078401C52491B
:104CC00008700846007803280DD100200870464877
:104CD0000830006808B9012000E00020424908318E
:104CE0000860FEF749FC00F0BFF94849086000F091
:104CF000EDF947490860404801683E480068FBF705
:104D000052FA05464348294602684348FEF7F8FB35
:104D1000424908603848016836480068FBF743FAA2
:104D200005463B48294602683D48FEF7E9FB3D49F8
:104D30000860052000F0E0F940F2E631884201DD2C
:104D4000012000E00020384908600A2000F0D4F972
:104D5000B0F57A7F01DD012000E000203249091D15
:104D60000860092000F0C8F9B0F57A7F01DD012064
:104D700000E000201C4920310860062000F0BCF94A
:104D8000B0F57A7F01DD012000E00020054600F04B
:104D90000FF91848016818480068FBF704FA05463F
:104DA0001448016814480068FBF74FFA0646294684
:104DB00000F05EF81D4912480068FBF74CFA054602
:104DC0001B4910480068FBF746FA06462946FFF7DC
:104DD0007BFE18492046FBF73EFA054600F0BEF878
:104DE000BDE8F087400000208081214200007A4425
:104DF0000000FA44240000202000002000803B45F1
:104E00003400002038000020410000201000002065
:104E10001800002008000020EC0000202C000020DA
:104E2000C800002028000020980121420000B44260
:104E3000000034430000C8421CB5242107A0FFF73E
:104E400045F94FF07E50084900231A46CDE900107D
:104E500019460648FEF739FB1CBD00005049447353
:104E6000697A6520256400000000A040C800002089
:104E70002DE9F04105460C4600212846FBF776FC5B
:104E800015D24FF07E512846FBF770FC01D24FF04F
:104E90007E552F492846FBF7DEF90646FBF7E9FB6E
:104EA00080B22C4908600020091D086015E02A49DD
:104EB0002846FBF751FC00D2274D00202549086009
:104EC00085F0004722493846FBF7C5F90646FBF74F
:104ED000D0FB80B21F49091D08601F492046FBF71F
:104EE000BAF9044600212046FBF740FC17D24FF0E8
:104EF0007E512046FBF73AFC01D24FF07E54002051
:104F000014490831086012492046FBF7A4F9064607
:104F1000FBF7AFFB80B20F490C31086015E00E497A
:104F20002046FBF719FC00D20B4C84F000470849DF
:104F30003846FBF790F90646FBF79BFB80B2054924
:104F4000083108600020091D0860BDE8F0810000FC
:104F50000000FA44342C0140000080BF2DE9F041EC
:104F6000054611480078E8B9092000F0C5F8B0F509
:104F70007A7F01DD012000E000200C4908604FF03D
:104F80007C512846FBF799F90746FBF772FB86B27E
:104F90003046FBF758FB044642F20F704FF0804159
:104FA000486300BFBDE8F08130000020B801224214
:104FB00010B50446012C00DD01241348007884421A
:104FC0001FD07CB140F2CF704FF08041C86246F6EE
:104FD0006800886104210D48FDF7FAFC0B48FDF7D5
:104FE000ECF90EE044F61F604FF08041C86246F6CF
:104FF0006800886104210548FDF7EAFC0348FDF7D5
:10500000C7F90148047010BD3000002028030020BB
:105010007047000010B50B48006800F0100040B168
:105020004FF07E5108480068FBF70FF90649086009
:1050300007E04FF07E5104480068FBF7B4F80249DE
:10504000086010BD000800400800002000BF054AAD
:10505000126802F04002002AF9D0C2B2014B1B1DB7
:105060001A607047004800402DE9FE4F0020029072
:105070001149096809B2A1F17900FBF7E9FA0022A8
:105080000E4BCDE90001FBF76FFA06460F460C48C0
:105090000068FBF702FB804632463B46FBF74BF9C4
:1050A0000446084A084BFBF7EDF98246FBF738FB4C
:1050B00002900298BDE8FE8F2408004000405E4048
:1050C00008000020CC7F48BF7D1DC83F70B5FFF7AA
:1050D000CBFF0446064801682046FBF7B6F80646B3
:1050E0000449FBF7B8F8054601480460284670BD3E
:1050F000440000200000C8420146102902DD4FF4A0
:105100007A707047012902DA4FF47A70F9E7481E85
:10511000014A32F81000F4E7A2000020FCF76AFB15
:10512000FEF7B3FAFDF7B0FFFDF77CFFFEF75EF880
:10513000FEF7CCF8FEF710F9FEF748F9FEF786F90E
:10514000FEF7A4F9FDF732FFFEF72CF819227C498F
:105150007C48FDF759FE7B480068C06840F01000AD
:1051600078490968C860802277497848FDF74CFE85
:1051700076480068C06840F0100074490968C8604B
:1051800073480068006840F00200714909680860CF
:1051900070480068006840F040006E490968086087
:1051A0006D48FDF7F5F86D48FDF7F2F86C48FDF72E
:1051B000EFF86C48FDF7ECF800216748FDF708FCB4
:1051C00004216548FDF704FC08216348FDF700FC55
:1051D0000C216148FDF7FCFB00216048FDF7F8FB5E
:1051E00004215E48FDF7F4FB3C215D48FDF7D6F94C
:1051F0003C215C48FDF7D2F964225B495B48FBF730
:10520000BDFE01205A4908605AA0FEF75FFFFFF774
:1052100013FE0024002591E000240520FFF76CFF19
:1052200040F2E631884201DD012000E00020044424
:105230000620FFF761FFB0F57A7F01DD012000E075
:10524000002004440920FFF757FFB0F57A7F01DD05
:10525000012000E0002004440A20FFF74DFFB0F5D4
:105260007A7F01DD012000E0002004444748006807
:10527000844200D0643545480460002D04DD6D1E75
:1052800001204349086034E0FBF74AFC8046FBF705
:1052900004FA06464FF033323E4BFBF729FA0ED2A2
:1052A000FBF73EFC8046FBF7F8F906463A4A3B4BD3
:1052B000FBF706FA03D201203549086019E0FBF735
:1052C0002FFC06463649FBF751FA0FD2FBF728FCB4
:1052D0008046FBF7E2F906464FF03332314BFBF7DD
:1052E000EFF903D201202A49086002E00020284992
:1052F00008601F481C30006858B1FEF735FA0646B2
:105300002949FBF729FA19D2002019491C310860F4
:1053100014E0FEF729FA06462449FBF727FA09D3D9
:105320000920FFF7E9FEB0F57A7F01DD012000E0FA
:10533000002018B101200E491C3108606CE7000004
:1053400088000020E803002010010020280400202D
:10535000F004002090020020E80200202803002032
:1053600068030020A8030020340500201C02002050
:10537000888121420D0A0D0A44656D6F43617420D6
:105380004F6E6C696E650D0A000000007000002011
:10539000B4012242333329409A99999999992D4021
:1053A0000000C04033332640000048420000544211
:1053B00010B5802200211248FAF7D6FE1148007875
:1053C0000C2802D00F2806D102E000F03FF803E0DD
:1053D00000F01EF800E000BF00BF0B48006808B9ED
:1053E000012000E0002008490860802200210548D3
:1053F000FAF7BAFE802202490448FDF769FD10BDA4
:10540000900100201001002080812142280400200A
:105410003EB500210022002000900190029000BFC4
:105420000FE083005B1D084CE45C83001B1D064DF0
:10543000EB5C04EB032399B283009B1D2C46E25CDA
:10544000401C0328EDDB3EBD1001002070B50C2090
:1054500017490870487000208870C870FEF784F9FA
:1054600006461449FAF7F7FE0546FBF702F904462B
:105470000F484460FBF754FB06460E49FAF7EBFE73
:105480000546FBF7F6F804460948846024220A49D9
:105490000C30FAF757FE042007E00549C978044AA2
:1054A000125C1144024AD170401C8028F5DB70BDAB
:1054B000900100200000C842C80000202DE9F84FEC
:1054C0000446A2464FF00009002005E041000E4AC4
:1054D00052F821108944401C3228F7DB4846FBF77C
:1054E000B2F80A490090FAF7E8FE8346FBF7D5F8D0
:1054F0000746074A074BFAF7C5FF0546FBF710F9C1
:1055000082465046BDE8F88F34050020000048422E
:10551000881954FA8D9F833F0000000000000000AE
:105520000102030406070809000000000102030449
:1055300050550008000000208800000024410008A9
:10554000D855000888000020400A000034410008B7
:10555000000000000000000000000000000000004B
:10556000000000000000000000000000000000003B
:10557000000000000000000000000000000000002B
:10558000000000000000000000000000000000001B
:105590000000000000000000000001000200030005
:1055A0000400050006000700080009000A000B00BF
:1055B0000C000D000E000F001000000040900200D3
:1055C00000000000000000000000000010000000CB
:0855D000010000000024F400BA
:04000005080000ED02
:00000001FF
