:020000040800F2
:100000006007002001010008792A000899250008EE
:10001000752A00082109000871330008000000005B
:10002000000000000000000000000000A52A0008F9
:1000300045090008000000007B2A0008A72A0008E4
:100040001B0100081B0100081B0100081B01000820
:100050001B0100081B0100081B0100081B01000810
:100060001B0100081B0100081B0100081B01000800
:1000700025090008350900081B0100081B010008BC
:100080001B0100081B0100081B0100081B010008E0
:100090001B0100081B0100081B0100081B010008D0
:1000A0001B0100086D2B00081B0100081B01000844
:1000B0001B010008A12B0008BD2B00081B01000834
:1000C0001B0100081B0100081B0100081B010008A0
:1000D0001B0100081B010008ED300008ED3200088C
:1000E0001B0100081B0100081B010008DFF80CD0F1
:1000F00000F086FB00480047A94100086007002087
:100100000648804706480047FEE7FEE7FEE7FEE7B1
:10011000FEE7FEE7FEE7FEE7FEE7FEE7152B000839
:10012000ED000008202A04DB203A21FA02F0002129
:10013000704721FA02F3D040C2F1200291400843F7
:1001400019467047D2B201E000F8012B491EFBD2DC
:1001500070470022F6E710B513460A4604461946D2
:10016000FFF7F0FF204610BD30B5044600200346DF
:1001700000E05B1C934203D2E05CCD5C401BF8D0F6
:1001800030BDF0B480EA0102D40F4200B2EB410F5F
:1001900002D20246084611464A0042D0C30DDDB2E3
:1001A000C1F3C752AD1A202D35DAC1F3160141F45F
:1001B000000204B15242C5F1200602FA06F12A41BA
:1001C0001044B3EBD05F23D0C4B1012DA0EBC350DA
:1001D00009DCF0BC4FF0004202EAC352DBB200F58A
:1001E000000000F027B9400000F1807000EBC35020
:1001F000A0F1807040EAD170490009E0490841EA65
:10020000C071A0EBC35000F50000400800EBC350E4
:10021000F0BC00F006B96142012202EB4101001B73
:10022000F6E7F0BC704781F00041AAE780F000409B
:10023000A7E780EA010210B502F00043400022D097
:100240004A001FD0010E01EB1261C0F35600C2F349
:10025000560240F4000042F40002A0FB0220000419
:100260007F39140400D0401C50EA124001D44000F1
:10027000491EC2B20C0604EBD010401C4008802A74
:1002800002D003E0002010BD20F00100002900DAB8
:100290000020184310BD30B480EA010202F000458E
:1002A00030F0004221F0004013D090B1C30DD40DC6
:1002B000C2F31601C0F31600E41A41F4000140F441
:1002C00000027D34914201D3641C00E04900002CFF
:1002D00002DA30BC002070474FF400000023914246
:1002E00001D3891A034340084FEA4101F7D151B1C4
:1002F000914202D14FF0004105E002D24FF00101DE
:1003000001E06FF0010103EBC450284430BC00F061
:1003100088B896230022114600F08CB820F00040E7
:10032000C10DC0F3160040F400007F2901DA00205F
:100330007047962903DCC1F19601C8407047963991
:100340008840704700F0004230F000400AD0C10DF4
:1003500001F56071C0F3160042EA0151C20840077E
:10036000114370470020014670470000002801DB60
:10037000C0F10040002901DBC1F10041814270471A
:10038000002801DBC0F10040002901DBC1F1004180
:100390008842704730B50B460146002020220124D8
:1003A00009E021FA02F59D4205D303FA02F5491B43
:1003B00004FA02F52844151EA2F10102F1DC30BD59
:1003C0002DE9F05F0546002092469B46884606468A
:1003D000814640241BE02846414647462246FFF717
:1003E000A1FE53465A46C01A914110D311461846F1
:1003F000224600F017FA2D1A67EB01084F462246F5
:100400000120002100F00EFA17EB00094E41201EDA
:10041000A4F10104DFDC484631462A464346BDE8E4
:10042000F09F0029A8BF7047401C490008BF20F07A
:100430000100704710B4B0FA80FC00FA0CF050EAEA
:10044000010404BF10BC704749B1CCF1200421FA6B
:1004500004F411FA0CF118BF012121430843A3EB66
:100460000C01CB1D4FEA00614FEA102042BF002073
:1004700010BC704700EBC35010440029A4BF10BC4F
:100480007047401C490008BF20F0010010BC7047B5
:100490002DE9FE4F804681EA0300C00F0C46009014
:1004A00021F0004123F00045B8EB0200A94105D23C
:1004B0004046214690461C460B46024623F000402B
:1004C000104347D0270DC7F30A00C3F30A51029027
:1004D000401A019040286BDAC3F3130040F4801BEC
:1004E0000098924620B10023D2EB030A63EB0B0B7A
:1004F00001985946C0F14002504600F093F9064673
:100500000D4650465946019A00F09BF910EB080041
:100510006141002487EA115284EAE7731A4340D00C
:10052000009A62B3019A012A4FEA075215DC001BB8
:1005300061EB02014FF0004202EA0752CDE90042AE
:10054000001C41F5801132462B4600F09BF903B0A8
:10055000BDE8F08F40462146F9E7001B61EB020140
:10056000001C41F5801300185B412018A2F500170C
:1005700047EB030140EAD570B6196D4111E06D08F3
:100580004FEA360645EAC0754FEA0752001B61EB99
:100590000201001C41F5801149084FEA30000019A2
:1005A000514132462B4603B0BDE8F04F00F05BB935
:1005B0000098012240000023D0EB020263EBE073BD
:1005C000009821464FEAE074B8EB000061EB0401AB
:1005D000E9E783F000435BE781F0004158E72DE94C
:1005E000FE4F81EA030404F0004421F0004100942E
:1005F0004FF0000B23F0004350EA01045ED052EAB2
:1006000003045BD0C3F30A54C1F30A552C44A4F28B
:10061000F3340194A0FB0254C1F3130141F480119F
:10062000C3F3130343F4801301FB024400FB034EA6
:10063000840A970A44EA815447EA8357A4FB07686F
:1006400002958D0A05FB07854FEA932C04FB0C5499
:100650002705029D4FEA065847EA1637B5EB08050D
:100660006EEB070C870E920E47EA811742EA83125F
:10067000A7FB0201B6EB0B0164EB00042B0D43EA70
:100680000C335E1844EB1C50DA465146E7FB02017E
:10069000C5F313044FEA0B3343EA14534FEA043211
:1006A000019C43EA0603A4F10C040294009CCDE9EA
:1006B00000B400F0E7F803B0BDE8F08F0020014679
:1006C000F9E72DE9F04D81EA030404F0004B21F035
:1006D000004514464FF0000A23F0004150EA05029D
:1006E00020D054EA01021DD0C5F30A570246C5F3D3
:1006F0001303C1F31300C1F30A5640F4801543F409
:100700008013A7EB0608101BD64608F2FD3873EBE2
:10071000050002D308F1010801E092185B41B8F12D
:10072000000F03DA00200146BDE8F08D00204FF4F1
:100730008011064684460EE0171B73EB050705D3B0
:10074000121B63EB050306434CEA010C49084FEA10
:10075000300092185B4150EA0107EDD152EA0300E4
:1007600012D082EA040083EA0501084305D0101B79
:10077000AB4106D20122002306E000224FF00043E5
:1007800002E06FF0010253101AEB06004CEB085127
:1007900010EB0A0041EB0B01BDE8F04D00F063B82F
:1007A000C1F30A52C1F3130140F2FF3341F4801147
:1007B0009A4202DA00200146704740F233439A42DF
:1007C000A2F2334202DC5242FFF7ACBC00F02AB87E
:1007D00030B5041E71F1000404DB4FF000444042C8
:1007E00064EB0101141E73F1000405DB1C464FF09D
:1007F0000043524263EB0403994208BF904230BD6C
:10080000064C074D06E0E06840F0010394E807005D
:1008100098471034AC42F6D3FFF76CFCD84200087E
:10082000F8420008202A04DB203A00FA02F10020F6
:1008300070479140C2F1200320FA03F3194390401E
:100840007047202A06DBCB17203A41FA02F043EA30
:10085000E07306E041FA02F3D040C2F12002914079
:1008600008431946704710B5141E73F1000408DAE6
:10087000401C41F1000192185B411A4301D120F064
:10088000010010BD2DE9F04D92469B4611B1B1FA21
:1008900081F202E0B0FA80F220329046FFF7C2FF08
:1008A00004460F4640EA0A0041EA0B0153465A4605
:1008B000084313D0114653EA010019D0C8F1400291
:1008C0005046FFF72FFC05460E4650465946424615
:1008D000FFF7A8FF084305D0012004E02046394671
:1008E000BDE8F08D0020054346EAE0762C4337430F
:1008F0000A986305E40AA0EB08000022FD0A44EA16
:1009000047540A3002D500200146E9E701051019D5
:100910006941DDE9084500196941BDE8F04DA2E7EC
:1009200000BFFEE710B5024800F08AF910BD0000D4
:100930001C03002010B5024800F082F910BD000031
:10094000D80200207047000001200849086008A074
:1009500002F010FD002008490860091D0860091D0B
:100960000860091D086000BFFEE700008481214285
:100970005B4552525D0D0A00342C014070B50446AF
:100980000CB9012070BD94F8200010B9204600F089
:10099000AFF82068006820F002002168086000F0CD
:1009A000E7FB05460DE000F0E3FB401B0A2808D9F1
:1009B000606A40F400306062052084F82000012065
:1009C000E0E72068406800F002000028EBD12068D2
:1009D000006840F001002168086000F0C9FB05468E
:1009E0000DE000F0C5FB401B0A2808D9606A40F4FE
:1009F00000306062052084F820000120C2E72068F2
:100A0000406800F001000028EBD0207E012806D1CC
:100A10002068006840F080002168086005E02068D8
:100A2000006820F0800021680860607E012806D1FF
:100A30002068006840F040002168086005E02068F8
:100A4000006820F0400021680860A07E012806D1DF
:100A50002068006840F020002168086005E02068F8
:100A6000006820F0200021680860E07E012806D19F
:100A70002068006820F010002168086005E0206808
:100A8000006840F0100021680860207F012806D12E
:100A90002068006840F008002168086005E02068D0
:100AA000006820F0080021680860607F012806D1F6
:100AB0002068006840F004002168086005E02068B4
:100AC000006820F0040021680860D4E902010843AE
:100AD00021690843616908436168491E0843216828
:100AE000C86100206062012084F82000002049E7EE
:100AF00010B586B004460020029003900490059043
:100B00001F492068884239D100BF1E48C06940F0A3
:100B100000701C49C8610846C06900F0007001906F
:100B200000BF00BF00BF0846806940F00800886130
:100B30000846806900F00800019000BF00BF8815DA
:100B4000029000200390049002A90F4800F07AF967
:100B50004FF400700290022003900320059002A938
:100B6000094800F06FF900BF0849486820F4C04008
:100B700040F0E06040F48040486000BF06B010BD27
:100B80000064004000100240000C014000000140E1
:100B900070B50446002594F82100022803D00420F3
:100BA000A063012548E02068006820F00E0021685D
:100BB00008602068006820F00100216808601F4973
:100BC0002068884201D1012026E01C4914312068A8
:100BD000884201D110201FE018492831206888423E
:100BE00001D1801518E015493C312068884201D1B7
:100BF000801411E0114950312068884202D14FF42D
:100C0000803009E00D4964312068884202D14FF4F8
:100C1000801001E04FF080700849083948600120D9
:100C200084F8210000BF002084F8200000BF606B22
:100C300010B12046616B8847284670BD080002400D
:100C400070B50446E06B05682068066894F84010AB
:100C5000042088402840002846D006F004000028E0
:100C600042D02068006800F0200028B920680068A1
:100C700020F004002168086057492068884201D1AB
:100C8000042027E0544914312068884201D14020D3
:100C900020E0514928312068884201D1001519E02F
:100CA0004D493C312068884202D14FF4804011E028
:100CB000494950312068884202D14FF4802009E030
:100CC000454964312068884202D14FF4800001E038
:100CD0004FF08060404908394860E06A00287AD0C7
:100CE0002046E16A884776E094F840100220884068
:100CF0002840A0B306F0020088B32068006800F026
:100D0000200040B92068006820F00A0021680860CF
:100D1000012084F8210030492068884201D1022056
:100D200028E02D4914312068884201D1202021E09B
:100D3000294928312068884201D140151AE0264906
:100D40003C312068884202D14FF4005012E0224921
:100D500050312068884203D14FF400300AE017E098
:100D60001D4964312068884202D14FF4001001E02F
:100D70004FF0007018490839486000BF002084F81F
:100D8000200000BFA06A30B32046A16A884722E055
:100D900094F84010082088402840E0B106F0080090
:100DA000C8B12068006820F00E002168086094F83F
:100DB000401001208840E16B48600120A06384F866
:100DC000210000BF002084F8200000BF206B10B17C
:100DD0002046216B884770BD080002400146002272
:100DE00009B901207047164B0868C01A1423B0FBDC
:100DF000F3F08000086412480838C863022081F8C4
:100E000021000868026843F6F0708243D1E90103CB
:100E10001843CB6818430B6918434B6918438B6917
:100E20001843CB69184302430868026000208863B6
:100E3000012081F82100002081F8200000BFD1E7C7
:100E4000080002402DE9F8470346002294466EE16F
:100E50004FF0010808FA02F4D1F8008008EA040013
:100E6000A0427DD1DFF8DCA2D1F80480A8EB0A090A
:100E7000D0453AD014DCB8F1030F50D009DCB8F1FA
:100E8000000F31D0B8F1010F1CD0B8F1020F49D1D9
:100E900020E0B8F1110F18D0B8F1120F42D11EE0C6
:100EA000B9F5881F25D006DCB9F5803F20D0B9F50B
:100EB000801F37D11AE0B9F5001F18D0B9F5041F0B
:100EC00030D117E0D1F80CC02DE0D1F80C8008F13A
:100ED000040C28E0D1F80C8008F1080C23E0D1F8CC
:100EE0000C8008F10C0C1EE000BF00BF00BF00BF6B
:100EF00000BF00BFD1F80880B8F1000F02D14FF059
:100F0000040C0BE0D1F80880B8F1010F03D14FF0C9
:100F1000080C1C6102E04FF0080C5C6103E04FF02C
:100F2000000C00E000BF00BFFF2801D8984601E098
:100F300003F104084646FF2802D84FEA820803E07E
:100F4000A2F108084FEA88084746D6F800804FF01B
:100F50000F0909FA07F928EA09080CFA07F900E06D
:100F600088E048EA0908C6F80080D1F8048008F053
:100F70008058B8F1805F7DD100BFDFF8CC81D8F810
:100F8000188048F00108DFF8C091C9F81880C846F9
:100F9000D8F8188008F00108CDF8008000BF00BF25
:100FA0004FEAB9384FEA920958F829504FEA827847
:100FB0004FEA18794FF00F0808FA09F825EA0805F2
:100FC000DFF88881434502D14FF0000816E0DFF8D2
:100FD0008081434502D14FF001080FE0DFF87481B2
:100FE000434502D14FF0020808E0DFF86C81434529
:100FF00002D14FF0030801E04FF004084FEA827974
:101000004FEA197908FA09F848EA0505DFF84C8132
:101010004FEA920948F82950D1F8048008F4803842
:10102000B8F5803F0AD1DFF83881D8F8008048EA67
:101030000008DFF82C91C9F8008009E0DFF8208172
:10104000D8F8008028EA0008DFF81491C9F8008079
:10105000D1F8048008F40038B8F5003F10D1DFF86B
:10106000008108F10408D8F8008048EA0008DFF899
:10107000F09000E05AE009F10409C9F800800DE0A1
:10108000DFF8DC8008F10408D8F8008028EA0008BE
:10109000DFF8CC9009F10409C9F80080D1F8048088
:1010A00008F48018B8F5801F0ED1DFF8B48008F17D
:1010B0000808D8F8008048EA0008DFF8A49009F191
:1010C0000809C9F800800DE0DFF8948008F10808ED
:1010D000D8F8008028EA0008DFF8849009F10809B0
:1010E000C9F80080D1F8048008F40018B8F5001F92
:1010F0000ED1DFF86C8008F10C08D8F8008048EABF
:101100000008DFF85C9009F10C09C9F800800DE0D7
:10111000DFF84C8008F10C08D8F8008028EA0008B5
:10112000DFF83C9009F10C09C9F80080521CD1F895
:10113000008028FA02F8B8F1000F7FF489AEBDE80C
:10114000F887000000001110001002400008014064
:10115000000C014000100140001401400800014053
:10116000000401400AB1016101E00B040361704712
:1011700001480068704700002C0000200348006808
:101180000349097808440149086070472C00002091
:101190003400002010B50848006840F010000649EF
:1011A0000860032000F0A8F8002000F007F800F025
:1011B0002BF8002010BD00000020024070B504464E
:1011C0000E4800784FF47A71B1FBF0F00C490968D1
:1011D000B1FBF0F5284600F093FC08B1012070BD8A
:1011E000102C07D200222146501E00F047F8054877
:1011F000046001E00120F2E70020F0E73400002065
:10120000380000203000002008B500BF1148806978
:1012100040F001000F4988610846806900F0010034
:10122000009000BF00BF00BF0846C06940F080507A
:10123000C8610846C06900F08050009000BF00BF40
:1012400000BF0549486820F0E06040F00070486049
:1012500000BF08BD001002400000014001460846E2
:10126000002809DB00F01F0301229A4043099B007C
:1012700003F1E023C3F8002100BF70472DE9F05FC0
:1012800080460D461646002702F084F80746394688
:101290002A46334601F00700C0F1070ABAF1040FED
:1012A00002D94FF0040A01E0C0F1070AD14600F16B
:1012B000040ABAF1070F02D24FF0000A01E0A0F1D0
:1012C000030AD4464FF0010A0AFA09FAAAF1010A00
:1012D0000AEA020A0AFA0CFA4FF0010B0BFA0CFBAD
:1012E000ABF1010B0BEA030B4AEA0B042146404623
:1012F00002F058F8BDE8F09F00BF00F00702064B6F
:1013000019684FF6FF031940044B0B4343EA0221CF
:10131000014B196000BF70470CED00E00000FA05BA
:1013200070B504460D460CB9012070BD5A480068DE
:1013300000F00700A8420ED25748006820F00700CE
:101340002843554908600846006800F00700A84295
:1013500001D00120E9E7207800F0020002281DD129
:10136000207800F00400042805D14C48406840F47F
:10137000E0604A494860207800F00800082805D15C
:101380004648406840F460504449486043484068DB
:1013900020F0F000A168084340494860207800F040
:1013A000010078B36068012806D13C48006800F469
:1013B000003090B90120B8E76068022806D13748AC
:1013C000006800F0007040B90120AEE733480068C3
:1013D00000F0020008B90120A7E73048406820F07B
:1013E0000300616808432D494860FFF7C1FE0646C7
:1013F00009E0FFF7BDFE801B41F28831884202D927
:10140000032092E707E02548406800F00C0061687F
:10141000B0EB810FEDD12048006800F00700A84232
:101420000ED91D48006820F0070028431A490860BB
:101430000846006800F00700A84201D0012074E7C8
:10144000207800F00400042807D11448406820F4F4
:10145000E060E168084311494860207800F0080026
:10146000082808D10D48406820F46050216940EAFE
:10147000C1000A49486000F03FF808494968C1F3D3
:101480000311074A515CC8400649086006480068D5
:10149000FFF794FE002048E70020024000100240C1
:1014A000C0420008380000203000002001480068D9
:1014B000704700003800002000B5FFF7F7FF04492F
:1014C0004968C1F30221034A515CC84000BD0000D5
:1014D00000100240D042000800B5FFF7E7FF0449C2
:1014E0004968C1F3C221034A515CC84000BD0000F5
:1014F00000100240D0420008F0B585B00FF26C0C2D
:101500009CE8E01001A8A0E8E0101CA52D6800955B
:1015100000210022002300240020194D696801F0F9
:101520000C05F5B1042D02D0082D19D101E01548A4
:1015300019E001ADC1F38346AC5D01F4803555B1CE
:101540000F4D6D68C5F340451DF805200D4D6543F1
:10155000B5FBF2F302E00C4D04FB05F3184602E084
:1015600000BF084800BF00BF05B0F0BD020304057E
:10157000060708090A0B0C0D0E0F101001020000DF
:101580000010024000127A0000093D00F8B5044640
:101590000CB90120F8BD207800F00100002878D0B7
:1015A000F848406800F00C0004280CD0F54840686A
:1015B00000F00C00082811D1F248406800F4803097
:1015C000B0F5803F0AD1EF48006800F400300028F1
:1015D0005FD0606800285CD10120DBE700BF606855
:1015E000B0F5803F06D1E748006840F48030E54917
:1015F000086028E0606858B9E248006820F480304C
:10160000E04908600846006820F4802008601AE07D
:101610006068B0F5A02F0BD1DA48006840F4802054
:10162000D84908600846006840F4803008600AE045
:10163000D448006820F48030D24908600846006829
:1016400020F48020086000BF606888B1FFF790FD3B
:10165000054606E0FFF78CFD401B642801D90320F6
:1016600098E7C848006800F400300028F2D010E085
:10167000FFF77EFD054606E0FFF77AFD401B642874
:1016800001D9032086E7BF48006800F40030002835
:10169000F2D1207800F00200022857D1B948406802
:1016A00000F00C0050B1B748406800F00C0008286A
:1016B00018D1B448406800F4803098B9B148006847
:1016C00000F0020020B12069012801D0012061E76B
:1016D000AC48006820F0F800616940EAC100A949FF
:1016E000086033E02069E8B10120A7490860FFF7EE
:1016F0003FFD054606E0FFF73BFD401B022801D9F0
:10170000032047E79F48006800F002000028F2D05D
:101710009C48006820F0F800616940EAC1009949DE
:10172000086013E0002098490860FFF721FD054696
:1017300006E0FFF71DFD401B022801D9032029E721
:101740009048006800F002000028F2D1207800F0F4
:10175000080008282DD1A069B8B101208B49086084
:10176000FFF706FD054606E0FFF702FD401B0228D5
:1017700001D903200EE78348406A00F002000028E8
:10178000F2D0012001F07AF913E000207F490860CF
:10179000FFF7EEFC054606E0FFF7EAFC401B0228D7
:1017A00001D90320F6E67748406A00F002000028DD
:1017B000F2D1207800F00400042873D1002771488A
:1017C000C06900F0805070B900BF6E48C06940F039
:1017D00080506C49C8610846C06900F08050009094
:1017E00000BF00BF01276A48006800F48070B0B9EC
:1017F0006748006840F4807065490860FFF7B8FCEE
:10180000054606E0FFF7B4FC401B642801D903201D
:10181000C0E65F48006800F480700028F2D000BF86
:10182000E068012806D15748006A40F00100554998
:10183000086227E0E06858B95248006A20F00100C9
:10184000504908620846006A20F00400086219E066
:10185000E06805280BD14B48006A40F00400494974
:1018600008620846006A40F0010008620AE0454844
:10187000006A20F00100434908620846006A20F02F
:101880000400086200BFE068A0B1FFF771FC0546E4
:1018900009E0FFF76DFC401B41F28831884202D914
:1018A000032077E622E03748006A00F002000028B3
:1018B000EFD012E0FFF75CFC054608E0FFF758FCAC
:1018C000401B41F28831884201D9032062E62D484D
:1018D000006A00F002000028F0D1012F05D129484C
:1018E000C06920F080502749C86100BFE069C8B3D3
:1018F0002448406800F00C00082860D0E069022805
:1019000048D1002020490866FFF732FC054606E072
:10191000FFF72EFC401B022801D903203AE61948A4
:10192000006800F000700028F2D1206AB0F5803F16
:1019300007D11448406820F40030A16808431149D9
:101940004860D4E9080108430E49496821F474113C
:1019500008430C49486001200B490866FFF708FC62
:10196000054607E03DE0FFF703FC401B022801D9D4
:1019700003200FE60348006800F000700028F2D052
:101980002FE000000010024000004242800442426A
:1019900000700040002014490866FFF7E9FB054687
:1019A00006E0FFF7E5FB401B022801D90320F1E523
:1019B0000E48006800F000700028F2D111E0E069E4
:1019C000012800D1E6E50948466806F48031206A1E
:1019D000814204D106F47011606A814201D0012075
:1019E000D8E50020D6E50000000042420010024089
:1019F00010B504460CB9012010BD606A00B900BFE3
:101A00000021A16294F8510028B9002084F8500008
:101A1000204600F031F8022084F851002068006868
:101A200020F0400021680860D4E901010843E16822
:101A300008432169084361690843218B01F400715F
:101A40000843E1690843216A0843A16A0843216801
:101A500008600421A06901EA1040216848602068FC
:101A6000C06920F400602168C86100206065012021
:101A700084F851000020BFE710B586B0044600206E
:101A800002900390049005901A49206888422FD153
:101A900000BF1948C06940F480401749C861084632
:101AA000C06900F48040019000BF00BF00BF08463D
:101AB000806940F0080088610846806900F00800ED
:101AC000019000BF00BF4FF420400290002003901F
:101AD000049002A90948FFF7B5F94FF4804002903D
:101AE000022003900320059002A90448FFF7AAF9F9
:101AF00006B010BD0038004000100240000C01404C
:101B000070B504462546681EB0F1807F01D30120E0
:101B10000FE0681E4FF0E02148610F214FF0FF30C9
:101B200001F040FC00204FF0E021886107200861AF
:101B3000002070BD7047704710B50346002200BFFB
:101B400093F83C00012801D1022010BD012083F848
:101B50003C0000BF22F0FF00CC6840EA040222F4FF
:101B600040708C6840EA040222F480604C6840EACD
:101B7000040222F400600C6840EA040222F480505F
:101B80000C6940EA040222F400504C6940EA040265
:101B900022F48040CC6940EA04021868426400BF25
:101BA000002083F83C0000BF00BFCEE710B502461E
:101BB00000BF92F83C00012801D1022010BD012095
:101BC00082F83C0000BF022082F83D0010684368A4
:101BD0001068846823F070030868034324F08004CD
:101BE000486804431068436010688460012082F8EC
:101BF0003D0000BF002082F83C0000BF00BFDDE7D1
:101C000001460868C06840F001000B68D8600868A9
:101C1000806800F00702062A05D00868006840F0D6
:101C200001000B681860002070472DE9F041044660
:101C30000D4614B90120BDE8F08194F83D0028B9A3
:101C4000002084F83C00204600F044F8022084F88C
:101C50003D002068806844F207018843216888605D
:101C6000211D206800F0B8FF2068D0F808802068A7
:101C700086692068076A286840EA080840F203304D
:101C80008643A969A86840EA0120064340F60C4053
:101C900086434FF2F0008643E969E86840EA012094
:101CA000064328690001296A40EA0130064327F00B
:101CB00022076969686840EA011007432068C0F894
:101CC00008802068866120680762012084F83D0052
:101CD0000020B0E710B586B00446002002900390C3
:101CE0000490059036492068884237D100BF3548B6
:101CF000C06940F002003349C8610846C06900F07D
:101D00000200019000BF00BF00BF0846806940F09C
:101D1000080088610846806900F00800019000BF53
:101D200000BF3020029000200390049002A92648B2
:101D3000FFF788F800BF2549486820F4406040F06C
:101D4000E06040F40060486000BF002202211D20D6
:101D5000FFF794FA1D20FFF781FA2FE01C49206855
:101D600088422BD100BF1748C06940F004001549D4
:101D7000C8610846C06900F00400019000BF00BFC0
:101D800000BF0846806940F0080088610846806905
:101D900000F00800019000BF00BFC02002900020AA
:101DA0000390049002A90848FFF74CF80022022192
:101DB0001E20FFF763FA1E20FFF750FA06B010BD91
:101DC0000004004000100240000C014000000140EF
:101DD0000008004030B504460D4615B1042D0CD165
:101DE00005E001220021206800F030FF10E0012210
:101DF0000421206800F02AFF0AE001220021206867
:101E000000F024FF01220421206800F01FFF00BF22
:101E100000BF2068006840F00100216808600020D1
:101E200030BD704710B5044620680069C0F340001B
:101E3000D8B12068C068C0F34000B0B16FF00200B4
:101E400021680861012020772068806900F0030084
:101E500018B12046FFF7E5FF05E0204600F0F6F850
:101E6000204600F0C7F90020207720680069C0F301
:101E70008000D8B12068C068C0F38000B0B16FF0B6
:101E8000040021680861022020772068806900F43E
:101E9000407018B12046FFF7C4FF05E0204600F06F
:101EA000D5F8204600F0A6F90020207720680069C8
:101EB000C0F3C000D8B12068C068C0F3C000B0B1A2
:101EC0006FF0080021680861042020772068C0694D
:101ED00000F0030018B12046FFF7A3FF05E02046FD
:101EE00000F0B4F8204600F085F900202077206843
:101EF0000069C0F30010D8B12068C068C0F30010BA
:101F0000B0B16FF0100021680861082020772068C8
:101F1000C06900F4407018B12046FFF782FF05E069
:101F2000204600F093F8204600F064F90020207766
:101F30002068006900F0010058B12068C06800F016
:101F4000010030B16FF0010021680861204600F007
:101F500079F920680069C0F3C01058B12068C068E2
:101F6000C0F3C01030B16FF08000216808612046D6
:101F7000FFF7E0FD20680069C0F3801058B12068C9
:101F8000C068C0F3801030B16FF040002168086174
:101F9000204600F058F920680069C0F3401058B19D
:101FA0002068C068C0F3401030B16FF02000216895
:101FB00008612046FFF7BFFD10BD000010B586B0D8
:101FC0000446002002900390049005901C4920686C
:101FD000884218D100BF1B48806940F004001949AD
:101FE00088610846806900F00400019000BF00BFCE
:101FF0004FF47060029002200390059002A91248ED
:10200000FEF720FF1AE02068B0F1804F16D100BF24
:102010000C48806940F004000A49886108468069DC
:1020200000F00400019000BF00BF032002900220D6
:102030000390059002A90448FEF704FF06B010BD06
:10204000002C01400010024000080140704770B5AC
:1020500004460D46164600BF94F83C00012801D105
:10206000022070BD012084F83C0000BF022084F8EB
:102070003D0036B1042E1BD0082E31D00C2E5ED17F
:1020800045E02946206800F0F3FD2068806940F0B3
:102090000800216888612068806920F004002168B8
:1020A000886120688069296908432168886147E060
:1020B0002946206800F00CFE2068806940F400602A
:1020C000216888612068806920F4806021688861C7
:1020D00020688069296940EA0120216888612FE031
:1020E0002946206800F028FE2068C06940F00800FA
:1020F0002168C8612068C06920F004002168C861B7
:102100002068C069296908432168C86118E0294628
:10211000206800F045FE2068C06940F40060216836
:10212000C8612068C06920F480602168C8612068A7
:10213000C069296940EA01202168C86100E000BF48
:1021400000BF012084F83D0000BF002084F83C005F
:1021500000BF00BF85E710B504460CB9012010BDD3
:1021600094F83D0028B9002084F83C00204600F097
:102170000DF8022084F83D00211D206800F02CFDA0
:10218000012084F83D000020E9E7000038B504464E
:1021900016492068884216D100BF1548806940F46E
:1021A0000060134988610846806900F4006000906F
:1021B00000BF00BF002201211920FFF75FF819209E
:1021C000FFF74CF811E02068B0F1804F0DD100BF4F
:1021D0000748C06940F001000549C8610846C06968
:1021E00000F00100009000BF00BF38BD002C01408E
:1021F000001002407047000070B504460E460122F0
:102200003146206800F022FD0D492068884201D146
:10221000012000E0002028B12068406C40F400401C
:10222000216848642068806800F00705062D05D005
:102230002068006840F0010021680860002070BD3F
:10224000002C014070477047704700002DE9F047AF
:102250000446206805682068C668206847694FF012
:102260000008C14605F00F08B8F1000F0AD105F0CB
:10227000200038B106F0200020B1204600F0DEFD3D
:10228000BDE8F087B8F1000F6DD007F0010018B974
:1022900006F49070002866D005F0010030B106F415
:1022A000807018B1E06B40F00100E06305F00400BD
:1022B00030B107F0010018B1E06B40F00200E063BC
:1022C00005F0020030B107F0010018B1E06B40F0FA
:1022D0000400E06305F0080030B107F0010018B118
:1022E000E06B40F00800E063E06B68B305F02000AD
:1022F00028B106F0200010B1204600F09FFD2068B4
:102300004069C0F38019E06B00F0080010B9B9F122
:10231000000F22D0204600F071FD2068406900F0D7
:102320004000B0B12068406920F040002168486159
:10233000606B50B11748616B4863606BFEF728FC17
:1023400010B1606B416B88470CE02046FFF77CFFC3
:1023500008E02046FFF778FF04E02046FFF774FF0F
:102360000020E0638CE705F0800030B106F08000CB
:1023700018B1204600F086FE82E705F0400030B13B
:1023800006F0400018B1204600F048FD78E700BF95
:1023900076E70000E92D000810B504460CB90120CD
:1023A00010BDA06900B100E000BF94F8390028B961
:1023B000002084F83800204600F028F8242084F813
:1023C00039002068C06820F400502168C8602046A9
:1023D00000F088FD2068006920F4904021680861C1
:1023E0002068406920F02A00216848612068C068A0
:1023F00040F400502168C8600020E063202084F889
:10240000390084F83A000020CAE7000010B586B011
:1024100004460020029003900490059055492068DE
:10242000884236D100BF5448C06940F40030524958
:10243000C8610846C06900F40030019000BF00BFC9
:1024400000BF0846806940F0040088610846806942
:1024500000F00400019000BF00BF042002900220A1
:1024600003900320059002A94448FEF7EBFC0820E6
:10247000029000200390049002A94048FEF7E2FC7D
:10248000002211462620FEF7F9FE2620FEF7E6FE82
:102490006DE03B492068884269D100BF3648C06979
:1024A00040F480203449C8610846C06900F48020A7
:1024B000019000BF00BF00BF0846806940F00800DF
:1024C00088610846806900F00800019000BF00BFE5
:1024D00008150290022003900320059002A92948C4
:1024E000FEF7B0FC4FF400600290002003900490CF
:1024F00002A92448FEF7A6FC2348244908600020CE
:1025000048600021214881608021C1600021016173
:1025100041618161C161FEF761FC08B1FEF714FA07
:1025200000BF1A486063446200BF17481438184956
:102530000860102048600021154881608021C1603A
:102540000021016141618161C161FEF747FC08B171
:10255000FEF7FAF900BF0E482063446200BF002274
:1025600011462720FEF78AFE2720FEF777FE06B0E9
:1025700010BD00000044004000100240000801406F
:1025800000480040000C014030000240D80200200A
:102590001C0300207047704701200849086008A00C
:1025A00000F0E8FE00200A490860091D0860091DC6
:1025B0000860091D086000BFFEE700008481214219
:1025C0005B48415244204552525D0D0A0000000014
:1025D000342C014010B50B480B49086010204860AE
:1025E000002109488160C160016141610176417645
:1025F0008176C17601774177FEF7C0F908B1FEF721
:10260000A3F910BD00640040D800002008B500BF49
:102610000E48406940F001000C4948610846406995
:1026200000F00100009000BF00BF002211460C2006
:10263000FEF724FE0C20FEF711FE002211460D20AD
:10264000FEF71CFE0D20FEF709FE08BD001002403B
:1026500000B585B00020019002900390049000BF67
:102660003A48806940F0100038498861084680691E
:1026700000F01000009000BF00BF00BF0846806956
:1026800040F0200088610846806900F0200000903A
:1026900000BF00BF00BF0846806940F004008861A9
:1026A0000846806900F00400009000BF00BF00BF32
:1026B0000846806940F0080088610846806900F09B
:1026C0000800009000BF00BF00224FF4C041204826
:1026D000FEF748FD0022F0211E48FEF743FD0022D0
:1026E00007211D48FEF73EFD4FF4C0400190012038
:1026F0000290002003900220049001A91448FEF7E4
:10270000A1FBF02001900120029000200390022004
:10271000049001A90F48FEF795FB072001900120C6
:102720000290002003900220049001A90A48FEF7BD
:1027300089FB4FF4805001900848029000200390DC
:1027400001A90548FEF77EFB05B000BD0010024060
:102750000010014000080140000C01400000111071
:1027600010B50D480D4908600020486000210B4855
:102770008160C160016141614FF40071816100219C
:10278000C1610162416281620A21C162FFF730F9D1
:1027900008B1FEF7D9F810BD003800400001002054
:1027A00000B591B000200F9010901C2108A8FDF7F3
:1027B000D0FC20216846FDF7CCFC2F482F4908604B
:1027C0000020486000212D48816040F2CF71C16037
:1027D00000210161416180218161FFF7BCFC08B1EA
:1027E000FEF7B2F800200F9010900FA92348FFF7D2
:1027F000DDF908B1FEF7A8F86020089000200990E4
:102800000A900B900C900D900E90002208A91B4886
:10281000FFF71DFC08B1FEF797F8042208A9174836
:10282000FFF715FC08B1FEF78FF8082208A9134836
:10283000FFF70DFC08B1FEF787F80C2208A90F4836
:10284000FFF705FC08B1FEF77FF80020009001902B
:102850000290039004904FF40050059000200790E0
:1028600069460648FFF768F908B1FEF76DF80348B6
:10287000FFF7A4FB11B000BD002C0140580100205F
:1028800000B589B00020079008901C216846FDF72C
:1028900060FC4FF080401C49086040F2CF20486047
:1028A00000211948816040F2CF71C16000210161AF
:1028B0008161FFF750FC08B1FEF746F80020079051
:1028C000089007A91048FFF771F908B1FEF73CF826
:1028D0006020009096200190002002900490002239
:1028E00069460948FFF7B3FB08B1FEF72DF804224B
:1028F00069460548FFF7ABFB08B1FEF725F802482B
:10290000FFF75CFB09B000BD9801002000B58BB05B
:10291000242102A8FDF71DFC00200090019017481B
:102920001749086000204860002115488160F321A4
:10293000C1600021016181610320029000200390A9
:102940000120049000200590069007900120089037
:10295000002009900A9002A90948FFF766F908B11A
:10296000FDF7F2FF00200090019069460448FFF750
:102970001DF908B1FDF7E8FF0BB000BD00040040F1
:10298000D801002000B58BB0242102A8FDF7E1FB9F
:102990000020009001901748174908600320486004
:1029A0000021154881607921C160002101618161A8
:1029B0000320029000200390012004900020059045
:1029C0000690079001200890002009900A9002A923
:1029D0000948FFF72AF908B1FDF7B6FF002000907B
:1029E000019069460448FFF7E1F808B1FDF7ACFF34
:1029F0000BB000BD000800401802002010B50C48C4
:102A00000C4908600C4848604FF4805109488160C7
:102A10004900C160C91001610C214161002181613F
:102A2000C161FFF7B9FC08B1FDF78EFF10BD0000D2
:102A30000044004058020020A086010010B50B4859
:102A40000B4908604FF4E13048600021084881607C
:102A5000C16001610C21416100218161C161FFF709
:102A60009BFC08B1FDF770FF10BD0000004800405E
:102A70009802002000BFFEE77047704708B508497C
:102A80000968C9084FF47A72B1FBF2F14143009131
:102A900000BF00BF00994A1E00920029F9D108BD6D
:102AA00038000020704710B5FEF768FB10BD00B578
:102AB0008FB0282105A8FDF74CFB14216846FDF7CF
:102AC00048FB01200590000406900020079001209B
:102AD000099002200C90C1030D914FF4E0110E916A
:102AE00005A8FEF753FD08B1FDF72EFF0F2000905B
:102AF00002200190002002904FF48060039000209B
:102B0000049002216846FEF70BFC08B1FDF71CFF9C
:102B10000FB000BD1148006840F001000F49086087
:102B2000084640680E4908400C494860084600685D
:102B30000C490840094908600846006820F48020D4
:102B400008600846406820F4FE0048604FF41F000B
:102B50008860C80304490860704700000010024004
:102B60000000FFF8FFFFF6FE08ED00E010B50A4890
:102B700001880088401C084A1080242903D10020C5
:102B80001146088000E010BD01F0E6F80348FFF7A9
:102B900049F900BFF7E70000280000205801002095
:102BA00010B501F05BFA0020024908600248FFF707
:102BB00039F910BD10040040D801002010B501F013
:102BC00073FA7920024908600248FFF72BF910BD1B
:102BD000240800401802002010B50268184B9842E3
:102BE00008D0B0F1804F05D0164B984202D0164B5A
:102BF000984203D122F070024B681A43104B98425E
:102C000008D0B0F1804F05D00E4B984202D00E4B49
:102C1000984203D122F44072CB681A4322F0800319
:102C20004C6943EA040202608B68C3620B688362EA
:102C3000034B984201D10B6903630123436110BD2B
:102C4000002C0140000400400008004030B501F0B5
:102C50001F05012404FA05F3046A9C430462046A14
:102C600001F01F0502FA05F52C43046230BD000097
:102C700030B5056A25F001050562026A436884697A
:102C800024F0700424F003040D682C4322F00202A7
:102C90008D682A430D4DA84206D100BF22F00802DC
:102CA000CD682A4322F00402084DA84207D123F43C
:102CB000807323F400734D692B438D692B4343606C
:102CC00084614D684563026230BD0000002C014004
:102CD00030B5056A25F010050562026A436884690B
:102CE00024F4E04424F440740D6844EA052422F0FE
:102CF00020028D6842EA05120E4DA84207D100BF9E
:102D000022F08002CD6842EA051222F04002094D0D
:102D1000A84209D123F4806323F400634D6943EA98
:102D200085038D6943EA8503436084614D6885634B
:102D3000026230BD002C014030B5056A25F4807573
:102D40000562026A4368C46924F0700424F0030435
:102D50000D682C4322F400728D6842EA05220F4D63
:102D6000A84207D100BF22F40062CD6842EA0522E2
:102D700022F48062094DA84209D123F4805323F440
:102D800000534D6943EA05138D6943EA0513436017
:102D9000C4614D68C563026230BD0000002C014073
:102DA00030B5056A25F480550562036A4468C26936
:102DB00022F4E04222F440720D6842EA052223F434
:102DC00000538D6843EA0533064DA84204D124F42C
:102DD00080444D6944EA85144460C2614D680564CD
:102DE000036230BD002C014070B505466C6A0020BE
:102DF000E085E0842046FFF727FA70BD0168C968C6
:102E000021F490710268D1600168496921F00101E3
:102E100002685161202180F83A10704710B50446CD
:102E20002068C06820F040002168C860202084F835
:102E300039002046FFF7AFFB002010BD70B50446F7
:102E400094F83A0022284AD1A068B0F5805F13D1E7
:102E5000A56A206940B920684068C0F3080028804E
:102E6000A06A801CA06219E020684068C0B2288077
:102E7000A06A401CA06211E0206938B9206840684F
:102E8000C1B2A26A501CA062117007E020684068BD
:102E900000F07F01A26A501CA0621170E08D401EFC
:102EA00080B2E085C8B92068C06820F020002168A1
:102EB000C8602068C06820F480702168C8602068FD
:102EC000406920F0010021684861202084F83A0020
:102ED0002046FFF75FFB002070BD0020FCE70220CA
:102EE000FAE7000070B504462168096921F44051F1
:102EF000E2681143226811612269A1681143626985
:102F000041EA02052168C96841F20C6291432943F4
:102F10002268D1602168496921F44071A269114396
:102F200022685161564A2168914254D1FEF7D4FA81
:102F300000EBC00101EB001162689200B1FBF2F1FD
:102F400000EBC00202EB001263689B00B2FBF3F2DD
:102F50006423B2FBF3F202EBC20303EB0212A1EB18
:102F60008201322202EB01116422B1FBF2F101F085
:102F7000F00100EBC00202EB001263689B00B2FBA1
:102F8000F3F26423B2FBF3F201EB021200EBC00197
:102F900001EB001163689B00B1FBF3F100EBC00390
:102FA00003EB00136668B600B3FBF6F36426B3FBCD
:102FB000F6F303EBC30606EB0313A1EB8301322305
:102FC00003EB01116423B1FBF3F101F00F01114494
:102FD0002268916053E0FEF76FFA00EBC00101EB4D
:102FE000001162689200B1FBF2F100EBC00202EB4B
:102FF000001263689B00B2FBF3F26423B2FBF3F2AE
:1030000002EBC20303EB0212A1EB8201322202EBBC
:1030100001116422B1FBF2F101F0F00100EBC002FA
:1030200002EB001263689B00B2FBF3F26423B2FB75
:10303000F3F201EB021200EBC00101EB0011636837
:103040009B00B1FBF3F100EBC00303EB00136668D8
:10305000B600B3FBF6F36426B3FBF6F303EBC3064B
:1030600006EB0313A1EB8301322303EB011164236D
:10307000B1FBF3F101F00F0111442268916070BDC2
:1030800000380140014691F8390021282CD1886888
:10309000B0F5805F0FD10A6A1088C0F308000B6892
:1030A0005860086918B9086A801C086209E0086A53
:1030B000401C086205E00B6A581C086218780B680F
:1030C0005860C88C401E80B2C88458B90868C0686F
:1030D00020F080000B68D8600868C06840F04000AD
:1030E0000B68D860002070470220FCE710B57B48D1
:1030F000006800F0200000B910BD7848001D00688D
:10310000C4B27748417E407E401C754A50761046D6
:103110004454407E19287DD1104600780F287AD17A
:103120001046807D8028FAD16E48006808B90120D9
:1031300000E000206B490860002069494876084695
:10314000C07D00F0300018B1002066490860D3E768
:10315000634840786249897801F0070140EA01201C
:103160005F4948830846C0788006400D897840EA68
:10317000E1005B49888308464079C007400D097922
:1031800040EA81005649C97840EAA1105449C883F1
:10319000084680790007400D497940EA61005049AE
:1031A00008840846C0794006400D897940EA21101C
:1031B0004B4948840846407A8007400D097A40EA26
:1031C00041004749C97940EAE110454988840846E9
:1031D000807AC006400D497A40EAA1004049C8847F
:1031E0000846C07AC000897A40EA61103C490885E7
:1031F0000846007B497B01F0070140EA012038497D
:1032000048850846807B8006400D497B40EAE10006
:10321000334901E04CE03EE088850846007CC00769
:10322000400DC97B40EA81002D49897B40EAA1100D
:103230002B49C8850846407C0007400D097C40EAC0
:103240006100274908860846807C4006400D497C7D
:1032500040EA2110224948860846007D8007400D3B
:10326000C97C40EA41001E49897C40EAE1101C49C2
:1032700088860846407DC006400D097D40EAA100D1
:103280001749C8860846807DC000497D40EA611123
:10329000134801870CE0002405E01149601C085C1C
:1032A0000855601CC4B2182CF7DB18200C4948766E
:1032B0000D48FEF7CBFF0C480068406940F0010064
:1032C00009490968486108480068C06840F0200062
:1032D00005490968C86000BF0EE7000000440040CF
:1032E0003C000020808121425802002010B51B487C
:1032F000006800F02000E8B11848001D0068C4B262
:10330000174801780078401C154A1070154844543D
:103310000D2C02D1012014490870114800781E2894
:1033200008D10020104908700D4908701E210D4871
:10333000FCF70FFF0D48FEF789FF0C480068406955
:1033400040F0010009490968486108480068C06800
:1033500040F0200005490968C86010BD00480040E1
:1033600000000020B800002001000020980200208A
:1033700000BFFEE70FB4054B10B503A9044A02983D
:1033800000F0F6F810BC5DF814FB0000F1400008F6
:103390000400002002480068C0F3022070470000CB
:1033A0000CED00E010B5002804DB0A07130E054AF7
:1033B000135406E00A07140E034A00F00F031B1F04
:1033C000D45410BD00E400E018ED00E002E008C8AD
:1033D000121F08C1002AFAD170477047002001E08F
:1033E00001C1121F002AFBD1704700002DE9FF5FC9
:1033F00082B00021DDE90430020DDDF840B0034366
:1034000018D044F61050A2F2FF324243151411981E
:1034100001281FD0A5EB0B00401C5FEA000A4FF00B
:1034200000064E4FDFF83891B046504615D5CAF128
:10343000000413E0119801244AA3012801D16FEA86
:103440000B010298119AC0E90031C0E9024206B0AE
:10345000BDE8F09FCBF10000DFE704460021404AC1
:10346000491842EB0450CDE9001012E0E00707D004
:1034700032463B4640464946FDF7B1F8804689460C
:1034800032463B4610461946FDF7A9F806460F4658
:103490006410002CEAD1DDE90401DDE90023BAF172
:1034A000000F06DAFDF79BF842464B46FDF797F80A
:1034B00005E0FDF706F942464B46FDF702F90446E2
:1034C0000E460022284BFDF783F903D84FF0FF305A
:1034D000014607E00022254B20463146FCF7D8FF85
:1034E000FDF75EF9102409E0002C0ADB0A22002314
:1034F000FCF766FF039B30321A55641E50EA010246
:10350000F2D1641C039AC4F111031444119A012AE4
:1035100003D0012208430DD10AE0084304D0002063
:103520004FF0110B119072E7A3EB0B056D1E0DE030
:103530005B4504DD4FF0000205F1010504E003DA0C
:103540004FF00002A5F10105002AECD00298119974
:10355000C0E90231C0E9004579E7000000001440ED
:103560000000F03F300000000000F0430000E03FAA
:103570002DE9FF4F95B09B468946064600250FE290
:10358000252877D100242746F84A0121059400E038
:10359000044316F8013F203B01FA03F01042F7D133
:1035A00030782A2811D06FF02F033078A0F1300244
:1035B000092A16D8059A44F0020402EB820203EBB2
:1035C00042021044761C0590EFE759F8042B05924F
:1035D000002A03DA504244F40054059044F00204F7
:1035E000761C30782E2816D116F8010F44F004040A
:1035F0002A280DD06FF02F023078A0F13003092B6C
:1036000009D807EB870302EB4303C718761CF3E7DF
:1036100059F8047B761C30786C280FD006DC4C28D7
:1036200017D068280DD06A2814D104E0742810D06F
:103630007A280FD10DE044F400140AE044F4801419
:1036400001E044F440147278824202D104F58014FF
:10365000761C761C307866280BD013DC582877D07F
:1036600009DC002875D04528F6D04628F4D0472834
:103670001AD19DE118E0632835D0642879D06528F7
:1036800012D195E1702873D008DC6728F1D0692841
:103690006FD06E280DD06F2806D1B5E073282CD0DE
:1036A000752875D0782874D05A46179990476D1CA4
:1036B00075E1C4F30250022809D003280DD0D9F8CF
:1036C000001004280DD00D6009F1040967E1D9F854
:1036D0000010EA17C1E90052F6E7D9F800100D8092
:1036E000F2E70D70F0E719F8041B8DF800100020C8
:1036F0008DF80100EA46012003E059F804AB4FF0D1
:10370000FF3061074FF0000102D40DE008F1010124
:103710008846B9420FDA8045F8DB1AF8081000290C
:10372000F4D108E008F1010188468142FADB1AF879
:1037300008100029F6D105985B46A0EB0807214642
:103740003846179A00F094FA284400EB080507E081
:103750004DE029E10DE01AF8010B5A461799904700
:10376000B8F10108F7D25B4621463846179A13E1B3
:1037700042E00A220092C4F302524FF0000A022AE9
:1037800008D059F804CB032A4FEAEC710AD00DE0B7
:1037900029E02AE009F1070121F00702F2E802C15D
:1037A000914609E00FFA8CFC4FEAEC71042A03D130
:1037B0004FFA8CFC4FEAEC71002907DA0A46002127
:1037C000DCF1000C61EB02012D2202E0220504D5A0
:1037D0002B228DF80420012203E0E20701D02022F1
:1037E000F7E7904659E00A2102E010220DE010218F
:1037F0004FF0000A00910BE010224FF0000A44F055
:1038000004040827009203E008224FF0000A009207
:10381000C4F30252022A05D059F804CB0021032A2E
:1038200008D009E009F1070121F00702F2E802C11E
:10383000914605E01FFA8CFC042A01D10CF0FF0C24
:103840004FF00008220728D5702806D0009B83F08F
:10385000100353EA0A0305D00EE040228DF804203D
:10386000012208E05CEA010206D030228DF8042033
:103870008DF8050002229046009B83F0080353EA6E
:103880000A030AD15CEA010201D1620705D53022A0
:103890008DF804204FF001087F1E582804D034A072
:1038A00003900EA802900DE036A0F9E7534660465B
:1038B000009AFCF785FD84460398825C0298401EBE
:1038C000029002705CEA0100F0D1029806A9081A81
:1038D00000F1200A600702D524F4803400E00127BB
:1038E000574502DDA7EB0A0000E0002000EB0A01CB
:1038F000009005984144401A0590E00306D45B46C9
:103900002146179A059800F0B3F90544002706E010
:1039100001A85A46C05D179990476D1C7F1C47450A
:10392000F6DBE0030CD55B462146179A059800F0BC
:103930009FF9054404E030205A46179990476D1CC2
:103940000099481E00900029F5DC08E002980299D1
:103950005A460078491C0291179990476D1CBAF19C
:103960000001AAF1010AF1DC65E10000092801006B
:1039700030313233343536373839616263646566E5
:1039800000000000303132333435363738394142A7
:10399000434445460000000000F058F90544761CF9
:1039A000307800287FF4ECAD19B02846BDE8F08FE0
:1039B000620700D4062709F1070222F0070CFCE891
:1039C0000223E14603F000485FEA080C02D00FF240
:1039D000702C0DE05FEA045C02D50FF2682C07E062
:1039E0005FEAC47C02D00FF2602C01E0AFF2700CF1
:1039F0004FF0FF3823F00043CDF850C065280CD0BD
:103A000006DC452809D046281DD047283DD13DE099
:103A1000662818D067287ED138E00021112F01DBFD
:103A2000112000E0781CCDE9000106A90EA8FFF7DF
:103A3000DDFCDDE90F010E9A03910021009207F1F0
:103A4000010A04914DE04FF000400097CDE90110CC
:103A500006A90EA8FFF7CAFCDDE90F0203920E9B30
:103A600011990022DDF80CA00093049211B9791C81
:103A700000EB010AB7EB0A0004D4C0F1FF3007F1F4
:103A8000010A0490AAEB0700019044E0012F00DA3C
:103A900001270021112F01DD112000E03846CDE97A
:103AA000000106A90EA8FFF7A1FCDDE90F010E9A9F
:103AB0000391002104910092BA4621070CD4039986
:103AC000514500DA8A46BAF1010F05DD009AAAF1E4
:103AD0000101515C302908D0B84202DA10F1040F1C
:103AE00006DA0121CDE9011015E0AAF10101E9E7AB
:103AF000002805DC049901440491AAEB000102E0CE
:103B0000411C514500DD8A460499401A401C019031
:103B10004FF000400290200704D40198504501DB8B
:103B2000CDF8048000208DF84F0002980DF14F076A
:103B3000B0F1004F25D02B200E9002984FF00208D4
:103B400000280CDA404202902D200E9007E00A2156
:103B50000298FCF71FFC3031029007F8011DB8F104
:103B60000001A8F10108F2DC02980028EFD1791ECB
:103B70000E980870307800F0200040F0450007F8FB
:103B8000020D12A8C01B00F107081498007800B1BC
:103B9000012000EB0A01019801EBE0710598414416
:103BA000401A401E0590E00306D45B462146179A52
:103BB000059800F05DF805441498007818B15A464D
:103BC000179990476D1CE00324D55B462146179A50
:103BD000059800F04DF805441CE00498002807DB28
:103BE000DDE90301884203DD0098405C179901E09C
:103BF000179930205A469047049805F10105401C5A
:103C000004900198401E019004D12E205A46179925
:103C100090476D1CBAF10001AAF1010ADDDC05E054
:103C200017F8010B5A46179990476D1CB8F100011F
:103C3000A8F10108F4DC5B462146179A0598ABE62B
:103C40002D0000002B000000200000002DE9F041B5
:103C5000044600251E461746880404D405E039466C
:103C60002020B0476D1C641EF9D52846BDE8F081C0
:103C70002DE9F041044600251E469046C80301D5B3
:103C8000302700E02027880404D505E04146384667
:103C9000B0476D1C641EF9D52846BDE8F0810000D0
:103CA0002DE9F04105460C4624492846FCF7F3FA75
:103CB000064623492046FCF7EEFA07464FF07E51B0
:103CC0003046FCF75DFB01D24FF07E561D49304671
:103CD000FCF74CFB00D21B4E4FF07E513846FCF7F0
:103CE0004FFB01D24FF07E5700213846FCF73EFBD8
:103CF00000D2002714493046FCF79BFA06461349C8
:103D00003046FCF73EFA064611493846FCF791FA70
:103D1000074610493846FCF734FA07463046FCF7A8
:103D2000FDFA80B24FF0804148633846FCF7F6FA5E
:103D300080B24FF080418863BDE8F08100003443D9
:103D40000000B442000080BF0000C84200001643DB
:103D500000004843000048422DE9F05F072000F0D2
:103D6000D5F98146FCF7D5FA80467049FCF793FAFD
:103D70000446012000F0CAF98346FCF7CAFA8246DD
:103D80006B49FCF788FA81464FF08041FCF751FA05
:103D900080464FF07E51FCF746FA07462146FCF775
:103DA00048FA64490860082000F0B0F98146FCF741
:103DB000B0FA80465D49FCF76EFA0746022000F033
:103DC000A5F98346FCF7A5FA82465949FCF763FA40
:103DD00081464FF08041FCF72CFA80464FF07E512F
:103DE000FCF721FA04463946FCF723FA52490860E9
:103DF000032000F08BF90746FCF78BFA04464C4988
:103E0000FCF749FA0546042000F080F98146FCF7EA
:103E100080FA80464649FCF73EFA07464FF080415B
:103E2000FCF707FA04464FF07E51FCF7FCF9064612
:103E300042490868FCF76DFA074640482438006894
:103E400000F0100008B13E4800E03E480146384608
:103E5000FCF721FA04463C4801682046FCF791F93A
:103E60003949086035490868FCF753FA3749086052
:103E700000203549086036490968A1F17900FCF74E
:103E800048FA07463349FCF706FA04463248016807
:103E90002046FCF776F93049086030492E48006822
:103EA000FCF7C7F904462149FCF7C3F92C4908601F
:103EB0000020294908602548006800F0FBF905202A
:103EC00000F024F9B0F57A7F01DD012000E0002048
:103ED000244908601748016817480068FCF751F941
:103EE00004461448016814480068FCF79CF907462A
:103EF000214600F03DF81C492846FCF79AF9044693
:103F00001A493046FCF795F907462146FFF7C8FEE7
:103F1000062000F0FBF8B0F57A7F01DD012000E01B
:103F200000201049091D0860BDE8F09F00007A4498
:103F30000000FA44200000201C000020240400405F
:103F40000000A0C00000A0401000002018000020C9
:103F500024080040000020400C0000200000B44372
:103F600014000020B40122420000B4420000344397
:103F70002DE9F04105460C4600212846FCF700FAE1
:103F800015D24FF07E512846FCF7FAF901D24FF0D6
:103F90007E552F492846FCF74CF90646FCF7BEF93A
:103FA00080B22C4908600020091D086015E02A49EC
:103FB0002846FCF7DBF900D2274D00202549086090
:103FC00085F0004722493846FCF733F90646FCF7EE
:103FD000A5F980B21F49091D08601F492046FCF75A
:103FE00028F9044600212046FCF7CAF916D24FF002
:103FF0007E512046FCF7C4F901D24FF07E5414499B
:104000002046FCF716F90646FCF788F980B21149FC
:10401000083108600020091D086016E00E4920469E
:10402000FCF7A4F900D20C4C00200A4908310860C2
:1040300084F0004706493846FCF7FBF80646FCF7D3
:104040006DF980B203490C310860BDE8F0810000D1
:104050000000FA44342C0140000080BF10B50E4827
:10406000006808B9012000E000200B4908600B48F7
:10407000006800F0100038B109490A480068FCF7F0
:1040800080F80849086006E0054906480068FCF722
:10409000CAF80449086010BD88812142000400402C
:1040A0000000A0401000002010B50D490868FCF782
:1040B00030F904460B492046FCF762F907D20A4959
:1040C0000A480068FCF75DF80849086006E0064900
:1040D00006480068FCF7A7F80449086010BD000016
:1040E000340800400000F2420000A0400C00002014
:1040F00000BF054A126802F04002002AF9D0C2B29D
:10410000014B1B1D1A6070470048004001461029F2
:1041100002DD4FF47A707047012902DA4FF47A70A9
:10412000F9E7481E014A32F81000F4E75600002073
:1041300070B51448007808B9002070BD12480068B6
:1041400008B9012000E000200F49086002220FA1F9
:104150000F48FCF709F848B90E480068FCF7F2F878
:10416000044622460B460CA0FFF704F91E2108481E
:10417000FBF7EFFF00200B4908700249087001208F
:10418000DBE700000100002088812142746D0000FF
:10419000B800002008000020746D702025660D0A0C
:1041A0000000000000000020FCF7F4FFFEF77FFC99
:1041B000FEF74EFAFEF72AFAFEF7F2FAFEF760FB78
:1041C000FEF7A4FBFEF7DEFBFEF718FCFEF736FC5D
:1041D000FEF700FAFEF7C4FA012027490860002024
:1041E0002649C1F8840101202349083108600020D4
:1041F0002349C1F8B80123480068C06840F0200096
:1042000020490968C86020480068C06840F0200064
:104210001D490968C8601D48FDF7F2FC1C48FDF700
:10422000EFFC1C48FDF7ECFC00211848FDF7E4FF0B
:1042300004211648FDF7E0FF08211448FDF7DCFFD4
:104240000C211248FDF7D8FF00211348FDF7D4FFD9
:1042500004211148FDF7D0FF3C210D48FDF7BAFDC0
:104260003C210C48FDF7B6FD0CA0FFF783F801E0F8
:10427000FFF75EFFFCE700008081214200802142C1
:10428000000022425802002098020020580100201D
:10429000D801002018020020980100200D0A0D0A04
:1042A00044656D6F436174204F6E6C696E650D0AD5
:1042B000000000000149086070470000080000206D
:1042C00000000000000000000102030406070809C6
:1042D0000000000001020304F84200080000002072
:1042E0003C000000CC330008344300083C000020B0
:1042F00024070000DC33000800000000000000007C
:1043000000000000000000000000000000000000AD
:10431000000000000000000000000000000000009D
:10432000000000000000000010000000010000007C
:044330000024F40071
:04000005080000ED02
:00000001FF
