:020000040800F2
:100000006807002001010008592D00085528000844
:10001000552D0008AB0900087136000800000000EB
:10002000000000000000000000000000852D000816
:10003000D1090008000000005B2D0008872D000892
:100040001B0100081B0100081B0100081B01000820
:100050001B0100081B0100081B0100081B01000810
:100060001B0100081B0100081B0100081B01000800
:10007000B1090008C10900081B0100081B010008A4
:100080001B0100081B0100081B0100081B010008E0
:100090001B0100081B0100081B0100081B010008D0
:1000A0001B0100086D2E00081B0100081B01000841
:1000B0001B010008A12E0008BD2E00081B0100082E
:1000C0001B0100081B0100081B0100081B010008A0
:1000D0001B0100081B010008ED330008ED35000886
:1000E0001B0100081B0100081B010008DFF80CD0F1
:1000F00000F020FC00480047894400086807002001
:100100000648804706480047FEE7FEE7FEE7FEE7B1
:10011000FEE7FEE7FEE7FEE7FEE7FEE7152E000836
:10012000ED000008202A04DB203A21FA02F0002129
:10013000704721FA02F3D040C2F1200291400843F7
:1001400019467047D2B201E000F8012B491EFBD2DC
:1001500070470022F6E710B513460A4604461946D2
:10016000FFF7F0FF204610BD30B5044600200346DF
:1001700000E05B1C934203D2E05CCD5C401BF8D0F6
:1001800030BDF0B480EA0102D40F4200B2EB410F5F
:1001900002D20246084611464A0042D0C30DDDB2E3
:1001A000C1F3C752AD1A202D35DAC1F3160141F45F
:1001B000000204B15242C5F1200602FA06F12A41BA
:1001C0001044B3EBD05F23D0C4B1012DA0EBC350DA
:1001D00009DCF0BC4FF0004202EAC352DBB200F58A
:1001E000000000F0ECBA400000F1807000EBC3505A
:1001F000A0F1807040EAD170490009E0490841EA65
:10020000C071A0EBC35000F50000400800EBC350E4
:10021000F0BC00F0CBBA6142012202EB4101001BAD
:10022000F6E7F0BC704781F00041AAE780F000409B
:10023000A7E780EA010210B502F00043400022D097
:100240004A001FD0010E01EB1261C0F35600C2F349
:10025000560240F4000042F40002A0FB0220000419
:100260007F39140400D0401C50EA124001D44000F1
:10027000491EC2B20C0604EBD010401C4008802A74
:1002800002D003E0002010BD20F00100002900DAB8
:100290000020184310BD30B480EA010202F000458E
:1002A00030F0004221F0004013D090B1C30DD40DC6
:1002B000C2F31601C0F31600E41A41F4000140F441
:1002C00000027D34914201D3641C00E04900002CFF
:1002D00002DA30BC002070474FF400000023914246
:1002E00001D3891A034340084FEA4101F7D151B1C4
:1002F000914202D14FF0004105E002D24FF00101DE
:1003000001E06FF0010103EBC450284430BC00F061
:100310004DBA2DE9FE4F804681EA0300C00F0C461E
:10032000009021F0004123F00045B8EB0200A94104
:1003300005D24046214690461C460B46024623F015
:100340000040104347D0270DC7F30A00C3F30A51FA
:100350000290401A019040286BDAC3F3130040F476
:10036000801B0098924620B10023D2EB030A63EB76
:100370000B0B01985946C0F14002504600F0F5F9C8
:1003800006460D4650465946019A00F0FDF910EB1D
:1003900008006141002487EA115284EAE7731A4396
:1003A00040D0009A62B3019A012A4FEA075215DC45
:1003B000001B61EB02014FF0004202EA0752CDE957
:1003C0000042001C41F5801132462B4600F034FA01
:1003D00003B0BDE8F08F40462146F9E7001B61EB12
:1003E0000201001C41F5801300185B412018A2F5A2
:1003F000001747EB030140EAD570B6196D4111E0D3
:100400006D084FEA360645EAC0754FEA0752001BF1
:1004100061EB0201001C41F5801149084FEA3000F0
:100420000019514132462B4603B0BDE8F04F00F0B1
:10043000F4B90098012240000023D0EB020263EBE4
:10044000E073009821464FEAE074B8EB000061EBDE
:100450000401E9E783F000435BE781F0004158E7DE
:100460002DE9FE4F81EA030404F0004421F000412D
:1004700000944FF0000B23F0004350EA01045ED0DB
:1004800052EA03045BD0C3F30A54C1F30A552C4467
:10049000A4F2F3340194A0FB0254C1F3130141F41C
:1004A0008011C3F3130343F4801301FB024400FBE8
:1004B000034E840A970A44EA815447EA8357A4FB0F
:1004C000076802958D0A05FB07854FEA932C04FB0C
:1004D0000C542705029D4FEA065847EA1637B5EB3C
:1004E00008056EEB070C870E920E47EA811742EA69
:1004F0008312A7FB0201B6EB0B0164EB00042B0D8A
:1005000043EA0C335E1844EB1C50DA465146E7FBD5
:100510000201C5F313044FEA0B3343EA14534FEAC5
:100520000432019C43EA0603A4F10C040294009CEB
:10053000CDE900B400F080F903B0BDE8F08F0020F1
:100540000146F9E72DE9F04D81EA030404F0004B80
:1005500021F0004514464FF0000A23F0004150EA14
:10056000050220D054EA01021DD0C5F30A57024605
:10057000C5F31303C1F31300C1F30A5640F4801509
:1005800043F48013A7EB0608101BD64608F2FD388B
:1005900073EB050002D308F1010801E092185B41FA
:1005A000B8F1000F03DA00200146BDE8F08D00200D
:1005B0004FF48011064684460EE0171B73EB0507C7
:1005C00005D3121B63EB050306434CEA010C4908F3
:1005D0004FEA300092185B4150EA0107EDD152EA30
:1005E000030012D082EA040083EA0501084305D023
:1005F000101BAB4106D20122002306E000224FF07F
:10060000004302E06FF0010253101AEB06004CEBBE
:10061000085110EB0A0041EB0B01BDE8F04D00F072
:10062000FCB896230022114600F0C9B820F0004023
:10063000C10DC0F3160040F400007F2901DA00204C
:100640007047962903DCC1F19601C840704796397E
:100650008840704700F0004230F000400AD0C10DE1
:1006600001F56071C0F3160042EA0151C20840076B
:100670001143704700200146704701F0004330B439
:1006800021F0004150EA010206D00A0DA2F5607285
:10069000C1F31301002A02DC30BC00207047440F74
:1006A00044EAC104C100E01830BC00EBC25000F0C5
:1006B0007DB80000002801DBC0F10040002901DB0B
:1006C000C1F1004181427047002801DBC0F10040C8
:1006D000002901DBC1F100418842704730B50B466B
:1006E000014600202022012409E021FA02F59D4262
:1006F00005D303FA02F5491B04FA02F52844151E36
:10070000A2F10102F1DC30BD2DE9F05F05460020C9
:1007100092469B4688460646814640241BE0284672
:10072000414647462246FFF7FDFC53465A46C01A4B
:10073000914110D311461846224600F016F82D1AA2
:1007400067EB01084F4622460120002100F00DF81A
:1007500017EB00094E41201EA4F10104DFDC4846DE
:1007600031462A464346BDE8F09F202A04DB203A62
:1007700000FA02F1002070479140C2F1200320FAF4
:1007800003F3194390407047202A06DBCB17203A29
:1007900041FA02F043EAE07306E041FA02F3D04086
:1007A000C2F1200291400843194670470029A8BFB2
:1007B0007047401C490008BF20F00100704710B48A
:1007C000B0FA80FC00FA0CF050EA010404BF10BC3F
:1007D000704749B1CCF1200421FA04F411FA0CF16C
:1007E00018BF012121430843A3EB0C01CB1D4FEAA5
:1007F00000614FEA102042BF002010BC704700EBA0
:10080000C35010440029A4BF10BC7047401C4900CD
:1008100008BF20F0010010BC704710B5141E73F122
:10082000000408DA401C41F1000192185B411A43B0
:1008300001D120F0010010BD2DE9F04D92469B46FC
:1008400011B1B1FA81F202E0B0FA80F220329046A2
:10085000FFF78BFF04460F4640EA0A0041EA0B010E
:1008600053465A46084313D0114653EA010019D0A3
:10087000C8F140025046FFF755FC05460E4650466B
:1008800059464246FFF771FF084305D0012004E0B6
:1008900020463946BDE8F08D0020054346EAE07663
:1008A0002C4337430A986305E40AA0EB08000022B2
:1008B000FD0A44EA47540A3002D500200146E9E720
:1008C000010510196941DDE9084500196941BDE8D4
:1008D000F04DA2E7C1F30A52C1F3130140F2FF3316
:1008E00041F480119A4202DA00200146704740F23A
:1008F00033439A42A2F2334202DC5242FFF712BC67
:10090000FFF733BF30B5041E71F1000404DB4FF074
:100910000044404264EB0101141E73F1000405DB46
:100920001C464FF00043524263EB0403994208BF58
:10093000904230BD064C074D06E0E06840F00103F0
:1009400094E8070098471034AC42F6D3FFF7D2FB87
:1009500098450008B845000870B504460025206891
:10096000806800F00100F0B12068806820F001008C
:100970002168886000F0C2FC05460EE000F0BEFC75
:10098000401B022809D9A06A40F01000A062E06A6A
:1009900040F00100E062012070BD2068806800F036
:1009A00001000028EAD10020F6E700BFFEE70000C2
:1009B00010B5024800F00AFA10BD00002403002020
:1009C00010B5024800F002FA10BD0000E00200205D
:1009D0007047000001200849086008A002F04AFEA4
:1009E000002008490860091D0860091D0860091DEC
:1009F000086000BFFEE70000848121425B4552523F
:100A00005D0D0A00342C014038B502460023002059
:100A1000009000BF92F82400012801D1022038BDC7
:100A2000012082F8240000BF4868072812D210680D
:100A3000406B0C79641E04EB84051F24AC40A0437A
:100A40000D796D1E05EB85050C68AC4020431468DC
:100A5000606327E048680D2812D21068006B0C799B
:100A6000E41F04EB84051F24AC40A0430D79ED1F67
:100A700005EB85050C68AC4020431468206311E049
:100A80001068C06A0C790D3C04EB84051F24AC404F
:100A9000A0430D790D3D05EB85050C68AC40204366
:100AA0001468E06208680A2812D31068C0680C78DD
:100AB0000A3C04EB44050724AC40A0430D780A3DF2
:100AC00005EB45058C68AC4020431468E0600FE0FE
:100AD000106800690C7804EB44050724AC40A0437F
:100AE0000D7805EB45058C68AC4020431468206107
:100AF0000868102802D00868112827D1174C106800
:100B0000A0421ED11068806800F40000F0B910689F
:100B1000806840F400001468A0600868102815D1AF
:100B20000F4800680F4CB0FBF4F000EB8000400071
:100B3000009002E00098401E009000980028F9D133
:100B400004E0906A40F020009062012300BF002082
:100B500082F8240000BF184661E70000002401402D
:100B60003800002040420F002DE9F04104460027E4
:100B700000250026A84614B90120BDE8F081A06830
:100B800010B1207D00B100BFA06A30B90020E06242
:100B900084F82400204600F089F82046FFF7DCFEA8
:100BA0000746A06A00F01000002873D1002F71D111
:100BB000A06A20F4885040F00200A062E1696068F9
:100BC0000843217B40EA41000643A068B0F5807FDE
:100BD00002D0A068012802D14FF4807000E000200C
:100BE0000543207D012811D1207B38B9A069401E22
:100BF0004FF4006141EA4030054307E0A06A40F04D
:100C00002000A062E06A40F00100E06220684068D5
:100C100020F46940284321684860206880682149A1
:100C20000840304321688860A068B0F5807F02D01A
:100C3000A068012802D14FF4807000E00020B0F5D8
:100C4000807F03D1208A401E4FEA00582068C06A86
:100C500020F4700040EA08002168C86220688068BB
:100C600011490840B04208D10020E062A06A20F09B
:100C7000020040F00100A06211E0A06A20F0020032
:100C800040F01000A062E06A40F00100E06201273D
:100C900005E0FFE7A06A40F01000A0620127384697
:100CA0006BE70000FDF7E1FFFE0E1FFF10B586B0F9
:100CB0000446002002900390049005901449206897
:100CC000884222D100BF1348806940F40070114966
:100CD00088610846806900F40070019000BF00BF81
:100CE00000BF0846806940F00400886108468069BA
:100CF00000F00400019000BF00BF702002900320AC
:100D0000039002A9044800F063F906B010BD00008A
:100D100000240140001002400008014070B5044664
:100D2000002594F82100022803D00420A0630125A7
:100D300048E02068006820F00E0021680860206804
:100D4000006820F00100216808601F49206888427F
:100D500001D1012026E01C4914312068884201D1CC
:100D600010201FE0184928312068884201D18015E1
:100D700018E015493C312068884201D1801411E007
:100D8000114950312068884202D14FF4803009E087
:100D90000D4964312068884202D14FF4801001E08F
:100DA0004FF08070084908394860012084F821001C
:100DB00000BF002084F8200000BF606B10B1204607
:100DC000616B8847284670BD0800024070B5044634
:100DD000E06B05682068066894F84010042088409D
:100DE0002840002846D006F00400002842D02068A1
:100DF000006800F0200028B92068006820F0040096
:100E00002168086057492068884201D1042027E002
:100E1000544914312068884201D1402020E05149D2
:100E200028312068884201D1001519E04D493C3134
:100E30002068884202D14FF4804011E04949503186
:100E40002068884202D14FF4802009E0454964318E
:100E50002068884202D14FF4800001E04FF08060AA
:100E6000404908394860E06A00287AD02046E16AA3
:100E7000884776E094F84010022088402840A0B3CC
:100E800006F0020088B32068006800F0200040B936
:100E90002068006820F00A0021680860012084F8BA
:100EA000210030492068884201D1022028E02D49E4
:100EB00014312068884201D1202021E029492831BD
:100EC0002068884201D140151AE026493C3120684B
:100ED000884202D14FF4005012E02249503120687C
:100EE000884203D14FF400300AE017E01D49643115
:100EF0002068884202D14FF4001001E04FF00070EA
:100F000018490839486000BF002084F8200000BF5D
:100F1000A06A30B32046A16A884722E094F84010C6
:100F2000082088402840E0B106F00800C8B12068D9
:100F3000006820F00E002168086094F8401001203D
:100F40008840E16B48600120A06384F8210000BF65
:100F5000002084F8200000BF206B10B12046216BD8
:100F6000884770BD080002400146002209B90120EF
:100F70007047164B0868C01A1423B0FBF3F08000CA
:100F8000086412480838C863022081F82100086804
:100F9000026843F6F0708243D1E901031843CB683D
:100FA00018430B6918434B6918438B691843CB6985
:100FB000184302430868026000208863012081F81A
:100FC0002100002081F8200000BFD1E70800024086
:100FD0002DE9F8470346002294466EE14FF00108E0
:100FE00008FA02F4D1F8008008EA0400A0427DD19A
:100FF000DFF8DCA2D1F80480A8EB0A09D0453AD08A
:1010000014DCB8F1030F50D009DCB8F1000F31D077
:10101000B8F1010F1CD0B8F1020F49D120E0B8F1AE
:10102000110F18D0B8F1120F42D11EE0B9F5881F88
:1010300025D006DCB9F5803F20D0B9F5801F37D127
:101040001AE0B9F5001F18D0B9F5041F30D117E028
:10105000D1F80CC02DE0D1F80C8008F1040C28E088
:10106000D1F80C8008F1080C23E0D1F80C8008F1CD
:101070000C0C1EE000BF00BF00BF00BF00BF00BFE0
:10108000D1F80880B8F1000F02D14FF0040C0BE04A
:10109000D1F80880B8F1010F03D14FF0080C1C61A2
:1010A00002E04FF0080C5C6103E04FF0000C00E040
:1010B00000BF00BFFF2801D8984601E003F10408F3
:1010C0004646FF2802D84FEA820803E0A2F108084A
:1010D0004FEA88084746D6F800804FF00F0909FA12
:1010E00007F928EA09080CFA07F900E088E048EA5D
:1010F0000908C6F80080D1F8048008F08058B8F1DB
:10110000805F7DD100BFDFF8CC81D8F8188048F02F
:101110000108DFF8C091C9F81880C846D8F81880CF
:1011200008F00108CDF8008000BF00BF4FEAB938D1
:101130004FEA920958F829504FEA82784FEA187915
:101140004FF00F0808FA09F825EA0805DFF888814A
:10115000434502D14FF0000816E0DFF88081434597
:1011600002D14FF001080FE0DFF87481434502D14E
:101170004FF0020808E0DFF86C81434502D14FF0E0
:10118000030801E04FF004084FEA82794FEA197929
:1011900008FA09F848EA0505DFF84C814FEA920998
:1011A00048F82950D1F8048008F48038B8F5803F19
:1011B0000AD1DFF83881D8F8008048EA0008DFF863
:1011C0002C91C9F8008009E0DFF82081D8F8008070
:1011D00028EA0008DFF81491C9F80080D1F80480EB
:1011E00008F40038B8F5003F10D1DFF8008108F1AD
:1011F0000408D8F8008048EA0008DFF8F09000E022
:101200005AE009F10409C9F800800DE0DFF8DC803C
:1012100008F10408D8F8008028EA0008DFF8CC902C
:1012200009F10409C9F80080D1F8048008F4801895
:10123000B8F5801F0ED1DFF8B48008F10808D8F89F
:10124000008048EA0008DFF8A49009F10809C9F80D
:1012500000800DE0DFF8948008F10808D8F80080DD
:1012600028EA0008DFF8849009F10809C9F800802D
:10127000D1F8048008F40018B8F5001F0ED1DFF88B
:101280006C8008F10C08D8F8008048EA0008DFF804
:101290005C9009F10C09C9F800800DE0DFF84C8082
:1012A00008F10C08D8F8008028EA0008DFF83C9024
:1012B00009F10C09C9F80080521CD1F8008028FA05
:1012C00002F8B8F1000F7FF489AEBDE8F88700009E
:1012D000000011100010024000080140000C014005
:1012E00000100140001401400800014000040140CA
:1012F0000AB1016101E00B04036170470148006815
:10130000704700002C00002003480068034909785A
:1013100008440149086070472C0000203400002078
:1013200010B50848006840F0100006490860032026
:1013300000F0A8F8002000F007F800F02BF80020DB
:1013400010BD00000020024070B504460E48007831
:101350004FF47A71B1FBF0F00C490968B1FBF0F57C
:10136000284600F02BFD08B1012070BD102C07D2DB
:1013700000222146501E00F047F80548046001E0B5
:101380000120F2E70020F0E73400002038000020C0
:101390003000002008B500BF1148806940F001000E
:1013A0000F4988610846806900F00100009000BF85
:1013B00000BF00BF0846C06940F08050C8610846C1
:1013C000C06900F08050009000BF00BF00BF054919
:1013D000486820F0E06040F00070486000BF08BD41
:1013E000001002400000014001460846002809DBC9
:1013F00000F01F0301229A4043099B0003F1E02300
:10140000C3F8002100BF70472DE9F05F80460D460C
:101410001646002702F03EF9074639462A4633466B
:1014200001F00700C0F1070ABAF1040F02D94FF02A
:10143000040A01E0C0F1070AD14600F1040ABAF13A
:10144000070F02D24FF0000A01E0A0F1030AD446D0
:101450004FF0010A0AFA09FAAAF1010A0AEA020A95
:101460000AFA0CFA4FF0010B0BFA0CFBABF1010B73
:101470000BEA030B4AEA0B042146404602F012F93C
:10148000BDE8F09F00BF00F00702064B19684FF659
:10149000FF031940044B0B4343EA0221014B19603F
:1014A00000BF70470CED00E00000FA05F8B50446F7
:1014B00000260025207800F0010000286BD00027CE
:1014C0004348C06900F0805070B900BF4048C0690F
:1014D00040F080503E49C8610846C06900F0805025
:1014E000009000BF00BF01273A48006800F48070F8
:1014F000B0B93848006840F4807036490860FFF79A
:10150000FDFE064606E0FFF7F9FE801B642801D9C0
:101510000320F8BD2F48006800F480700028F2D046
:101520002B48006A00F440752DB3A08800F4407089
:10153000A84220D02648006A20F4407501202649A0
:101540000860002008602248056205F0010090B1A3
:10155000FFF7D4FE064608E0FFF7D0FE801B41F2FD
:101560008831884201D90320D3E71948006A00F086
:1015700002000028F0D01648006A20F4407061682C
:10158000084313490862012F04D10846C06920F0BE
:101590008050C86100BF207800F00200022807D107
:1015A0000B48406820F44040A1680843084948605F
:1015B000207800F01000102807D10548406820F47A
:1015C0008000E1680843024948600020A1E700006C
:1015D00000100240007000404004424270B50446D2
:1015E0000D460CB9012070BD5A48006800F0070094
:1015F000A8420ED25748006820F0070028435549FA
:1016000008600846006800F00700A84201D00120E9
:10161000E9E7207800F0020002281DD1207800F0D0
:101620000400042805D14C48406840F4E0604A4971
:101630004860207800F00800082805D14648406836
:1016400040F46050444948604348406820F0F0004E
:10165000A168084340494860207800F0010078B351
:101660006068012806D13C48006800F4003090B959
:101670000120B8E76068022806D13748006800F00A
:10168000007040B90120AEE73348006800F0020066
:1016900008B90120A7E73048406820F003006168DE
:1016A00008432D494860FFF729FE064609E0FFF789
:1016B00025FE801B41F28831884202D9032092E73F
:1016C00007E02548406800F00C006168B0EB810F2E
:1016D000EDD12048006800F00700A8420ED91D484F
:1016E000006820F0070028431A490860084600688F
:1016F00000F00700A84201D0012074E7207800F034
:101700000400042807D11448406820F4E060E16830
:10171000084311494860207800F00800082808D1E3
:101720000D48406820F46050216940EAC1000A4930
:10173000486000F03FF808494968C1F30311074ABF
:10174000515CC8400649086006480068FFF7FCFD88
:10175000002048E7002002400010024080450008B9
:101760003800002030000020014800687047000069
:101770003800002000B5FFF7F7FF04494968C1F3BE
:101780000221034A515CC84000BD00000010024025
:101790009045000800B5FFF7E7FF04494968C1F329
:1017A000C221034A515CC84000BD00000010024045
:1017B00090450008F0B585B00FF26C0C9CE8E01085
:1017C00001A8A0E8E0101CA52D68009500210022CA
:1017D000002300240020194D696801F00C05F5B1C3
:1017E000042D02D0082D19D101E0154819E001ADF2
:1017F000C1F38346AC5D01F4803555B10F4D6D6882
:10180000C5F340451DF805200D4D6543B5FBF2F3CA
:1018100002E00C4D04FB05F3184602E000BF084847
:1018200000BF00BF05B0F0BD0203040506070809AC
:101830000A0B0C0D0E0F10100102000000100240E8
:1018400000127A0000093D00F8B504460CB90120E9
:10185000F8BD207800F00100002878D0F8484068F2
:1018600000F00C0004280CD0F548406800F00C0093
:10187000082811D1F248406800F48030B0F5803F6C
:101880000AD1EF48006800F4003000285FD060689B
:1018900000285CD10120DBE700BF6068B0F5803F25
:1018A00006D1E748006840F48030E549086028E048
:1018B000606858B9E248006820F48030E049086068
:1018C0000846006820F4802008601AE06068B0F5DF
:1018D000A02F0BD1DA48006840F48020D849086076
:1018E0000846006840F4803008600AE0D448006888
:1018F00020F48030D24908600846006820F4802037
:10190000086000BF606888B1FFF7F8FC054606E094
:10191000FFF7F4FC401B642801D9032098E7C8486E
:10192000006800F400300028F2D010E0FFF7E6FC79
:10193000054606E0FFF7E2FC401B642801D90320BE
:1019400086E7BF48006800F400300028F2D1207814
:1019500000F00200022857D1B948406800F00C009E
:1019600050B1B748406800F00C00082818D1B448BE
:10197000406800F4803098B9B148006800F0020077
:1019800020B12069012801D0012061E7AC4800683E
:1019900020F0F800616940EAC100A949086033E01D
:1019A0002069E8B10120A7490860FFF7A7FC0546B8
:1019B00006E0FFF7A3FC401B022801D9032047E7FC
:1019C0009F48006800F002000028F2D09C480068A0
:1019D00020F0F800616940EAC1009949086013E00D
:1019E000002098490860FFF789FC054606E0FFF7EC
:1019F00085FC401B022801D9032029E79048006894
:101A000000F002000028F2D1207800F00800082839
:101A10002DD1A069B8B101208B490860FFF76EFC99
:101A2000054606E0FFF76AFC401B022801D90320A7
:101A30000EE78348406A00F002000028F2D001203F
:101A400001F08CF913E000207F490860FFF756FC95
:101A5000054606E0FFF752FC401B022801D903208F
:101A6000F6E67748406A00F002000028F2D12078BC
:101A700000F00400042873D100277148C06900F009
:101A8000805070B900BF6E48C06940F080506C490A
:101A9000C8610846C06900F08050009000BF00BFD8
:101AA00001276A48006800F48070B0B96748006890
:101AB00040F4807065490860FFF720FC054606E0A9
:101AC000FFF71CFC401B642801D90320C0E65F48D7
:101AD000006800F480700028F2D000BFE0680128A0
:101AE00006D15748006A40F001005549086227E0D6
:101AF000E06858B95248006A20F001005049086275
:101B00000846006A20F00400086219E0E068052831
:101B10000BD14B48006A40F004004949086208466E
:101B2000006A40F0010008620AE04548006A20F0BF
:101B30000100434908620846006A20F00400086278
:101B400000BFE068A0B1FFF7D9FB054609E0FFF749
:101B5000D5FB401B41F28831884202D9032077E649
:101B600022E03748006A00F002000028EFD012E0BF
:101B7000FFF7C4FB054608E0FFF7C0FB401B41F23E
:101B80008831884201D9032062E62D48006A00F0BE
:101B900002000028F0D1012F05D12948C06920F0AA
:101BA00080502749C86100BFE069C8B32448406835
:101BB00000F00C00082860D0E069022848D100201D
:101BC00020490866FFF79AFB054606E0FFF796FBFB
:101BD000401B022801D903203AE61948006800F0AA
:101BE00000700028F2D1206AB0F5803F07D1144878
:101BF000406820F40030A168084311494860D4E9E6
:101C0000080108430E49496821F4741108430C493E
:101C1000486001200B490866FFF770FB054607E0A6
:101C20003DE0FFF76BFB401B022801D903200FE6C4
:101C30000348006800F000700028F2D02FE0000098
:101C40000010024000004242800442420070004006
:101C5000002014490866FFF751FB054606E0FFF730
:101C60004DFB401B022801D90320F1E50E48006816
:101C700000F000700028F2D111E0E069012800D1E5
:101C8000E6E50948466806F48031206A814204D1BD
:101C900006F47011606A814201D00120D8E500206D
:101CA000D6E50000000042420010024010B5044694
:101CB0000CB9012010BD606A00B900BF0021A1620B
:101CC00094F8510028B9002084F85000204600F014
:101CD00031F8022084F851002068006820F04000AC
:101CE00021680860D4E901010843E16808432169DB
:101CF000084361690843218B01F400710843E169DD
:101D00000843216A0843A16A084321680860042146
:101D1000A06901EA1040216848602068C06920F489
:101D200000602168C86100206065012084F85100CE
:101D30000020BFE710B586B0044600200290039053
:101D4000049005901A49206888422FD100BF194895
:101D5000C06940F480401749C8610846C06900F472
:101D60008040019000BF00BF00BF0846806940F07E
:101D7000080088610846806900F00800019000BFF3
:101D800000BF4FF42040029000200390049002A96D
:101D90000948FFF71DF94FF480400290022003909C
:101DA0000320059002A90448FFF712F906B010BD00
:101DB0000038004000100240000C014070B504469D
:101DC0002546681EB0F1807F01D301200FE0681E18
:101DD0004FF0E02148610F214FF0FF3001F062FC2D
:101DE00000204FF0E021886107200861002070BDCD
:101DF0007047704710B50346002200BF93F83C00BF
:101E0000012801D1022010BD012083F83C0000BF51
:101E100022F0FF00CC6840EA040222F440708C6893
:101E200040EA040222F480604C6840EA040222F492
:101E300000600C6840EA040222F480500C6940EA19
:101E4000040222F400504C6940EA040222F480406B
:101E5000CC6940EA04021868426400BF002083F89D
:101E60003C0000BF00BFCEE710B5024600BF92F8AD
:101E70003C00012801D1022010BD012082F83C0065
:101E800000BF022082F83D00106843681068846833
:101E900023F070030868034324F080044868044377
:101EA0001068436010688460012082F83D0000BF24
:101EB000002082F83C0000BF00BFDDE70146086853
:101EC000C06840F001000B68D8600868806800F0C6
:101ED0000702062A05D00868006840F001000B6878
:101EE0001860002070472DE9F04104460D4614B9F2
:101EF0000120BDE8F08194F83D0028B9002084F865
:101F00003C00204600F044F8022084F83D002068A0
:101F1000806844F20701884321688860211D206899
:101F200000F0DAFF2068D0F8088020688669206811
:101F3000076A286840EA080840F203308643A96926
:101F4000A86840EA0120064340F60C4086434FF261
:101F5000F0008643E969E86840EA01200643286901
:101F60000001296A40EA0130064327F02207696927
:101F7000686840EA011007432068C0F808802068BC
:101F8000866120680762012084F83D000020B0E7E8
:101F900010B586B00446002002900390049005908E
:101FA00036492068884237D100BF3548C06940F0C3
:101FB00002003349C8610846C06900F00200019080
:101FC00000BF00BF00BF0846806940F0080088617C
:101FD0000846806900F00800019000BF00BF302073
:101FE000029000200390049002A92648FEF7F0FF1B
:101FF00000BF2549486820F4406040F0E06040F4AC
:102000000060486000BF002202211D20FFF7FCF99C
:102010001D20FFF7E9F92FE01C49206888422BD1E9
:1020200000BF1748C06940F004001549C861084660
:10203000C06900F00400019000BF00BF00BF084667
:10204000806940F0080088610846806900F0080057
:10205000019000BF00BFC0200290002003900490B8
:1020600002A90848FEF7B4FF002202211E20FFF754
:10207000CBF91E20FFF7B8F906B010BD00040040F0
:1020800000100240000C0140000001400008004028
:1020900030B504460D4615B1042D0CD105E00122E2
:1020A0000021206800F052FF10E001220421206886
:1020B00000F04CFF0AE001220021206800F046FFFA
:1020C00001220421206800F041FF00BF00BF20680A
:1020D000006840F0010021680860002030BD7047B2
:1020E00010B5044620680069C0F34000D8B12068EC
:1020F000C068C0F34000B0B16FF002002168086111
:10210000012020772068806900F0030018B1204684
:10211000FFF7E5FF05E0204600F0F6F8204600F066
:10212000C7F90020207720680069C0F38000D8B18B
:102130002068C068C0F38000B0B16FF0040021686F
:102140000861022020772068806900F4407018B18F
:102150002046FFF7C4FF05E0204600F0D5F82046F2
:1021600000F0A6F90020207720680069C0F3C000C5
:10217000D8B12068C068C0F3C000B0B16FF00800EB
:1021800021680861042020772068C06900F00300FE
:1021900018B12046FFF7A3FF05E0204600F0B4F891
:1021A000204600F085F90020207720680069C0F300
:1021B0000010D8B12068C068C0F30010B0B16FF053
:1021C000100021680861082020772068C06900F4A9
:1021D000407018B12046FFF782FF05E0204600F06E
:1021E00093F8204600F064F9002020772068006909
:1021F00000F0010058B12068C06800F0010030B163
:102200006FF0010021680861204600F079F920682C
:102210000069C0F3C01058B12068C068C0F3C01096
:1022200030B16FF08000216808612046FFF7E0FDC3
:1022300020680069C0F3801058B12068C068C0F3FE
:10224000801030B16FF0400021680861204600F036
:1022500058F920680069C0F3401058B12068C06880
:10226000C0F3401030B16FF02000216808612046B3
:10227000FFF7BFFD10BD000010B586B0044600207A
:1022800002900390049005901C492068884218D160
:1022900000BF1B48806940F0040019498861084666
:1022A000806900F00400019000BF00BF4FF470602F
:1022B000029002200390059002A91248FEF788FEC2
:1022C0001AE02068B0F1804F16D100BF0C48806939
:1022D00040F004000A4988610846806900F0040063
:1022E000019000BF00BF03200290022003900590E0
:1022F00002A90448FEF76CFE06B010BD002C014098
:102300000010024000080140704770B504460D46B9
:10231000164600BF94F83C00012801D1022070BD90
:10232000012084F83C0000BF022084F83D0036B153
:10233000042E1BD0082E31D00C2E5ED145E029464C
:10234000206800F015FE2068806940F008002168D0
:1023500088612068806920F0040021688861206815
:102360008069296908432168886147E02946206817
:1023700000F02EFE2068806940F4006021688861CA
:102380002068806920F48060216888612068806905
:10239000296940EA0120216888612FE029462068E8
:1023A00000F04AFE2068C06940F008002168C8615A
:1023B0002068C06920F004002168C8612068C069F5
:1023C000296908432168C86118E02946206800F09F
:1023D00067FE2068C06940F400602168C861206819
:1023E000C06920F480602168C8612068C0692969DB
:1023F00040EA01202168C86100E000BF00BF012061
:1024000084F83D0000BF002084F83C0000BF00BFFE
:1024100085E710B504460CB9012010BD94F83D00C5
:1024200028B9002084F83C00204600F00DF8022076
:1024300084F83D00211D206800F04EFD012084F845
:102440003D000020E9E7000038B504461649206841
:10245000884216D100BF1548806940F400601349D6
:1024600088610846806900F40060009000BF00BFEA
:10247000002201211920FEF7C7FF1920FEF7B4FF43
:1024800011E02068B0F1804F0DD100BF0748C0694E
:1024900040F001000549C8610846C06900F001002C
:1024A000009000BF00BF38BD002C0140001002406A
:1024B0007047000070B504460E4601223146206880
:1024C00000F044FD0D492068884201D1012000E060
:1024D000002028B12068406C40F400402168486426
:1024E0002068806800F00705062D05D02068006888
:1024F00040F0010021680860002070BD002C014000
:1025000070477047704700002DE9F0470446206887
:1025100005682068C668206847694FF00008C14612
:1025200005F00F08B8F1000F0AD105F0200038B10E
:1025300006F0200020B1204600F000FEBDE8F08744
:10254000B8F1000F6DD007F0010018B906F49070D3
:10255000002866D005F0010030B106F4807018B193
:10256000E06B40F00100E06305F0040030B107F0DB
:10257000010018B1E06B40F00200E06305F00200DA
:1025800030B107F0010018B1E06B40F00400E063E7
:1025900005F0080030B107F0010018B1E06B40F021
:1025A0000800E063E06B68B305F0200028B106F096
:1025B000200010B1204600F0C1FD20684069C0F342
:1025C0008019E06B00F0080010B9B9F1000F22D0BB
:1025D000204600F093FD2068406900F04000B0B153
:1025E0002068406920F0400021684861606B50B16C
:1025F0001748616B4863606BFEF790FB10B1606B2E
:10260000416B88470CE02046FFF77CFF08E020463E
:10261000FFF778FF04E02046FFF774FF0020E06337
:102620008CE705F0800030B106F0800018B120463C
:1026300000F0A8FE82E705F0400030B106F040004F
:1026400018B1204600F06AFD78E700BF76E7000089
:10265000E930000810B504460CB9012010BDA0698E
:1026600000B100E000BF94F8390028B9002084F8D8
:102670003800204600F028F8242084F8390020682B
:10268000C06820F400502168C860204600F0AAFD10
:102690002068006920F49040216808612068406942
:1026A00020F02A00216848612068C06840F400508A
:1026B0002168C8600020E063202084F8390084F895
:1026C0003A000020CAE7000010B586B0044600209A
:1026D000029003900490059055492068884236D1B5
:1026E00000BF5448C06940F400305249C8610846F0
:1026F000C06900F40030019000BF00BF00BF084671
:10270000806940F0040088610846806900F0040098
:10271000019000BF00BF042002900220039003201C
:10272000059002A94448FEF753FC082002900020BF
:102730000390049002A94048FEF74AFC002211468B
:102740002620FEF761FE2620FEF74EFE6DE03B4997
:102750002068884269D100BF3648C06940F48020B3
:102760003449C8610846C06900F48020019000BF68
:1027700000BF00BF0846806940F008008861084635
:10278000806900F00800019000BF00BF08150290AA
:10279000022003900320059002A92948FEF718FCA7
:1027A0004FF40060029000200390049002A9244896
:1027B000FEF70EFC234824490860002048600021F1
:1027C000214881608021C1600021016141618161F6
:1027D000C161FEF7C9FB08B1FEF7FCF800BF1A485B
:1027E0006063446200BF174814381849086010201D
:1027F00048600021154881608021C160002101618D
:1028000041618161C161FEF7AFFB08B1FEF7E2F8FB
:1028100000BF0E482063446200BF002211462720FB
:10282000FEF7F2FD2720FEF7DFFD06B010BD000029
:1028300000440040001002400008014000480040F1
:10284000000C014030000240E00200202403002080
:102850007047704701200849086008A000F00AFF8F
:1028600000200A490860091D0860091D0860091D4B
:10287000086000BFFEE70000848121425B484152AE
:1028800044204552525D0D0A00000000342C0140E6
:102890000EB5002000900190029012481249086085
:1028A000002111488160017301754FF46021C161FD
:1028B00000200D49486001210B480161FEF754F9E1
:1028C00008B1FEF787F80420009001200190002055
:1028D000029069460448FEF797F808B1FEF77AF8C7
:1028E0000EBD000000240140D800002008B500BF44
:1028F0000E48406940F001000C49486108464069B3
:1029000000F00100009000BF00BF002211460C2023
:10291000FEF77AFD0C20FEF767FD002211460D2020
:10292000FEF772FD0D20FEF75FFD08BD00100240AE
:1029300000B585B00020019002900390049000BF84
:102940003A48806940F0100038498861084680693B
:1029500000F01000009000BF00BF00BF0846806973
:1029600040F0200088610846806900F02000009057
:1029700000BF00BF00BF0846806940F004008861C6
:102980000846806900F00400009000BF00BF00BF4F
:102990000846806940F0080088610846806900F0B8
:1029A0000800009000BF00BF00224FF4C041204843
:1029B000FEF79EFC002280211E48FEF799FC0022B3
:1029C00007211D48FEF794FC4FF4C0400190012000
:1029D0000290002003900220049001A91448FEF701
:1029E000F7FA80200190012002900020039002203D
:1029F000049001A90F48FEF7EBFA0720019001208F
:102A00000290002003900220049001A90A48FEF7DA
:102A1000DFFA4FF4805001900848029000200390A4
:102A200001A90548FEF7D4FA05B000BD0010024028
:102A30000010014000080140000C0140000011108E
:102A400010B50D480D4908600020486000210B4872
:102A50008160C160016141614FF4007181610021B9
:102A6000C1610162416281620A21C162FFF71EF900
:102A700008B1FDF7AFFF10BD00380040080100208D
:102A800000B591B000200F9010901C2108A8FDF710
:102A900060FB20216846FDF75CFB2F482F4908604A
:102AA0000020486000212D48816040F2CF71C16054
:102AB00000210161416180218161FFF7AAFC08B119
:102AC000FDF788FF00200F9010900FA92348FFF713
:102AD000CBF908B1FDF77EFF602008900020099037
:102AE0000A900B900C900D900E90002208A91B48A4
:102AF000FFF70BFC08B1FDF76DFF042208A917488A
:102B0000FFF703FC08B1FDF765FF082208A9134889
:102B1000FFF7FBFB08B1FDF75DFF0C2208A90F488A
:102B2000FFF7F3FB08B1FDF755FF0020009001907F
:102B30000290039004904FF40050059000200790FD
:102B400069460648FFF756F908B1FDF743FF034809
:102B5000FFF792FB11B000BD002C01406001002086
:102B600000B589B00020079008901C216846FDF749
:102B7000F0FA4FF080401C49086040F2CF204860D6
:102B800000211948816040F2CF71C16000210161CC
:102B90008161FFF73EFC08B1FDF71CFF00200790A4
:102BA000089007A91048FFF75FF908B1FDF712FF79
:102BB0006020009096200190002002900490002256
:102BC00069460948FFF7A1FB08B1FDF703FF04229E
:102BD00069460548FFF799FB08B1FDF7FBFE02487F
:102BE000FFF74AFB09B000BDA001002000B58BB083
:102BF000242102A8FDF7ADFA0020009001901748AB
:102C00001749086000204860002115488160F321C1
:102C1000C1600021016181610320029000200390C6
:102C20000120049000200590069007900120089054
:102C3000002009900A9002A90948FFF754F908B149
:102C4000FDF7C8FE00200090019069460448FFF798
:102C50000BF908B1FDF7BEFE0BB000BD000400404B
:102C6000E001002000B58BB0242102A8FDF771FA25
:102C70000020009001901748174908600320486021
:102C80000021154881607921C160002101618161C5
:102C90000320029000200390012004900020059062
:102CA0000690079001200890002009900A9002A940
:102CB0000948FFF718F908B1FDF78CFE00200090D5
:102CC000019069460448FFF7CFF808B1FDF782FE8E
:102CD0000BB000BD000800402002002010B50C48D9
:102CE0000C4908600C4848604FF4805109488160E5
:102CF0004900C160C91001610C214161002181615D
:102D0000C161FFF7A7FC08B1FDF764FE10BD00002C
:102D10000044004060020020A086010010B50B486E
:102D20000B4908604FF4E130486000210848816099
:102D3000C16001610C21416100218161C161FFF726
:102D400089FC08B1FDF746FE10BD000000480040B8
:102D5000A002002000BFFEE77047704708B5084991
:102D60000968C9084FF47A72B1FBF2F1414300914E
:102D700000BF00BF00994A1E00920029F9D108BD8A
:102D800038000020704710B5FEF7BEFA10BD00B540
:102D900093B0282109A8FDF7DCF9142104A8FDF758
:102DA000D8F9002000900190029003900120099032
:102DB00000040A9000200B9001200D90022010903A
:102DC000C10311914FF4E011129109A8FEF73CFDE7
:102DD00008B1FDF7FFFD0F200490022005900020B0
:102DE00006904FF48060079000200890022104A80C
:102DF000FEF7F4FB08B1FDF7EDFD02200090800323
:102E000002906846FEF752FB08B1FDF7E3FD13B0F0
:102E100000BD00001148006840F001000F49086043
:102E2000084640680E4908400C494860084600685A
:102E30000C490840094908600846006820F48020D1
:102E400008600846406820F4FE0048604FF41F0008
:102E50008860C80304490860704700000010024001
:102E60000000FFF8FFFFF6FE08ED00E010B50A488D
:102E700001880088401C084A1080242903D10020C2
:102E80001146088000E010BD01F0E6F80348FFF7A6
:102E900027F900BFF7E700002800002060010020AC
:102EA00010B501F05BFA0020024908600248FFF704
:102EB00017F910BD10040040E001002010B501F02A
:102EC00085FA7920024908600248FFF709F910BD28
:102ED000240800402002002010B50268184B9842D8
:102EE00008D0B0F1804F05D0164B984202D0164B57
:102EF000984203D122F070024B681A43104B98425B
:102F000008D0B0F1804F05D00E4B984202D00E4B46
:102F1000984203D122F44072CB681A4322F0800316
:102F20004C6943EA040202608B68C3620B688362E7
:102F3000034B984201D10B6903630123436110BD28
:102F4000002C0140000400400008004030B501F0B2
:102F50001F05012404FA05F3046A9C430462046A11
:102F600001F01F0502FA05F52C43046230BD000094
:102F700030B5056A25F001050562026A4368846977
:102F800024F0700424F003040D682C4322F00202A4
:102F90008D682A430D4DA84206D100BF22F00802D9
:102FA000CD682A4322F00402084DA84207D123F439
:102FB000807323F400734D692B438D692B43436069
:102FC00084614D684563026230BD0000002C014001
:102FD00030B5056A25F010050562026A4368846908
:102FE00024F4E04424F440740D6844EA052422F0FB
:102FF00020028D6842EA05120E4DA84207D100BF9B
:1030000022F08002CD6842EA051222F04002094D0A
:10301000A84209D123F4806323F400634D6943EA95
:1030200085038D6943EA8503436084614D68856348
:10303000026230BD002C014030B5056A25F4807570
:103040000562026A4368C46924F0700424F0030432
:103050000D682C4322F400728D6842EA05220F4D60
:10306000A84207D100BF22F40062CD6842EA0522DF
:1030700022F48062094DA84209D123F4805323F43D
:1030800000534D6943EA05138D6943EA0513436014
:10309000C4614D68C563026230BD0000002C014070
:1030A00030B5056A25F480550562036A4468C26933
:1030B00022F4E04222F440720D6842EA052223F431
:1030C00000538D6843EA0533064DA84204D124F429
:1030D00080444D6944EA85144460C2614D680564CA
:1030E000036230BD002C014070B505466C6A0020BB
:1030F000E085E0842046FFF705FA70BD0168C968E5
:1031000021F490710268D1600168496921F00101E0
:1031100002685161202180F83A10704710B50446CA
:103120002068C06820F040002168C860202084F832
:1031300039002046FFF78DFB002010BD70B5044616
:1031400094F83A0022284AD1A068B0F5805F13D1E4
:10315000A56A206940B920684068C0F3080028804B
:10316000A06A801CA06219E020684068C0B2288074
:10317000A06A401CA06211E0206938B9206840684C
:10318000C1B2A26A501CA062117007E020684068BA
:1031900000F07F01A26A501CA0621170E08D401EF9
:1031A00080B2E085C8B92068C06820F0200021689E
:1031B000C8602068C06820F480702168C8602068FA
:1031C000406920F0010021684861202084F83A001D
:1031D0002046FFF73DFB002070BD0020FCE70220E9
:1031E000FAE7000070B504462168096921F44051EE
:1031F000E2681143226811612269A1681143626982
:1032000041EA02052168C96841F20C6291432943F1
:103210002268D1602168496921F44071A269114393
:1032200022685161564A2168914254D1FEF7B2FAA0
:1032300000EBC00101EB001162689200B1FBF2F1FA
:1032400000EBC00202EB001263689B00B2FBF3F2DA
:103250006423B2FBF3F202EBC20303EB0212A1EB15
:103260008201322202EB01116422B1FBF2F101F082
:10327000F00100EBC00202EB001263689B00B2FB9E
:10328000F3F26423B2FBF3F201EB021200EBC00194
:1032900001EB001163689B00B1FBF3F100EBC0038D
:1032A00003EB00136668B600B3FBF6F36426B3FBCA
:1032B000F6F303EBC30606EB0313A1EB8301322302
:1032C00003EB01116423B1FBF3F101F00F01114491
:1032D0002268916053E0FEF74DFA00EBC00101EB6C
:1032E000001162689200B1FBF2F100EBC00202EB48
:1032F000001263689B00B2FBF3F26423B2FBF3F2AB
:1033000002EBC20303EB0212A1EB8201322202EBB9
:1033100001116422B1FBF2F101F0F00100EBC002F7
:1033200002EB001263689B00B2FBF3F26423B2FB72
:10333000F3F201EB021200EBC00101EB0011636834
:103340009B00B1FBF3F100EBC00303EB00136668D5
:10335000B600B3FBF6F36426B3FBF6F303EBC30648
:1033600006EB0313A1EB8301322303EB011164236A
:10337000B1FBF3F101F00F0111442268916070BDBF
:1033800000380140014691F8390021282CD1886885
:10339000B0F5805F0FD10A6A1088C0F308000B688F
:1033A0005860086918B9086A801C086209E0086A50
:1033B000401C086205E00B6A581C086218780B680C
:1033C0005860C88C401E80B2C88458B90868C0686C
:1033D00020F080000B68D8600868C06840F04000AA
:1033E0000B68D860002070470220FCE710B57B48CE
:1033F000006800F0200000B910BD7848001D00688A
:10340000C4B27748417E407E401C754A50761046D3
:103410004454407E19287DD1104600780F287AD177
:103420001046807D8028FAD16E48006808B90120D6
:1034300000E000206B490860002069494876084692
:10344000C07D00F0300018B1002066490860D3E765
:10345000634840786249897801F0070140EA012019
:103460005F4948830846C0788006400D897840EA65
:10347000E1005B49888308464079C007400D09791F
:1034800040EA81005649C97840EAA1105449C883EE
:10349000084680790007400D497940EA61005049AB
:1034A00008840846C0794006400D897940EA211019
:1034B0004B4948840846407A8007400D097A40EA23
:1034C00041004749C97940EAE110454988840846E6
:1034D000807AC006400D497A40EAA1004049C8847C
:1034E0000846C07AC000897A40EA61103C490885E4
:1034F0000846007B497B01F0070140EA012038497A
:1035000048850846807B8006400D497B40EAE10003
:10351000334901E04CE03EE088850846007CC00766
:10352000400DC97B40EA81002D49897B40EAA1100A
:103530002B49C8850846407C0007400D097C40EABD
:103540006100274908860846807C4006400D497C7A
:1035500040EA2110224948860846007D8007400D38
:10356000C97C40EA41001E49897C40EAE1101C49BF
:1035700088860846407DC006400D097D40EAA100CE
:103580001749C8860846807DC000497D40EA611120
:10359000134801870CE0002405E01149601C085C19
:1035A0000855601CC4B2182CF7DB18200C4948766B
:1035B0000D48FEF7A9FF0C480068406940F0010083
:1035C00009490968486108480068C06840F020005F
:1035D00005490968C86000BF0EE7000000440040CC
:1035E0003C000020808121426002002010B51B4871
:1035F000006800F02000E8B11848001D0068C4B25F
:10360000174801780078401C154A1070154844543A
:103610000D2C02D1012014490870114800781E2891
:1036200008D10020104908700D4908701E210D486E
:10363000FCF78FFD0D48FEF767FF0C4800684069F6
:1036400040F0010009490968486108480068C068FD
:1036500040F0200005490968C86010BD00480040DE
:1036600000000020B800002001000020A00200207F
:1036700000BFFEE70FB4054B10B503A9044A02983A
:1036800000F0F6F810BC5DF814FB0000D143000810
:103690000400002002480068C0F3022070470000C8
:1036A0000CED00E010B5002804DB0A07130E054AF4
:1036B000135406E00A07140E034A00F00F031B1F01
:1036C000D45410BD00E400E018ED00E002E008C8AA
:1036D000121F08C1002AFAD170477047002001E08C
:1036E00001C1121F002AFBD1704700002DE9FF5FC6
:1036F00082B00021DDE90430020DDDF840B0034363
:1037000018D044F61050A2F2FF324243151411981B
:1037100001281FD0A5EB0B00401C5FEA000A4FF008
:1037200000064E4FDFF83891B046504615D5CAF125
:10373000000413E0119801244AA3012801D16FEA83
:103740000B010298119AC0E90031C0E9024206B0AB
:10375000BDE8F09FCBF10000DFE704460021404ABE
:10376000491842EB0450CDE9001012E0E00707D001
:1037700032463B4640464946FCF772FE8046894643
:1037800032463B4610461946FCF76AFE06460F468F
:103790006410002CEAD1DDE90401DDE90023BAF16F
:1037A000000F06DAFCF75CFE42464B46FCF758FE7B
:1037B00005E0FCF7C7FE42464B46FCF7C3FE044655
:1037C0000E460022284BFDF79DF803D84FF0FF303E
:1037D000014607E00022254B20463146FCF799FDC3
:1037E000FDF778F8102409E0002C0ADB0A220023F8
:1037F000FCF78AFF039B30321A55641E50EA01021F
:10380000F2D1641C039AC4F111031444119A012AE1
:1038100003D0012208430DD10AE0084304D0002060
:103820004FF0110B119072E7A3EB0B056D1E0DE02D
:103830005B4504DD4FF0000205F1010504E003DA09
:103840004FF00002A5F10105002AECD00298119971
:10385000C0E90231C0E9004579E7000000001440EA
:103860000000F03F300000000000F0430000E03FA7
:103870002DE9FF4F95B09B468946064600250FE28D
:10388000252877D100242746F84A0121059400E035
:10389000044316F8013F203B01FA03F01042F7D130
:1038A00030782A2811D06FF02F033078A0F1300241
:1038B000092A16D8059A44F0020402EB820203EBAF
:1038C00042021044761C0590EFE759F8042B05924C
:1038D000002A03DA504244F40054059044F00204F4
:1038E000761C30782E2816D116F8010F44F0040407
:1038F0002A280DD06FF02F023078A0F13003092B69
:1039000009D807EB870302EB4303C718761CF3E7DC
:1039100059F8047B761C30786C280FD006DC4C28D4
:1039200017D068280DD06A2814D104E0742810D06C
:103930007A280FD10DE044F400140AE044F4801416
:1039400001E044F440147278824202D104F58014FC
:10395000761C761C307866280BD013DC582877D07C
:1039600009DC002875D04528F6D04628F4D0472831
:103970001AD19DE118E0632835D0642879D06528F4
:1039800012D195E1702873D008DC6728F1D069283E
:103990006FD06E280DD06F2806D1B5E073282CD0DB
:1039A000752875D0782874D05A46179990476D1CA1
:1039B00075E1C4F30250022809D003280DD0D9F8CC
:1039C000001004280DD00D6009F1040967E1D9F851
:1039D0000010EA17C1E90052F6E7D9F800100D808F
:1039E000F2E70D70F0E719F8041B8DF800100020C5
:1039F0008DF80100EA46012003E059F804AB4FF0CE
:103A0000FF3061074FF0000102D40DE008F1010121
:103A10008846B9420FDA8045F8DB1AF80810002909
:103A2000F4D108E008F1010188468142FADB1AF876
:103A300008100029F6D105985B46A0EB080721463F
:103A40003846179A00F094FA284400EB080507E07E
:103A50004DE029E10DE01AF8010B5A4617999047FD
:103A6000B8F10108F7D25B4621463846179A13E1B0
:103A700042E00A220092C4F302524FF0000A022AE6
:103A800008D059F804CB032A4FEAEC710AD00DE0B4
:103A900029E02AE009F1070121F00702F2E802C15A
:103AA000914609E00FFA8CFC4FEAEC71042A03D12D
:103AB0004FFA8CFC4FEAEC71002907DA0A46002124
:103AC000DCF1000C61EB02012D2202E0220504D59D
:103AD0002B228DF80420012203E0E20701D02022EE
:103AE000F7E7904659E00A2102E010220DE010218C
:103AF0004FF0000A00910BE010224FF0000A44F052
:103B000004040827009203E008224FF0000A009204
:103B1000C4F30252022A05D059F804CB0021032A2B
:103B200008D009E009F1070121F00702F2E802C11B
:103B3000914605E01FFA8CFC042A01D10CF0FF0C21
:103B40004FF00008220728D5702806D0009B83F08C
:103B5000100353EA0A0305D00EE040228DF804203A
:103B6000012208E05CEA010206D030228DF8042030
:103B70008DF8050002229046009B83F0080353EA6B
:103B80000A030AD15CEA010201D1620705D530229D
:103B90008DF804204FF001087F1E582804D034A06F
:103BA00003900EA802900DE036A0F9E75346604658
:103BB000009AFCF7A9FD84460398825C0298401E97
:103BC000029002705CEA0100F0D1029806A9081A7E
:103BD00000F1200A600702D524F4803400E00127B8
:103BE000574502DDA7EB0A0000E0002000EB0A01C8
:103BF000009005984144401A0590E00306D45B46C6
:103C00002146179A059800F0B3F90544002706E00D
:103C100001A85A46C05D179990476D1C7F1C474507
:103C2000F6DBE0030CD55B462146179A059800F0B9
:103C30009FF9054404E030205A46179990476D1CBF
:103C40000099481E00900029F5DC08E002980299CE
:103C50005A460078491C0291179990476D1CBAF199
:103C60000001AAF1010AF1DC65E100000928010068
:103C700030313233343536373839616263646566E2
:103C800000000000303132333435363738394142A4
:103C9000434445460000000000F058F90544761CF6
:103CA000307800287FF4ECAD19B02846BDE8F08FDD
:103CB000620700D4062709F1070222F0070CFCE88E
:103CC0000223E14603F000485FEA080C02D00FF23D
:103CD000702C0DE05FEA045C02D50FF2682C07E05F
:103CE0005FEAC47C02D00FF2602C01E0AFF2700CEE
:103CF0004FF0FF3823F00043CDF850C065280CD0BA
:103D000006DC452809D046281DD047283DD13DE096
:103D1000662818D067287ED138E00021112F01DBFA
:103D2000112000E0781CCDE9000106A90EA8FFF7DC
:103D3000DDFCDDE90F010E9A03910021009207F1ED
:103D4000010A04914DE04FF000400097CDE90110C9
:103D500006A90EA8FFF7CAFCDDE90F0203920E9B2D
:103D600011990022DDF80CA00093049211B9791C7E
:103D700000EB010AB7EB0A0004D4C0F1FF3007F1F1
:103D8000010A0490AAEB0700019044E0012F00DA39
:103D900001270021112F01DD112000E03846CDE977
:103DA000000106A90EA8FFF7A1FCDDE90F010E9A9C
:103DB0000391002104910092BA4621070CD4039983
:103DC000514500DA8A46BAF1010F05DD009AAAF1E1
:103DD0000101515C302908D0B84202DA10F1040F19
:103DE00006DA0121CDE9011015E0AAF10101E9E7A8
:103DF000002805DC049901440491AAEB000102E0CB
:103E0000411C514500DD8A460499401A401C01902E
:103E10004FF000400290200704D40198504501DB88
:103E2000CDF8048000208DF84F0002980DF14F0767
:103E3000B0F1004F25D02B200E9002984FF00208D1
:103E400000280CDA404202902D200E9007E00A2153
:103E50000298FCF743FC3031029007F8011DB8F1DD
:103E60000001A8F10108F2DC02980028EFD1791EC8
:103E70000E980870307800F0200040F0450007F8F8
:103E8000020D12A8C01B00F107081498007800B1B9
:103E9000012000EB0A01019801EBE0710598414413
:103EA000401A401E0590E00306D45B462146179A4F
:103EB000059800F05DF805441498007818B15A464A
:103EC000179990476D1CE00324D55B462146179A4D
:103ED000059800F04DF805441CE00498002807DB25
:103EE000DDE90301884203DD0098405C179901E099
:103EF000179930205A469047049805F10105401C57
:103F000004900198401E019004D12E205A46179922
:103F100090476D1CBAF10001AAF1010ADDDC05E051
:103F200017F8010B5A46179990476D1CB8F100011C
:103F3000A8F10108F4DC5B462146179A0598ABE628
:103F40002D0000002B000000200000002DE9F041B2
:103F5000044600251E461746880404D405E0394669
:103F60002020B0476D1C641EF9D52846BDE8F081BD
:103F70002DE9F041044600251E469046C80301D5B0
:103F8000302700E02027880404D505E04146384664
:103F9000B0476D1C641EF9D52846BDE8F0810000CD
:103FA0002DE9F04105460C4624492846FCF773F9F3
:103FB000064623492046FCF76EF907464FF07E512E
:103FC0003046FCF781FB01D24FF07E561D4930464A
:103FD000FCF770FB00D21B4E4FF07E513846FCF7C9
:103FE00073FB01D24FF07E5700213846FCF762FB8D
:103FF00000D2002714493046FCF71BF90646134946
:104000003046FCF7BEF8064611493846FCF711F970
:10401000074610493846FCF7B4F807463046FCF727
:1040200005FB80B24FF0804148633846FCF7FEFA4A
:1040300080B24FF080418863BDE8F08100003443D6
:104040000000B442000080BF0000C84200001643D8
:1040500000004843000048422DE9F05F072000F0CF
:10406000C5F98146FCF7DDFA80467049FCF713F983
:104070000446012000F0BAF98346FCF7D2FA8246E2
:104080006B49FCF708F981464FF08041FCF7D1F805
:1040900080464FF07E51FCF7C6F807462146FCF7F4
:1040A000C8F864490860082000F0A0F98146FCF7D0
:1040B000B8FA80465D49FCF7EEF80746022000F0AA
:1040C00095F98346FCF7ADFA82465949FCF7E3F8C7
:1040D00081464FF08041FCF7ACF880464FF07E51AE
:1040E000FCF7A1F804463946FCF7A3F852490860EA
:1040F000032000F07BF90746FCF793FA04464C498D
:10410000FCF7C9F80546042000F070F98146FCF779
:1041100088FA80464649FCF7BEF807464FF08041D2
:10412000FCF787F804464FF07E51FCF77CF8064612
:1041300042490868FCF775FA074640482438006889
:1041400000F0100008B13E4800E03E480146384605
:10415000FCF7A1F804463C4801682046FCF711F83A
:104160003949086035490868FCF75BFA3749086047
:1041700000203549086036490968A1F17900FCF74B
:1041800050FA07463349FCF786F80446324801687E
:104190002046FBF7F6FF3049086030492E4800689A
:1041A000FCF747F804462149FCF743F82C4908601E
:1041B0000020294908602548006800F0DBF9052047
:1041C00000F014F9B0F57A7F01DD012000E0002055
:1041D000244908601748016817480068FBF7D1FFB9
:1041E00004461448016814480068FCF71CF80746A8
:1041F000214600F03DF81C492846FCF71AF8044611
:104200001A493046FCF715F807462146FFF7C8FE65
:10421000092000F0EBF8B0F57A7F01DD012000E025
:1042200000201049091D0860BDE8F09F00007A4495
:104230000000FA44200000201C000020240400405C
:104240000000A0C00000A0401000002018000020C6
:1042500024080040000020400C0000200000B4436F
:1042600014000020B40122420000B4420000344394
:104270002DE9F04105460C4600212846FCF724FABA
:1042800015D24FF07E512846FCF71EFA01D24FF0AE
:104290007E552F492846FBF7CCFF0646FCF7C6F9AA
:1042A00080B22C4908600020091D086015E02A49E9
:1042B0002846FCF7FFF900D2274D00202549086069
:1042C00085F0004722493846FBF7B3FF0646FCF766
:1042D000ADF980B21F49091D08601F492046FBF750
:1042E000A8FF044600212046FCF7EEF916D24FF055
:1042F0007E512046FCF7E8F901D24FF07E54144974
:104300002046FBF796FF0646FCF790F980B211496C
:10431000083108600020091D086016E00E4920469B
:10432000FCF7C8F900D20C4C00200A49083108609B
:1043300084F0004706493846FBF77BFF0646FCF74A
:1043400075F980B203490C310860BDE8F0810000C6
:104350000000FA44342C0140000080BF2DE9F041F8
:104360001548006808B9012000E0002012490860E3
:104370001248006800F0100070B111480068FCF7A6
:1043800069F906460F4A104BFBF7C3FF0446FCF7DA
:1043900074F90B4908600DE009480068FCF75AF908
:1043A0000646084A084BFCF755F80446FCF765F941
:1043B00003490860BDE8F081888121420004004083
:1043C00010000020CC7F48BF7D1DC83F7047000013
:1043D00000BF054A126802F04002002AF9D0C2B2BA
:1043E000014B1B1D1A607047004800400146102910
:1043F00002DD4FF47A707047012902DA4FF47A70C7
:10440000F9E7481E014A32F81000F4E75600002090
:1044100070B51448007808B9002070BD12480068D3
:1044200008B9012000E000200F49086002220FA116
:104430000F48FBF799FE48B90E480068FCF70AF9E7
:10444000044622460B460CA0FFF714F91E2108482B
:10445000FBF77FFE00200B4908700249087001201D
:10446000DBE700000100002088812142746D00001C
:10447000B800002008000020746D702025660D0A29
:104480000000000000000020FCF74AFFFEF77FFC60
:10449000FEF74EFAFEF72AFAFEF7F2FAFEF760FB95
:1044A000FEF7A4FBFEF7DEFBFEF718FCFEF736FC7A
:1044B000FEF7EEF9FEF7C4FA002021490860214812
:1044C0000068C06840F020001E490968C8601E48A6
:1044D0000068C06840F020001B490968C8601B489C
:1044E000FDF7ECFC1A48FDF7E9FC1A48FDF7E6FC7D
:1044F00000211648FDF7DEFF04211448FDF7DAFF1E
:1045000008211248FDF7D6FF0C211048FDF7D2FF15
:1045100000211148FDF7CEFF04210F48FDF7CAFF27
:104520003C210B48FDF7B4FD3C210A48FDF7B0FDE6
:104530000AA0FFF79FF801E0FFF76AFFFCE7000021
:10454000B801224260020020A00200206001002089
:10455000E001002020020020A00100200D0A0D0A29
:1045600044656D6F436174204F6E6C696E650D0A12
:1045700000000000014908607047000008000020AA
:104580000000000000000000010203040607080903
:104590000000000001020304B845000800000020EC
:1045A0003C000000CC360008F44500083C00002028
:1045B0002C070000DC3600080000000000000000AE
:1045C00000000000000000000000000000000000EB
:1045D00000000000000000000000000000000000DB
:1045E00000000000000000001000000001000000BA
:0445F0000024F400AF
:04000005080000ED02
:00000001FF
