:020000040800F2
:100000001008002049020008111E00083D1B0008CE
:100010000D1E00086D130008FB26000800000000FC
:100020000000000000000000000000004D2000085B
:10003000611A000800000000A11E000865210008E8
:1000400063020008630200086302000863020008FC
:1000500063020008630200086302000863020008EC
:1000600063020008630200086302000863020008DC
:1000700063020008630200086302000863020008CC
:1000800063020008630200086302000863020008BC
:10009000711300086302000863020008630200088D
:1000A000630200086302000863020008630200089C
:1000B000630200086302000863020008630200088C
:1000C000630200086302000863020008630200087C
:1000D0006302000863020008630200087524000838
:1000E000630200086302000863020008630200085C
:1000F000630200086302000863020008630200084C
:10010000630200086302000863020008630200083B
:1001100063020008D121000863020008630200089E
:10012000630200086302000863020008630200081B
:10013000630200086302000863020008630200080B
:1001400063020008630200086302000863020008FB
:1001500063020008630200086302000863020008EB
:1001600063020008630200086302000863020008DB
:1001700063020008630200086302000863020008CB
:10018000630200086302000800F002F800F04CF877
:100190000AA090E8000C82448344AAF10107DA45E2
:1001A00001D100F041F8AFF2090EBAE80F0013F0E8
:1001B000010F18BFFB1A43F001031847F03000008D
:1001C00010310000103A24BF78C878C1FAD852071D
:1001D00024BF30C830C144BF04680C6070470000C1
:1001E0000023002400250026103A28BF78C1FBD840
:1001F000520728BF30C148BF0B607047662903F023
:100200000880632900F04283002070471FB502F088
:10021000F6FF00F059FB04000020002102F08EFCE4
:10022000E0601FBD10B510BD00F06AFC1146FFF77D
:10023000EDFF02F015FB00F088FC03B4FFF7F2FFBE
:1002400003BC02F07BFA00000948804709480047D8
:10025000FEE7FEE7FEE7FEE7FEE7FEE7FEE7FEE776
:10026000FEE7FEE704480549054A064B70470000D3
:1002700069210008890100081002002010080020F0
:100280001004002010040020704700000FB404493F
:1002900010B503AA029800F005FB10BC5DF814FB32
:1002A0000C00002070B5044685690068C10601D5C0
:1002B000302600E02026C00707D070BDD4E9012118
:1002C00030469047206A401C20626D1EF6D570BDF6
:1002D00070B5044685690078C00707D170BDD4E9C0
:1002E000012120209047206A401C20626D1EF6D517
:1002F00070BD70B50C460546012A05D028788006E9
:1003000000D5EA69002302E0012305E05B1C93426B
:1003100002D2E05C0028F9D1A869E618C01AA861E9
:10032000286A184428622846FFF7BCFF04E0D5E994
:10033000012114F8010B9047B442F8D32846FFF787
:10034000C7FF70BD2DE9F0474FF0000A894604460B
:10035000C0F820A02046E1688847002876D02528EC
:1003600006D0D4E901219047206A401C2062F1E7C1
:10037000E168204600258847C4F81CA006460027EF
:10038000C4F818A02A2E09D0304602F0D0F938B3AC
:1003900004EB8708303EC8F8186019E059F8041BD0
:1003A000204604EB87029161E1688847012F0646E9
:1003B00018D1E069002820DA25F020051DE0D8F8E2
:1003C000180000EB800006EB40003038C8F8180039
:1003D0002046E1688847064602F0A9F90028EED1D8
:1003E000012F0AD02E2E08D12046E16888477F1CB5
:1003F0000646022F45F02005C4DBA069002803DA79
:10040000404245F00105A061E80701D025F0100544
:10041000B6B1A6F14100192802D8203645F400658E
:100420004A463146204625604D46FFF7E7FE58B163
:10043000012806D0ED1D25F0070000F1080989E725
:1004400004E005F1040985E730468AE7206ABDE843
:10045000F087704770477047704770472DE9FF4F2E
:100460000C461E464FF0FF378BB0D2E90001DDF895
:1004700060800A908A46C1F30A5505B93D460021BD
:1004800008464FF00000BAF1000F00F4400005DA12
:1004900000EB80004FF4400101EA50004FEA905910
:1004A000B9F1010F00DDB9460A9850EA4A000ED0B2
:1004B00044F61050A5F2FF3545432F14B8F1000F54
:1004C0001ED07542291E1EDDC9F100021CE0B8F1E4
:1004D000010F4FF0000001D0302103E0F24305E0AE
:1004E0002154401CB042FBDB304600220021215445
:1004F0000B99C1F80880C1E900200FB0BDE8F08F6A
:10050000BD1B6D1CDEE74A4600DA694206A800F012
:100510007DFA06AB93E8070003AB83E8070050467B
:100520000A9900F05BFB8DE80700A0F500501F382A
:1005300000900398002D0ADD42F21F014A4608444C
:10054000002303A90390684600F0C4FD09E0A0F56C
:1005500000504A461F38002303A90390684600F064
:10056000CEFD8DE807000004000C03D04FF0FF30F3
:10057000410800E01046B8F1000F03D000220092BD
:1005800015461EE0751E05D400F0A2F93032625502
:100590006D1EF9D5B3460122084302D000227F1C0C
:1005A00004E02078302801D100227F1E002A09971C
:1005B00084D01DE0112D07DA00F08AF9303262553F
:1005C0006D1C50EA0102F5D1084302D00098C8B171
:1005D0000EE00021681E05E0235C625C6354225437
:1005E000401E491C8142F7DBAB46A81B401E099008
:1005F000002004F80B000B98099AC0F80880C0E9A5
:10060000002B7AE711264FF0000857E72DE9F04F4D
:1006100088460446D21D22F0070191B0D1E90001BD
:10062000CDE90A0102F06BF802460B98C00F01D029
:100630002D2007E02068810701D52B2002E0202132
:1006400001EAC000032A099001D0072A05DB03460E
:100650004146204600F09AF90BE12078800601D54A
:10066000E06900E00620B8F1650F814606D0B8F1D8
:10067000660F18D0B8F1670F70D131E00020B9F1E2
:10068000110F009001DB112301E009F101030AAA17
:1006900001A90CA8FFF7E2FEDDE90C70002609F1C4
:1006A0000105834647E001204B4600904FF000478C
:1006B0000AAA01A90CA8FFF7D1FEDDE90DB00C993B
:1006C0005D46002610B909F101000D18B9EB0500CF
:1006D00003D4C0F1FF3609F10105A5EB09002BE0B9
:1006E000B9F1010F01DA4FF001090020B9F1110F42
:1006F0000090484601DD112300E003460AAA01A943
:100700000CA8FFF7ABFEDDE90C704D4600268346D2
:10071000207800070AD4AB4500DA5D4601A8012D18
:1007200004DD411911F8011C302907D04F4502DAC8
:1007300017F1040F04DA012082460FE06D1EEEE788
:10074000002F02DCED1B3E4403E0781CA84200DDD4
:100750007D1CB81B00F1010A4FF00047207800070C
:1007600003D4AA4501DB4FF0FF3A0021B7F1004F57
:100770000DF143088DF8431024D002202B23002FC5
:1007800001DA7F422D230A21021EA0F1010000DCC4
:100790005FB197FBF1FC97FBF1F201FB1C7C174664
:1007A0000CF1300C08F801CDEEE7A8F10100037060
:1007B0002188090501D5452100E06521A0F1010846
:1007C00000F8011C09980FA9A1EB0807FF1D00B153
:1007D0000120411901EBEA70A1693844081A401E52
:1007E000A0612078C00602D42046FFF75BFD09987F
:1007F00028B1D4E901219047206A401C206220786A
:10080000C00622D52046FFF74DFD1EE0002E04DB7A
:10081000B34502DD01A8805D00E03020D4E901216C
:100820009047206A401C2062761CAAF101005FEA12
:10083000000A0AD100F048F8C0680168405CD4E9B9
:1008400001219047206A401C2062281EA5F1010565
:10085000DCDC07E0D4E9012118F8010B9047206A9D
:10086000401C2062381EA7F10107F3DC2046FFF789
:100870002FFD032011B041E610B5436913B1AFF36A
:10088000008001E0FFF735FD012010BD127800F176
:1008900024010A7000224A700122EDE711684FF02E
:1008A000FF32E9E7074B70B50D467B4400F05BF87B
:1008B0000446284600F01CF910B14FF0FF3070BD1F
:1008C000204670BD531F000000487047D001002033
:1008D00030B5B0F10A024FEA900E71F100034EEA12
:1008E000817EB0EB0E0061EB91014FEA101E4EEAE3
:1008F000017E10EB0E0041EB11114FEA102E4EEA73
:10090000016E10EB0E0041EB11214FEA104E4EEA42
:10091000014E10EB0E0041EB1141401841F1000176
:100920004FEAD00040EA41704FEAD10110EB800558
:100930004FEA810444EA907444EB01046D1944EBDE
:100940000404521BA3414FF0000348BF0A3200D5F4
:1009500030BD401C41F1000130BD000001694A1C5E
:1009600002610878704700B58FB0CDE901310021F0
:10097000059105497944CDE9031011466846FFF712
:10098000E1FC0FB000BD0000E5FFFFFF2DE9F041E5
:100990001F46044603260168072A01F4006004DBB1
:1009A00008B116A505E016A503E008B115A500E0FD
:1009B00015A521F010002060A069C01EA0610FB134
:1009C000401EA0612046FFF76DFC4FB1D4E9012124
:1009D00038469047206A401C2062C01C206206E016
:1009E000206AFAE7D4E9012115F8010B9047761E39
:1009F000F8D22046FFF76CFCBDE8F0814E414E0076
:100A00006E616E00494E4600696E66002DE9F04742
:100A1000814616468AB0354878440DC88DE80D00E9
:100A200032487844801C03AC0DC884E80D0041F6C0
:100A30009B300844372190FBF1F290FBF1F5A5F1D2
:100A4000800501FB12041B3C02D56442012000E03A
:100A50000020DFF898A080460027FA44AAF1BE0AD9
:100A60000EE0E0070AD03246684607EB4701012353
:100A70000AEB810100F043FB8DE8070064107F1C46
:100A8000002CEED1194F7F44AE3F19E0E80715D096
:100A900007EB04100DF1180A90E80E008AE80E002A
:100AA000C068F04201D1981908903246012306A986
:100AB00003A800F024FB03AB83E807006D10641C5F
:100AC000002DE3D14FF0010332466946B8F1000F23
:100AD00003A802D000F0FEFA01E000F010FBC9E923
:100AE0000001C9F808200AB0BDE8F08778280000A6
:100AF000007B00F08000704700487047B001002084
:100B00007546FFF7F9FFAE4605006946534620F0EB
:100B10000700854618B020B5FFF7A4FBBDE82040CC
:100B20004FF000064FF000074FF000084FF0000BA9
:100B300021F00701AC46ACE8C009ACE8C009ACE85C
:100B4000C009ACE8C0098D46704710B50446AFF344
:100B500000802046BDE81040FFF76FBB4FF0013C1E
:100B600050F8042B51F8043B9A4221D1A2EB0C031C
:100B7000934313EACC1317D150F8042B51F8043BDC
:100B80009A4215D1A2EB0C03934313EACC130BD179
:100B900050F8042B51F8043B9A4209D1A2EB0C0304
:100BA000934313EACC13DBD04FF00000704700BF33
:100BB000D01A01BAB1FA81F101F0180122FA01F05C
:100BC000CB40C1F12001DBB2C0B2C01A2CFA01F354
:100BD000D11A914311EAC311E6D170475FEA400C84
:100BE00008BF91F0000F4FEA8C234FEAC12243EA7D
:100BF00051514FEA1C5018BF00F5F0404FEA300049
:100C000018BF41F000415FEA6C5C00F02980BCF144
:100C1000FF3F08BF40F080407047130C06BF12042E
:100C20004FF0100C4FF0000C130E04BF12020CF129
:100C3000080C130F04BF12010CF1040C930F04BF36
:100C400092000CF1020CD30F04BF52000CF1010C06
:100C500011464FF00002A0F11F00A0EB0C007047FE
:100C600011F0004F08BF704731F000413FF4D5AF9D
:100C70000B0C06BF09044FF0100C4FF0000C0B0ECC
:100C800004BF09020CF1080C0B0F04BF09010CF1A1
:100C9000040C8B0F04BF89000CF1020CCB0F04BFB6
:100CA00049000CF1010CCCF12003A0EB0C0022FA5E
:100CB00003F302FA0CF241EA030100F1010070476C
:100CC00020F07F4C80EA030023F07F47ACEB070362
:100CD00003F57C5300F0004003F1FF032DE9804948
:100CE0004FEA154B09B44FEA144325EA0B4E24EAA8
:100CF00003480FF2042606EB132749083E785FEA03
:100D0000320203FB0667C7F5000707FB06F64FEA4A
:100D100054374FEAD64606F1020607FB066CCCF1C3
:100D2000005C4FEA1C472CEA074C07FB06F40CFB5F
:100D300006F504EB15464FEA961634BF00204FF037
:100D400000404FEAD13706FB07FC4FEA1C4C0CFB76
:100D50000BF7D21B03FB0CF761EB07010CFB0EF743
:100D6000B0EB074072EB17420CFB08F734BFA2EB65
:100D70000742B2EB074261EB17414FEA0C444FEADE
:100D8000910706FB07FC4FEA1C4C0CFB0BF7B0EB82
:100D9000C74072EB573203FB0CF734BFA2EBC742DC
:100DA000B2EBC74261EB57310CFB0EF7B0EBC7005B
:100DB00072EB57720CFB08F734BFA2EBC702B2EB21
:100DC000C70261EB5771039F4FEA816141EA9211BB
:100DD00004EBCC044FEAD1374FEA826206FB07FCF2
:100DE00042EA90124FEA80604FEA1C4C0CFB0BF772
:100DF000D21B03FB0CF761EB07010CFB0EF7B0EB0A
:100E0000074072EB17420CFB08F734BFA2EB074216
:100E1000B2EB074261EB17414FEA8C554FEA91075D
:100E200004EB9C2406FB07FC4FEA1C4C0CFB0BF765
:100E3000B0EBC74072EB573203FB0CF734BFA2EBA9
:100E4000C742B2EBC74261EB57310CFB0EF7B0EB78
:100E5000C70072EB57720CFB08F734BFA2EBC70256
:100E6000B2EBC70261EB577115EB4C254FEA81617C
:100E700041EA92114FEA82624FEAD13742EA901278
:100E800006FB07FC44F100044FEA80604FEA1C4C6B
:100E90000CFB0BF7D21B03FB0CF761EB07010CFB00
:100EA0000EF7B0EB074072EB17420CFB08F734BFAC
:100EB000A2EB0742B2EB074261EB174115EB1C15A1
:100EC0004FEA813141EA92414FEA823242EA90424E
:100ED0004FEA80304FEA0C7644F1000448EA0343BD
:100EE0004EEA0B484FF0000EB2EB080C71EB030713
:100EF00024BF624639464EEB0E0E4FF0000B001831
:100F0000524149414BEB0B0BB2EB080C71EB030761
:100F10007BF1000B24BF624639464EEB0E0E4FF0BC
:100F2000000B0018524149414BEB0B0BB2EB080C84
:100F300071EB03077BF1000B24BF624639464EEB91
:100F40000E0E51EA020718BF46F0010616EB0E76A8
:100F500055F1000254F1000103D5BDE88901BDE857
:100F60000088BDE88901BDE80048B619524141EB4F
:100F70000101A3F10103704780807F7E7D7C7B7A35
:100F80007978777676757473727171706F6E6E6D35
:100F90006C6C6B6A6A6968686766666564646363DB
:100FA00062616160605F5F5E5E5D5D5C5C5B5B5A61
:100FB0005A595958585757565655555554545353CE
:100FC00052525251515050504F4F4F4E4E4D4D4D29
:100FD0004C4C4C4B4B4B4A4A4A4949494848484774
:100FE00047474746464645454544444444434343B2
:100FF0004342424242414141002B9C4630D477005B
:101000002BD01CB54FEA370703B44FF010004FF058
:101010001001BAF1000F06D0BCF1000FDCBF40F0A8
:10102000080040F008014FF000000FBCBDE8104080
:101030000BF1010BBBF1010F08BF5FEA170722BFDD
:1010400012F1010211F101014FF0004143F10003DF
:1010500000F0004043EA00007047F9D35708D0E79A
:1010600046EA064613F1400F4FEA16461FDD13F11C
:10107000200FDFBF16430A46002120335B42BED05B
:10108000C3F1200746EA064602FA07F74FEA16467A
:1010900046EA0706C3F1200722FA03F201FA07F72E
:1010A00021FA03F14FF0000342EA0702A7E746EAFC
:1010B000020646EA06464FEA164646EA0106BCBF65
:1010C00046EA0646360C4FF000034FF000024FF0A0
:1010D000000194E72DE9804C9A46934670B491E85C
:1010E000380007C831EA400C48BF34EA430C03D546
:1010F000FFF7E6FDFFF780FFF0BCBDE8008C2DE9AF
:10110000804C9A46934670B491E8380007C810F0B6
:10111000804F08BF13F0804F03D100F005F8FFF7B0
:101120006BFFF0BCBDE8008C20F07F4780EA030035
:1011300023F07F4C07EB0C03A3F57C5300F0004039
:10114000A3F1FE0392F0000F00F0B38095F0000FC2
:1011500000F077802DE901494FEA11404FEA14462B
:1011600021EA004800FB06FC24EA064708FB06F6D5
:1011700007FB08F800FB07F718EB06484CEB164C8A
:101180004FEA124B18EB07484FEA15464CEB174055
:1011900022EA0B4E0BFB06FC25EA06470EFB06F681
:1011A00007FB0EFE0BFB07F71EEB064E4CEB164C37
:1011B0004FF000061EEB074E4CEB174B18EB0B08DD
:1011C00040F1000018EB0E0B58EB000840F1000056
:1011D0008F1A4FF000013CBFC943661B14BFB5EB2B
:1011E000040C00213CBFC943F61B4FEA17444EEAEA
:1011F0008E0E27EA04454FEA1C4704FB07622CEADF
:10120000074C05FB07F70CFB05F604FB0CFC16EB83
:10121000074642EB174216EB0C4642EB1C421BEB17
:10122000060658EB0202414146EA9E0601D5BDE89A
:101230000189B619524141EB0101A3F10103BDE857
:1012400001894FEA14454FEA114724EA054621EA8D
:10125000074C05FB07F406FB07F70CFB06F105FB43
:101260000CFC11EB074144EB17444FEA124711EB1A
:101270000C4144EB1C4422EA074C05FB07F206FB39
:1012800007F70CFB06F605FB0CFC16EB074642EBDA
:10129000174216EB0C4642EB1C456A1854F100014C
:1012A00048BF7047B619524141EB0101A3F1010358
:1012B000704795F0000F37D04FEA11424FEA1447BC
:1012C00021EA024624EA074C02FB07F106FB07F776
:1012D0000CFB06F402FB0CFC14EB074441EB17413A
:1012E0004FEA154714EB0C4441EB1C4125EA074C2F
:1012F00002FB07F506FB07F70CFB06F602FB0CFCEE
:1013000016EB074645EB174516EB0C4645EB1C4222
:10131000121951F1000148BF7047B619524141EB13
:101320000101A3F1010370474FEA14454FEA114749
:1013300024EA054621EA074C05FB07F106FB07F7FF
:101340000CFB06F24FF0000605FB0CFC12EB07420B
:1013500041EB174112EB0C4251EB1C4148BF704767
:10136000921841EB0101A3F10103704700BFFEE7B2
:101370002DE9F0412DED048B00270421474800F0B2
:10138000CDF84749454800F0ADF8464A00214348AA
:1013900000F04BFA43480068A0F2012090BB41489E
:1013A000007B4049C97A00EB012006B23D48817BB1
:1013B000407B01EB002004B23A48017CC07B01EB8A
:1013C000002005B200EE104AB8EEC00A364880EDA3
:1013D000010A304601F0A2FC41EC190B9FED330BE2
:1013E00053EC102B01F0B2FC41EC180B01F0BCFBEC
:1013F0002D49486100EE105AB8EEC00A084680ED4B
:10140000090A00BF00BF2B4800884FF47A7190FB97
:10141000F1F201FB1200002837D12748006808B913
:10142000012000E00020244908601F4890ED010AD7
:1014300010EE101A084601F071FE41EC180B53EC47
:10144000182B1EA0FEF722FF174890ED050A10EE9C
:10145000101A084601F062FE41EC180B53EC182BF1
:1014600019A0FEF713FF104890ED090A10EE101AAC
:10147000084601F053FE41EC180B53EC182B15A055
:10148000FEF704FF16A0FEF701FF0A480088401C83
:1014900008490880BDEC048BBDE8F0810064004081
:1014A000080000325800002024000020012DA00573
:1014B000B480A63F02000020B802414272706D2540
:1014C000382E32667C00000064656725382E32664F
:1014D0007C0000006D6F6D25382E32667C000000A8
:1014E0000D0A000000220C4B994202D100238361B7
:1014F00011E0C1F3130201F000730BB1C2600AE006
:1015000001F080630BB1026105E001F000630BB1F3
:10151000826000E0426070477000F030B1F5007FFB
:101520003AD00FDC202928D006DC01291CD0042960
:101530001DD0082940D11DE0402921D0B1F5807F80
:101540003AD126E0B1F5004F31D006DCB1F5806F1D
:1015500025D0B1F5006F2FD124E0B1F5803F12D036
:10156000B1F5003F28D111E0154A826025E008223C
:10157000C26022E01022C2601FE0082202611CE06B
:101580001022026119E00822426016E01022426037
:1015900013E00422426010E0042242600DE00422C5
:1015A00042600AE0002282610422426005E00022DB
:1015B00082610422426000E000BF00BF704700006B
:1015C0000101010010B504460B48844209D10121F4
:1015D000480600F0B7FC00214FF0007000F0B2FCAC
:1015E00008E00121880600F0ADFC00214FF080608A
:1015F00000F0A8FC10BD00000064004010B5002100
:10160000837A012202FA03F13D4A126842F0010294
:101610003B4B1A603A4A1C3212688A43384B1C33DF
:101620001A60027BCAB9364A0C3212688A43344BBC
:101630000C331A604288C38842EA0343304A40327E
:10164000847A42F834300288838842EA03432C4A81
:101650004032847A02EBC4025360027B012A19D122
:10166000274A0C3212680A43254B0C331A60428811
:10167000038842EA0343224A4032847A42F83430F3
:10168000C288838842EA03431D4A4032847A02EBCF
:10169000C4025360C27A3AB9194A121D12688A43C9
:1016A000174B1B1D1A6006E0154A121D12680A43EB
:1016B000134B1B1D1A60028932B9114A1432126889
:1016C0008A430F4B14331A600289012A06D10C4A4F
:1016D000143212680A430A4B14331A60427B012AFF
:1016E00006D1074A1C3212680A43054B1C331A60A4
:1016F000034A126822F00102014B1A6010BD00007B
:10170000006600401AB143690B43436102E043693C
:101710008B434361704730B50246002000231468B4
:1017200024F002041460146844F00104146000E022
:101730005B1C546804F001041CB94FF6FF74A3420B
:10174000F6D1546804F001040CB900206CE08C79E7
:10175000012C04D1146844F08004146003E0146880
:1017600024F080041460CC79012C04D1146844F076
:101770004004146003E0146824F0400414600C7A00
:10178000012C04D1146844F02004146003E01468B0
:1017900024F0200414604C7A012C04D1146844F025
:1017A0001004146003E0146824F0100414608C7AB0
:1017B000012C04D1146844F00804146003E0146898
:1017C00024F008041460CC7A012C04D1146844F08D
:1017D0000404146003E0146824F0040414608C789A
:1017E000A407CD7844EA05640D7944EA05444D79AF
:1017F00044EA05540D886D1E2C43D461146824F00E
:1018000001041460002300E05B1C546804F0010430
:101810001CB14FF6FF74A342F6D1546804F00104E2
:101820000CB1002000E0012030BD10B500F5D873E8
:1018300003EB01131B6803F004031372137A53B90B
:1018400000F5D87303EB01131B6840F2FF7404EA40
:101850005353136009E000F5D87303EB01131B68C1
:101860006FF0604404EAD303536000F5D87303EBD0
:1018700001131B6803F00203537200F5D87303EBE6
:1018800001135B6803F00F03937200F5D87303EB49
:1018900001135B681B0AD37400F5D87303EB0113C3
:1018A0009B68D37200F5D87303EB01139B681C0A85
:1018B000147300F5D87303EB01139B681C0C54736D
:1018C00000F5D87303EB01139B681B0E937300F5AF
:1018D000D87303EB0113DB68D37300F5D87303EB04
:1018E0000113DB681C0A147400F5D87303EB0113B1
:1018F000DB681C0C547400F5D87303EB0113DB6830
:101900001B0E937421B9C36843F02003C36003E046
:10191000036943F02003036110BD00218171C1718F
:10192000017241728172C1728170C17003210171B3
:101930000221417101210180704710B5024600204B
:10194000936803F08063B3F1806F00D110E0936877
:1019500003F00063B3F1006F01D1012008E0936848
:1019600003F08053B3F1805F01D1022000E0042036
:10197000042874D002F5C07303EB00131B6803F056
:10198000010402F5C07303EB00131C600B7A7BB9F2
:101990004B7A0C8843EA445302F5C07404EB0014FC
:1019A0002468234302F5C07404EB0014236010E0A4
:1019B0000B7A4C6843EAC4034C7A234302F5C074A3
:1019C00004EB00142468234302F5C07404EB0014F4
:1019D00023608B7A03F00F038B7202F5C07303EB65
:1019E00000135B6823F00F0402F5C07303EB0013D0
:1019F0005C6002F5C07303EB00135B688C7A2343D1
:101A000002F5C07404EB001463608B7B1C064B7BF7
:101A100044EA03440B7B44EA0323CC7A234302F5D4
:101A2000C07404EB0014A3608B7C1C064B7C44EA5E
:101A300003440B7C44EA0323CC7B234302F5C074AC
:101A400004EB0014E36002F5C07303EB00131B68A2
:101A500043F0010402F5C07303EB00131C6010BDDA
:101A60007047F0B50A4600210023002400BF3DE086
:101A7000012505FA01F3156805EA03049C4234D1F7
:101A800005684F000326BE40B543056015794E003A
:101A9000B5400668354305601579012D02D01579EA
:101AA000022D16D185684F000326BE40B5438560E0
:101AB00055794E00B54086683543856045680126F6
:101AC0008E40B5434560456896798E40B6B2354341
:101AD0004560C5684F000326BE40B543C560D57953
:101AE0004E00B540C6683543C560491C1029BFD3B8
:101AF000F0BDF0B5002300244D07ED0E02FA05F30A
:101B0000CE1000F1200555F826504E07F70E0F268F
:101B1000BE40B543CF1000F1200646F82750CE1046
:101B200000F1200555F8265045EA0304CE1000F1D7
:101B3000200545F82640F0BD0183704700BFFEE751
:101B400000B58BB00121084600F0DCF90121480600
:101B500000F0E8F94FF4C050099002208DF82800F9
:101B600000208DF82A0003208DF8290001208DF82F
:101B70002B0009A92A48FFF774FF09220B212848E6
:101B8000FFF7B7FF09220C212548FFF7B2FF2548D0
:101B9000FFF718FD06A8FFF7C0FE01208DF8210011
:101BA00000208DF81A008DF81B0008208DF81C000D
:101BB00003208DF81D00ADF8180006A91948FFF79D
:101BC000AAFD00208DF812008DF8130001208DF879
:101BD00014000020ADF80800ADF80A00ADF80C00C4
:101BE000ADF80E00ADF8100001208DF8150002A828
:101BF000FFF704FD14208DF8040002208DF8050085
:101C000001208DF806008DF8070001A800F002F908
:101C1000012202210348FFF775FD0BB000BD000053
:101C2000000002400064004000B52DED048B87B039
:101C3000B0EE408AF0EE608AB0EE419AF0EE619A22
:101C40006E480088032803DD01206D49086002E02A
:101C500000206B490860694800880A2803D10020E9
:101C60006649088004E065480088401C6349088094
:101C7000B7EE000AB4EEC08AF1EE10FA04DD41F2CC
:101C80007070ADF8000016E0BFEE000AB4EEC08A36
:101C9000F1EE10FA04D24EF69000ADF800000AE022
:101CA0009FED580A28EE000ABDEEC00A10EE100A99
:101CB00000B2ADF80000B7EE000AF4EEC08AF1EE13
:101CC00010FA04DD41F27070ADF8020016E0BFEECC
:101CD000000AF4EEC08AF1EE10FA04D24EF690003B
:101CE000ADF802000AE09FED470A28EE800ABDEE3B
:101CF000C00A10EE100A00B2ADF80200B7EE000AFA
:101D0000B4EEC09AF1EE10FA04DD41F27070ADF855
:101D1000040016E0BFEE000AB4EEC09AF1EE10FA2D
:101D200004D24EF69000ADF804000AE09FED350AAB
:101D300029EE000ABDEEC00A10EE100A00B2ADF89E
:101D40000400B7EE000AF4EEC09AF1EE10FA04DDDA
:101D500041F27070ADF8060016E0BFEE000AF4EE36
:101D6000C09AF1EE10FA04D24EF69000ADF80600DB
:101D70000AE09FED240A29EE800ABDEEC00A10EEAB
:101D8000100A00B2ADF8060000208DF810008DF8A2
:101D9000110008208DF8120080010290BDF80000AB
:101DA000000A8DF81300BDF80000C1B28DF81410C0
:101DB000BDF80200010A8DF81510BDF80200C1B28D
:101DC0008DF81610BDF80400010A8DF81710BDF843
:101DD0000400C1B28DF81810BDF80600010A8DF894
:101DE0001910BDF80600C1B28DF81A1002A90648F4
:101DF000FFF7A3FD07B0BDEC048B00BD040000207D
:101E0000BC0241420080BB450064004000BFFEE7C9
:101E10007047000070B5002100230F22C4781CB366
:101E2000174C246804F4E064C4F5E064C4F30721AB
:101E3000C1F10404E3B20A4144789C40E1B28478E1
:101E4000144021430C07210E0E4C0578615504788F
:101E500004F01F050124AC4005786D11AD0005F1BB
:101E6000E025C5F8004109E0047804F01F050124CD
:101E7000AC40054D0678761145F8264070BD00004F
:101E80000CED00E000E400E080E100E002490143E5
:101E9000024A1160704700000000FA050CED00E0F6
:101EA000704700001CB50121042000F02BF84FF40E
:101EB0006040009001208DF8040000208DF806009D
:101EC00003208DF8050001208DF8070069460C48B5
:101ED000FFF7C7FD4FF460410948FFF72DFE0C20C6
:101EE000009000208DF8040003208DF805000120EB
:101EF0008DF8070069460248FFF7B3FD1CBD0000DE
:101F00000008024029B1064A12680243044B1A60D5
:101F100004E0034A12688243014B1A6070470000D4
:101F20003038024029B1064A12680243044B1A6055
:101F300004E0034A12688243014B1A6070470000B4
:101F40004038024029B1064A12680243044B1A6025
:101F500004E0034A12688243014B1A607047000094
:101F600020380240F0B5002100220024022500267E
:101F70000223324F3F6807F00C0121B1042905D03C
:101F8000082937D105E02E4F076036E02D4F076056
:101F900033E02A4F3F1F3F68C7F38056274F3F1F4C
:101FA0003F6807F03F036EB1264FB7FBF3F7DFF84A
:101FB0008CC0ACF1040CDCF800C0CCF3881C07FB2F
:101FC0000CF40CE01E4FB7FBF3F7DFF870C0ACF178
:101FD000040CDCF800C0CCF3881C07FB0CF4174F92
:101FE0003F1F3F68C7F301477F1C7D00B4FBF5F737
:101FF000076002E0124F076000BF00BF0F4F3F684D
:1020000007F0F0010909104F7A5C0768D740476074
:102010000A4F3F6807F4E051890A0B4F7A5C476822
:10202000D7408760054F3F6807F46041490B064F72
:102030007A5C4768D740C760F0BD000008380240AE
:102040000024F40000127A00110000207047000004
:102050000CB50020019000903448006840F48030B6
:102060003249086000BF3148006800F40030009039
:102070000198401C0190009818B90198B0F5A04F44
:10208000F1D12A48006800F4003010B1012000901E
:1020900001E0002000900098012846D123484030FC
:1020A000006840F0805021494031086020480068B5
:1020B00040F440401E4908601C48083000681B4935
:1020C000083108600846006840F40040086008468F
:1020D000006840F4A05008601648091F0860081FF7
:1020E000006840F08070091F086000BF0F4800685A
:1020F00000F000700028F9D040F205700E49086029
:102100000A480830006820F00300084908310860D8
:102110000846006840F00200086000BF034808302D
:10212000006800F00C000828F8D10CBD003802400F
:102130000070004008544007003C0240042808D1C9
:102140004FF0E021096941F004014FF0E0221161F4
:1021500007E04FF0E021096921F004014FF0E0228F
:10216000116170477047000010B51548006840F4D1
:102170007000134908601348006840F001001149DD
:10218000086000200F49083108600E4800680E49B9
:1021900008400C4908600D48091D0860081F0068C8
:1021A00020F48020091F0860002006490C310860D7
:1021B000FFF74EFF4FF0006001498039086010BD05
:1021C00088ED00E000380240FFFFF6FE10300024EA
:1021D00010B540F225517A4800F0D1F900B910BD90
:1021E00040F22551764800F0AFF975488088C4B2B6
:1021F0007448417E407E401C724A507610464454DA
:10220000407E19287ED1104600780F287BD11046D9
:10221000807D8028FAD10020114648760846C07D8E
:1022200000F0300000B1DAE7664840786549897807
:1022300001F0070140EA0120624948830846408BCB
:10224000A0F5967048830846C0788006400D8978CE
:1022500040EAE1005B4988830846808BA0F59670D0
:1022600081B2584881834079C007400D55490979AA
:1022700040EA81005349C97840EAA1105149C88316
:102280000846C08BA0F5967081B24E48C183807914
:102290000007400D4B49497940EA610049490884EB
:1022A0000846008CA0F5967081B246480184C0793A
:1022B0004006400D4349897940EA2110414948844C
:1022C0000846407A8007400D097A40EA41003D49BE
:1022D000C97940EAE1103B4988840846807AC00603
:1022E000400D497A40EAA1003649C8840846C07AC0
:1022F000C000897A40EA6110324908850846007BAF
:10230000497B01E05AE04CE001F0070140EA01207E
:102310002C4948850846807B8006400D497B40EA71
:10232000E100284988850846007CC007400DC97B2C
:1023300040EA81002349897B40EAA1102149C885F0
:102340000846407C0007400D097C40EA61001D49B9
:1023500008860846807C4006400D497C40EA2110F2
:10236000184948860846007D8007400DC97C40EA30
:1023700041001449897C40EAE110124988860846E8
:10238000407DC006400D097D40EAA1000D49C88688
:102390000846807DC000497D40EA611109480187F7
:1023A0000CE0002405E00749601C085C0855601C2F
:1023B000C4B2182CF7DB18200249487600BF0EE79C
:1023C000005000403401002000B587B001210820F2
:1023D000FFF798FD01210805FFF7A4FD082202215F
:1023E0002148FFF786FB0420059002208DF8180095
:1023F0008DF8190001208DF81A0000208DF81B00BF
:1024000005A91948FFF72DFB012240F22551174875
:1024100000F0DFF835208DF8000004208DF8010071
:1024200001208DF802008DF803006846FFF7F2FCEA
:102430000F4801900020ADF808004FF48060ADF81F
:102440000C00C000ADF80A000020ADF81000042018
:10245000ADF80E0001A9054800F0E0F8012103489D
:1024600000F081F807B000BD000C024000500040B1
:10247000A086010010B540F22551064800F07FF813
:1024800038B1044800F034F9C4B2214602A0FDF787
:10249000FDFE10BD004800402563000010B588B067
:1024A000044601210420FFF72DFD01218804FFF7D8
:1024B00039FD07220B212248FFF71BFB07220A21C7
:1024C0001F48FFF716FB4FF44060069002208DF87E
:1024D0001C008DF81D0000208DF81E0001208DF8D5
:1024E0001F0006A91648FFF7BCFA02940020ADF8B9
:1024F0000C00ADF80E00ADF81000ADF814000C2083
:10250000ADF8120002A90F4800F088F801210D482B
:1025100000F029F8012240F225510A4800F059F84C
:1025200027208DF8040003208DF805008DF80600A3
:1025300001208DF8070001A8FFF76CFC08B010BD62
:10254000000802400048004010B50022002340F679
:102550006A14A14200D100BF0A1201249440A3B220
:10256000DC43048010BD21B1828942F40052828193
:1025700004E082894DF6FF731A408281704770B57E
:102580000246002400230025002040F66A16B142CE
:1025900000D100BFC1F3421501F01F03012606FA66
:1025A00003F3012D02D19689334006E0022D02D1BA
:1025B000168A334001E0968A33400C12012606FA4F
:1025C00004F41688344013B10CB1012000E000205F
:1025D00070BDF0B50346002400260025002040F61B
:1025E0006A17B94200D100BF1846C1F3421401F086
:1025F0001F06012707FA06F5012C01D10C3004E073
:10260000022C01D1103000E014301AB107682F43BA
:10261000076002E00768AF430760F0BD2DE9FF47A0
:1026200005460E460024A14600BFA046B08900B171
:1026300000BF2C8A24F44054F08804432C82AC89D7
:1026400041F20C608443B0883189084371890843A2
:102650000443AC81AC8A24F44074B0890443AC8256
:102660006846FFF77FFC2048854202D01F4885421C
:1026700002D1DDF80C9001E0DDF80890A88900F4A3
:10268000004040B109EBC90000EB09103168490076
:10269000B0FBF1F707E009EBC90000EB0910316866
:1026A0008900B0FBF1F76420B7FBF0F004012009CA
:1026B000642101FB1078A88900F4004040B1322069
:1026C00000EBC800B0FBF1F000F00700044308E0A5
:1026D000322000EB08106421B0FBF1F000F00F0095
:1026E00004432C81BDE8FF87001001400014014025
:1026F00001468888C0F30800704700BFFEE703B4B6
:1027000001984100009850EAC12018BF04204A0DEA
:1027100018BF40F0010040F2FF72B2EB515F08BFFA
:1027200040F00200012808BF052002B07047303891
:102730000A2801D2012070470020704700BF70476F
:1027400010B504466FF00400FFF7F8FCE11704EB46
:102750005171C1F3C701074A11701046007800EBB0
:102760004001C1EBC0104FF6FF7101EAC000024901
:10277000088010BD060000200800002070B5044647
:102780004FF4077094FBF0F0C6B24FF4077094FB5F
:10279000F0F100FB114085B205E04FF4077000F046
:1027A00009F8701EC6B2002EF7D115B1284600F008
:1027B00001F870BD0146114A12884A434FF0E023E8
:1027C0005A6100229A611A46126942F001021A61A6
:1027D00000BF4FF0E022106900F001021AB100F4CE
:1027E0008032002AF5D04FF0E022126922F0010277
:1027F0004FF0E0231A6100229A6170470800002020
:1028000000BF054A128802F04002002AF9D0C2B285
:10281000014B1B1D1A8070470048004001460329E8
:1028200010D004DC012907D0022914D107E00429C3
:102830000BD00A290FD10BE00848408B704707489E
:10284000808BFBE70548C08BF8E70448008CF5E770
:102850000248808DF2E700BFF0E70000340100205D
:102860002DED0C8BFFF71EFB4FF4A060FFF70EFB66
:10287000A820FFF765FF4FF4E130FFF70FFEFFF7E9
:10288000A3FDA4A0FDF702FDFFF75AF9DFEDA51A9D
:102890009FEDA41ADFEDA30A9FEDA20AFFF7C4F98A
:1028A0004FF4FA70FFF76AFF32E19F480088322147
:1028B00090FBF1F201FB120000B107E09B480068B9
:1028C00008B9012000E00020984908609648008877
:1028D000401C954908800A20FFF7A0FF40F26C7168
:1028E00088427CDD0120FFF799FF00EE100AB8EE68
:1028F000400ADFED8F0A80EE201AB7EE000A31EEB3
:10290000400A10EE104A204600F008FC41EC1D0B76
:102910009FED880B53EC102B00F018FA41EC1B0BC9
:102920000220FFF77BFF00EE100AB8EE400ADFED51
:10293000800A80EE201AB7EE000A31EE400AB1EEAE
:10294000400A10EE104A204600F0E8FB41EC1C0B58
:1029500053EC1B2B00F03AF941EC1A0B00F004F990
:1029600008EE100A0120FFF759FF00EE100AB8EE3A
:10297000400A9FED6F1AC0EE010AB7EE000A30EE72
:10298000C00A10EE104A204600F0C8FB41EC1D0BB7
:102990009FED680B53EC102B00F0D8F941EC1B0BAA
:1029A0000220FFF73BFF00EE100AF8EE400A9FED11
:1029B000601A80EE810AF7EE000A30EE600AB1EE8E
:1029C000400A10EE104A204600F0A8FB41EC1C0B18
:1029D00053EC1B2B00F0FAF841EC1A0B00E08AE0F4
:1029E00000F0C2F808EE900A0120FFF717FF00EE92
:1029F000100AF8EE400A9FED4E1A80EE810AF7EEBB
:102A0000000A30EE600A10EE104A204600F086FB05
:102A100041EC1D0B9FED470B53EC102B00F096F98A
:102A200041EC1B0B0220FFF7F9FE00EE100AF8EE56
:102A3000400A9FED3F1A80EE810AF7EE000A30EE61
:102A4000600A10EE104A204600F068FB41EC1C0BB7
:102A500053EC1B2B00F0BAF841EC1A0B00F084F891
:102A600009EE100A0120FFF7D9FE00EE100AF8EE79
:102A7000400A9FED2F1A80EE810AF7EE000A30EE31
:102A8000600A10EE104A204600F048FB41EC1D0B96
:102A90009FED280B53EC102B00F058F941EC1B0B69
:102AA0000220FFF7BBFE00EE100AF8EE400A9FED91
:102AB000201A80EE810AF7EE000A30EE600A10EE6E
:102AC000104A204600F02AFB41EC1C0B53EC1B2B58
:102AD00000F07CF841EC1A0B00F046F809EE900A81
:102AE000F0EE481AB0EE681AF0EE490AB0EE690A44
:102AF000FFF79AF809E0DFED0B1A9FED0A1ADFEDF8
:102B0000090A9FED080AFFF78FF81420FFF736FE39
:102B1000CBE600004D656F7720697320616C6976A4
:102B2000650D0A000000000000000020B4024142D0
:102B300000002F44333333333333D33F10B50029F0
:102B40000AD00878002807D005487844FEF706F830
:102B5000002801D0002010BD0248784410BD0000BC
:102B6000820700007A07000021F00042A2F16052C3
:102B7000B2F5801F01F0004328BFD2F17F6C0BD962
:102B80005FEA001C43EAC20242EB507018BF704774
:102B900028BF20F001007047B2F5801FBCBF184667
:102BA00070474FEA410C1CF5001F02D2084600F0A6
:102BB0002BBB70B500F074F900000089FFF7F6BF79
:102BC0004FF00040A0F580007047000010B591EA7A
:102BD000030F48BF83F0004300F1BE81841A71EBFC
:102BE000030C05D2121943EB0C03001B61EB0C0123
:102BF000DFF824E14FEA1154A4EB135C1EEA430F03
:102C000018BF9EEA445F73D023EA0E03DCF1200E66
:102C100021EA045143F4801332D322FA0CFE10EB64
:102C20000E0023FA0CFE41EB0E01CCF1200E03FA4C
:102C30000EFE10EB0E0051F10001B1F5801FCCF13A
:102C4000200E32D201EB045112FA0EF2BDE8104010
:102C500058BF7047401C38BF5FEA420218BF704738
:102C6000002814BF20F0010041F100014FEA4103A8
:102C700013F5001F38BF7047A1F1C04100F05EB9E5
:102C8000012A43EB0302ACF1200CDCF11F0E32BF32
:102C90004FF0000E23FA0CF310EB030041EB04514C
:102CA000B4EB115FD0D0A1EB045101F580114908BC
:102CB0005FEA300001EB04510ED350F1000038BF41
:102CC00012FA0EFE08D1BDE81040C9E7401C38BF1B
:102CD0005FEA4202CAD1C3E7BDE810404FEA4103B0
:102CE00013F5001F38BF7047A1F1C04100F026B9AD
:102CF0009EEA445F08D011EA5E0FBDE8104004BFB1
:102D000001F0004100207047BDE8104070B500F0B0
:102D1000C7F800BF64FBBE3E0000E0FF10F00042B9
:102D200048BF4042B0FA80F310FA03F10AD0C3F171
:102D30001D0303F580634FEA415002EB035202EB9F
:102D4000D12170474FF0000070470000DFF848C104
:102D500070B51CEA111E1EBF1CEA13159EEA0C0F6B
:102D600095EA0C0F00F06F8081EA030423EA4C130C
:102D70004EEAD47E21EA4C1141F4801143F48013D1
:102D8000AE44A1FB024CA0FB0365AEF17F7E361979
:102D900055EB0C05A1FB034C4CF10003A0FB021CFE
:102DA00016EB0C06654153F10003094218BF46F0CB
:102DB000010613F4007F0BD14FEA03314FEA0530CF
:102DC000340341EA155140EA16506FF003020AE05D
:102DD0004FEAC3214FEAC520F40241EA555140EAC7
:102DE00056506FF0020202EB2E4201EB025585EACB
:102DF000CE710AD05FEA440C18BF24F0004450F1B1
:102E0000000041F1000120EAD47040F2FE7C6245EE
:102E100000D270BDA84214BF4FF080444FF0404430
:102E2000002E08BF0024BEF1806FA8BFA1F1C041F1
:102E3000BDE8704080F282804FF0000001F1C04197
:102E400001F0004170479EEA0C0F0CEA131518BF01
:102E500095EA0C0F06D04FF0000081EA030E0EF049
:102E6000004170BD00F01CF88900013E00F007B879
:102E700000F009B84FEA430C5FEA5C5C08D081EAD5
:102E8000030100F05BB84FEA410C5FEA5C5CF6D1ED
:102E90004FF00000014970470000FF070000F87F75
:102EA0000EF1020E2EF0030E5EF8046B364205D4CE
:102EB000012A43EB030515F5001F12D8012841EB49
:102EC000010C1CF5001F0CD80ED14FEAD17C15F572
:102ED000001F0CEB4C0C0CF1020C08BF4CEBD37C2C
:102EE00004E04FF0080C01E04FEAD37C0CEB4C05FA
:102EF00026FA05F606F00706B6F1040C06D20EEB2C
:102F0000860CBDE870404CF0010C6047DFE80CF027
:102F1000090B02024FF000414FF00000A1F5002123
:102F200070BD19461046012851EB010418BFD4F5B5
:102F3000001484BF002001F0004170BD0808A0F516
:102F400000114FEA3101704710B591EA030F48BFF5
:102F500083F000433FF542AE841A71EB030C07D2B5
:102F600012198CF0004C43EB0C03001B61EB0C01BD
:102F7000DFF8A4E14FEA1154A4EB135C1EEA430FFF
:102F800018BF9EEA445F00F0B08023EA6E0352420D
:102F900021EA0451C3EB6E0338BF5B1EDCF1200E47
:102FA00025D322FA0CFE10EB0E0043FA0CFE41EB87
:102FB0000E01CCF1200E03FA0EFE10EB0E0051F1C3
:102FC0000001CCF1200E29D412FA0EF201EB0451CB
:102FD000BDE8104058BF7047401C1CBFB2F1004F05
:102FE000704700280CBF491C20F00100704712EB0D
:102FF000020E43EB030218BF4FF0010E4EEA4202ED
:10300000ACF1200CDCF11E0E54D943FA0CFE10EB8F
:103010000E0051F1FF31CCF11E0ED5D50EF1010E8F
:1030200012FA0EFE404141EB010101EB445C5FEA04
:103030005C5C10D910EBDE7001EB045138BFBEF1BF
:10304000004FBDE8104018BF704700280CBF491C56
:1030500020F00100704730D24FEAD42C11F5001156
:1030600024F400641BD0B1FA81F20B3AA41AA41E16
:10307000D2F12003914030FA03F31943904001EB61
:10308000CC71002C01EB0451BDE81040A8BF704783
:1030900001F1C0414FF0000001F000417047B0FA6B
:1030A00080F310FA03F100D110BDE41A173C480573
:1030B000C90AE4E701EB045110BD491001EB0451CA
:1030C000BDE810404FEA300002E04FF000017047C9
:1030D0004A0008BF0042F8D0B2F5001F28BF704771
:1030E00001F000414FF0000070479EEA445F07D0B6
:1030F00011EA5E0FBDE8104004BF002100207047B8
:10310000BDE8104070B5FFF7CBFE00BF40DFF63ED4
:1031100083F00041104670470000E0FF43004FEA93
:10312000D30C4FEA3C0C43401FBF40070CF16051E9
:1031300013F0FE4F70471CF0006F03D100200CF01D
:10314000004170470CF0004343EA507010B540EA6C
:10315000CC0000F00EF800BF000000924FEA000122
:10316000FFF7ECBE4FF000414FF00000A1F5002149
:1031700070470EF1020E2EF0030E5EF8044B24424F
:1031800004D44FEA4102B2F17F4F11D84FEA400315
:10319000B3F17F4F0CD80ED14FEAD07CB2F17F4F04
:1031A0000CEB4C0C0CF1020C08BF4CEBD17C04E096
:1031B0004FF0080C01E04FEAD17C0CEB4C0324FAF1
:1031C00003F404F00704B4F1040C06D20EEB840CF3
:1031D000BDE810404CF0010C6047DFE80CF0070838
:1031E00002024FF00040A0F5800010BD08464200EA
:1031F00018BFD2F1807288BF00F0004010BD4FF0C0
:103200004070E1EE100A7047FF2141EAD050C0053E
:103210007047FDF7FBB9000002400000000000A06D
:103220000000000005400000000000C80000000091
:103230000C4000000000409C00000000194000000D
:103240000020BCBE0000000034400000BFC91B8E3F
:1032500000000004B5400000504BCFD06607E2CF1D
:10326000010000006C4100003E8251AADFEEA7344D
:1032700001000000D9420000DCB5A0E23A301F97FF
:10328000FFFFFFFFB4450000FD25A0C8E9A3C14F23
:10329000FFFFFFFFFF3F0000000000800000000074
:1032A000FF3F00000000008000000000E83200083E
:1032B0000000002024000000C40100080C330008B6
:1032C00024000020EC070000E00100081C000000C2
:1032D00043000000F8FFFFFF0C0000000E0000009C
:1032E0000F0000002E0000000000000000000000A1
:1032F00000000000000000000000000000010203C8
:0C33000004010203040607080900000095
:040000050800018965
:00000001FF
